{
  "_format": "hh3-artifact-1",
  "contractName": "TournamentDeckCatalog",
  "sourceName": "contracts/tournament/infrastructure/deck-catalog/TournamentDeckCatalog.sol",
  "abi": [
    {
      "inputs": [],
      "stateMutability": "nonpayable",
      "type": "constructor"
    },
    {
      "inputs": [],
      "name": "CardAlreadyPaused",
      "type": "error"
    },
    {
      "inputs": [],
      "name": "CardIdTaken",
      "type": "error"
    },
    {
      "inputs": [],
      "name": "CardNotFound",
      "type": "error"
    },
    {
      "inputs": [],
      "name": "CardNotPaused",
      "type": "error"
    },
    {
      "inputs": [],
      "name": "ExceedsMaxCards",
      "type": "error"
    },
    {
      "inputs": [],
      "name": "ExceedsMaxObjectives",
      "type": "error"
    },
    {
      "inputs": [],
      "name": "InvalidBaseWeight",
      "type": "error"
    },
    {
      "inputs": [],
      "name": "InvalidCardCategory",
      "type": "error"
    },
    {
      "inputs": [],
      "name": "InvalidCardId",
      "type": "error"
    },
    {
      "inputs": [],
      "name": "InvalidEffectData",
      "type": "error"
    },
    {
      "inputs": [],
      "name": "InvalidModifierTrigger",
      "type": "error"
    },
    {
      "inputs": [],
      "name": "InvalidMultiplier",
      "type": "error"
    },
    {
      "inputs": [],
      "name": "InvalidObjective",
      "type": "error"
    },
    {
      "inputs": [],
      "name": "InvalidObjectiveId",
      "type": "error"
    },
    {
      "inputs": [],
      "name": "InvalidResource",
      "type": "error"
    },
    {
      "inputs": [],
      "name": "InvalidTargetData",
      "type": "error"
    },
    {
      "inputs": [],
      "name": "ObjectiveAlreadyPaused",
      "type": "error"
    },
    {
      "inputs": [],
      "name": "ObjectiveIdTaken",
      "type": "error"
    },
    {
      "inputs": [],
      "name": "ObjectiveNotFound",
      "type": "error"
    },
    {
      "inputs": [],
      "name": "ObjectiveNotPaused",
      "type": "error"
    },
    {
      "inputs": [
        {
          "internalType": "address",
          "name": "owner",
          "type": "address"
        }
      ],
      "name": "OwnableInvalidOwner",
      "type": "error"
    },
    {
      "inputs": [
        {
          "internalType": "address",
          "name": "account",
          "type": "address"
        }
      ],
      "name": "OwnableUnauthorizedAccount",
      "type": "error"
    },
    {
      "anonymous": false,
      "inputs": [
        {
          "indexed": true,
          "internalType": "uint8",
          "name": "cardId",
          "type": "uint8"
        },
        {
          "indexed": false,
          "internalType": "uint32",
          "name": "timestamp",
          "type": "uint32"
        }
      ],
      "name": "CardPaused",
      "type": "event"
    },
    {
      "anonymous": false,
      "inputs": [
        {
          "indexed": true,
          "internalType": "uint8",
          "name": "cardId",
          "type": "uint8"
        },
        {
          "indexed": false,
          "internalType": "enum TournamentDeckCatalog.CardCategory",
          "name": "category",
          "type": "uint8"
        },
        {
          "indexed": false,
          "internalType": "enum TournamentDeckCatalog.ModifierTrigger",
          "name": "trigger",
          "type": "uint8"
        },
        {
          "indexed": false,
          "internalType": "enum TournamentDeckCatalog.MysteryGrantCard",
          "name": "mysteryGrantCard",
          "type": "uint8"
        },
        {
          "indexed": false,
          "internalType": "uint16",
          "name": "baseWeight",
          "type": "uint16"
        },
        {
          "indexed": false,
          "internalType": "bytes",
          "name": "effectData",
          "type": "bytes"
        }
      ],
      "name": "CardRegistered",
      "type": "event"
    },
    {
      "anonymous": false,
      "inputs": [
        {
          "indexed": true,
          "internalType": "uint8",
          "name": "cardId",
          "type": "uint8"
        },
        {
          "indexed": false,
          "internalType": "uint32",
          "name": "timestamp",
          "type": "uint32"
        }
      ],
      "name": "CardUnpaused",
      "type": "event"
    },
    {
      "anonymous": false,
      "inputs": [
        {
          "indexed": true,
          "internalType": "uint8",
          "name": "objectiveId",
          "type": "uint8"
        },
        {
          "indexed": false,
          "internalType": "uint32",
          "name": "timestamp",
          "type": "uint32"
        }
      ],
      "name": "ObjectivePaused",
      "type": "event"
    },
    {
      "anonymous": false,
      "inputs": [
        {
          "indexed": true,
          "internalType": "uint8",
          "name": "objectiveId",
          "type": "uint8"
        },
        {
          "indexed": false,
          "internalType": "enum TournamentDeckCatalog.Objective",
          "name": "objectiveType",
          "type": "uint8"
        },
        {
          "indexed": false,
          "internalType": "bytes",
          "name": "targetData",
          "type": "bytes"
        }
      ],
      "name": "ObjectiveRegistered",
      "type": "event"
    },
    {
      "anonymous": false,
      "inputs": [
        {
          "indexed": true,
          "internalType": "uint8",
          "name": "objectiveId",
          "type": "uint8"
        },
        {
          "indexed": false,
          "internalType": "uint32",
          "name": "timestamp",
          "type": "uint32"
        }
      ],
      "name": "ObjectiveUnpaused",
      "type": "event"
    },
    {
      "anonymous": false,
      "inputs": [
        {
          "indexed": true,
          "internalType": "address",
          "name": "previousOwner",
          "type": "address"
        },
        {
          "indexed": true,
          "internalType": "address",
          "name": "newOwner",
          "type": "address"
        }
      ],
      "name": "OwnershipTransferred",
      "type": "event"
    },
    {
      "inputs": [],
      "name": "ELIM_TIER_1",
      "outputs": [
        {
          "internalType": "uint8",
          "name": "",
          "type": "uint8"
        }
      ],
      "stateMutability": "view",
      "type": "function"
    },
    {
      "inputs": [],
      "name": "ELIM_TIER_2",
      "outputs": [
        {
          "internalType": "uint8",
          "name": "",
          "type": "uint8"
        }
      ],
      "stateMutability": "view",
      "type": "function"
    },
    {
      "inputs": [],
      "name": "ELIM_TIER_3",
      "outputs": [
        {
          "internalType": "uint8",
          "name": "",
          "type": "uint8"
        }
      ],
      "stateMutability": "view",
      "type": "function"
    },
    {
      "inputs": [],
      "name": "ELIM_TIER_4",
      "outputs": [
        {
          "internalType": "uint8",
          "name": "",
          "type": "uint8"
        }
      ],
      "stateMutability": "view",
      "type": "function"
    },
    {
      "inputs": [],
      "name": "LIVES_MULT_1X",
      "outputs": [
        {
          "internalType": "uint16",
          "name": "",
          "type": "uint16"
        }
      ],
      "stateMutability": "view",
      "type": "function"
    },
    {
      "inputs": [],
      "name": "LIVES_MULT_2X",
      "outputs": [
        {
          "internalType": "uint16",
          "name": "",
          "type": "uint16"
        }
      ],
      "stateMutability": "view",
      "type": "function"
    },
    {
      "inputs": [],
      "name": "LIVES_MULT_3X",
      "outputs": [
        {
          "internalType": "uint16",
          "name": "",
          "type": "uint16"
        }
      ],
      "stateMutability": "view",
      "type": "function"
    },
    {
      "inputs": [],
      "name": "MAX_BATTLE_RATE_PCT",
      "outputs": [
        {
          "internalType": "uint8",
          "name": "",
          "type": "uint8"
        }
      ],
      "stateMutability": "view",
      "type": "function"
    },
    {
      "inputs": [],
      "name": "MAX_COINS_MULTIPLIER",
      "outputs": [
        {
          "internalType": "uint16",
          "name": "",
          "type": "uint16"
        }
      ],
      "stateMutability": "view",
      "type": "function"
    },
    {
      "inputs": [],
      "name": "MAX_TRADE_COUNT_PCT",
      "outputs": [
        {
          "internalType": "uint8",
          "name": "",
          "type": "uint8"
        }
      ],
      "stateMutability": "view",
      "type": "function"
    },
    {
      "inputs": [],
      "name": "MAX_TRADE_VOLUME_PCT",
      "outputs": [
        {
          "internalType": "uint8",
          "name": "",
          "type": "uint8"
        }
      ],
      "stateMutability": "view",
      "type": "function"
    },
    {
      "inputs": [],
      "name": "MAX_VICTORY_RATE_PCT",
      "outputs": [
        {
          "internalType": "uint8",
          "name": "",
          "type": "uint8"
        }
      ],
      "stateMutability": "view",
      "type": "function"
    },
    {
      "inputs": [],
      "name": "MIN_BATTLE_RATE_PCT",
      "outputs": [
        {
          "internalType": "uint8",
          "name": "",
          "type": "uint8"
        }
      ],
      "stateMutability": "view",
      "type": "function"
    },
    {
      "inputs": [],
      "name": "MIN_COINS_MULTIPLIER",
      "outputs": [
        {
          "internalType": "uint16",
          "name": "",
          "type": "uint16"
        }
      ],
      "stateMutability": "view",
      "type": "function"
    },
    {
      "inputs": [],
      "name": "MIN_TRADE_COUNT_PCT",
      "outputs": [
        {
          "internalType": "uint8",
          "name": "",
          "type": "uint8"
        }
      ],
      "stateMutability": "view",
      "type": "function"
    },
    {
      "inputs": [],
      "name": "MIN_TRADE_VOLUME_PCT",
      "outputs": [
        {
          "internalType": "uint8",
          "name": "",
          "type": "uint8"
        }
      ],
      "stateMutability": "view",
      "type": "function"
    },
    {
      "inputs": [],
      "name": "MIN_VICTORY_RATE_PCT",
      "outputs": [
        {
          "internalType": "uint8",
          "name": "",
          "type": "uint8"
        }
      ],
      "stateMutability": "view",
      "type": "function"
    },
    {
      "inputs": [],
      "name": "STREAK_TIER_1",
      "outputs": [
        {
          "internalType": "uint8",
          "name": "",
          "type": "uint8"
        }
      ],
      "stateMutability": "view",
      "type": "function"
    },
    {
      "inputs": [],
      "name": "STREAK_TIER_2",
      "outputs": [
        {
          "internalType": "uint8",
          "name": "",
          "type": "uint8"
        }
      ],
      "stateMutability": "view",
      "type": "function"
    },
    {
      "inputs": [],
      "name": "STREAK_TIER_3",
      "outputs": [
        {
          "internalType": "uint8",
          "name": "",
          "type": "uint8"
        }
      ],
      "stateMutability": "view",
      "type": "function"
    },
    {
      "inputs": [],
      "name": "STREAK_TIER_4",
      "outputs": [
        {
          "internalType": "uint8",
          "name": "",
          "type": "uint8"
        }
      ],
      "stateMutability": "view",
      "type": "function"
    },
    {
      "inputs": [],
      "name": "cardCount",
      "outputs": [
        {
          "internalType": "uint8",
          "name": "",
          "type": "uint8"
        }
      ],
      "stateMutability": "view",
      "type": "function"
    },
    {
      "inputs": [
        {
          "internalType": "uint8",
          "name": "cardId",
          "type": "uint8"
        }
      ],
      "name": "cardExists",
      "outputs": [
        {
          "internalType": "bool",
          "name": "",
          "type": "bool"
        }
      ],
      "stateMutability": "view",
      "type": "function"
    },
    {
      "inputs": [],
      "name": "getAllCardIds",
      "outputs": [
        {
          "internalType": "uint8[]",
          "name": "",
          "type": "uint8[]"
        }
      ],
      "stateMutability": "view",
      "type": "function"
    },
    {
      "inputs": [],
      "name": "getAllObjectiveIds",
      "outputs": [
        {
          "internalType": "uint8[]",
          "name": "",
          "type": "uint8[]"
        }
      ],
      "stateMutability": "view",
      "type": "function"
    },
    {
      "inputs": [
        {
          "internalType": "uint8",
          "name": "cardId",
          "type": "uint8"
        }
      ],
      "name": "getCard",
      "outputs": [
        {
          "components": [
            {
              "internalType": "bool",
              "name": "exists",
              "type": "bool"
            },
            {
              "internalType": "bool",
              "name": "paused",
              "type": "bool"
            },
            {
              "internalType": "uint8",
              "name": "cardId",
              "type": "uint8"
            },
            {
              "internalType": "enum TournamentDeckCatalog.CardCategory",
              "name": "category",
              "type": "uint8"
            },
            {
              "internalType": "enum TournamentDeckCatalog.ModifierTrigger",
              "name": "trigger",
              "type": "uint8"
            },
            {
              "internalType": "enum TournamentDeckCatalog.MysteryGrantCard",
              "name": "mysteryGrantCard",
              "type": "uint8"
            },
            {
              "internalType": "uint16",
              "name": "baseWeight",
              "type": "uint16"
            },
            {
              "internalType": "bytes",
              "name": "effectData",
              "type": "bytes"
            }
          ],
          "internalType": "struct TournamentDeckCatalog.CardDefinition",
          "name": "",
          "type": "tuple"
        }
      ],
      "stateMutability": "view",
      "type": "function"
    },
    {
      "inputs": [
        {
          "internalType": "uint8[]",
          "name": "cardIds",
          "type": "uint8[]"
        }
      ],
      "name": "getCards",
      "outputs": [
        {
          "components": [
            {
              "internalType": "bool",
              "name": "exists",
              "type": "bool"
            },
            {
              "internalType": "bool",
              "name": "paused",
              "type": "bool"
            },
            {
              "internalType": "uint8",
              "name": "cardId",
              "type": "uint8"
            },
            {
              "internalType": "enum TournamentDeckCatalog.CardCategory",
              "name": "category",
              "type": "uint8"
            },
            {
              "internalType": "enum TournamentDeckCatalog.ModifierTrigger",
              "name": "trigger",
              "type": "uint8"
            },
            {
              "internalType": "enum TournamentDeckCatalog.MysteryGrantCard",
              "name": "mysteryGrantCard",
              "type": "uint8"
            },
            {
              "internalType": "uint16",
              "name": "baseWeight",
              "type": "uint16"
            },
            {
              "internalType": "bytes",
              "name": "effectData",
              "type": "bytes"
            }
          ],
          "internalType": "struct TournamentDeckCatalog.CardDefinition[]",
          "name": "cards",
          "type": "tuple[]"
        }
      ],
      "stateMutability": "view",
      "type": "function"
    },
    {
      "inputs": [
        {
          "internalType": "uint8",
          "name": "objectiveId",
          "type": "uint8"
        }
      ],
      "name": "getObjective",
      "outputs": [
        {
          "components": [
            {
              "internalType": "uint8",
              "name": "objectiveId",
              "type": "uint8"
            },
            {
              "internalType": "enum TournamentDeckCatalog.Objective",
              "name": "objectiveType",
              "type": "uint8"
            },
            {
              "internalType": "bool",
              "name": "exists",
              "type": "bool"
            },
            {
              "internalType": "bool",
              "name": "paused",
              "type": "bool"
            },
            {
              "internalType": "bytes",
              "name": "targetData",
              "type": "bytes"
            }
          ],
          "internalType": "struct TournamentDeckCatalog.ObjectiveDefinition",
          "name": "",
          "type": "tuple"
        }
      ],
      "stateMutability": "view",
      "type": "function"
    },
    {
      "inputs": [
        {
          "internalType": "uint8[]",
          "name": "objectiveIds",
          "type": "uint8[]"
        }
      ],
      "name": "getObjectives",
      "outputs": [
        {
          "components": [
            {
              "internalType": "uint8",
              "name": "objectiveId",
              "type": "uint8"
            },
            {
              "internalType": "enum TournamentDeckCatalog.Objective",
              "name": "objectiveType",
              "type": "uint8"
            },
            {
              "internalType": "bool",
              "name": "exists",
              "type": "bool"
            },
            {
              "internalType": "bool",
              "name": "paused",
              "type": "bool"
            },
            {
              "internalType": "bytes",
              "name": "targetData",
              "type": "bytes"
            }
          ],
          "internalType": "struct TournamentDeckCatalog.ObjectiveDefinition[]",
          "name": "objectives",
          "type": "tuple[]"
        }
      ],
      "stateMutability": "view",
      "type": "function"
    },
    {
      "inputs": [
        {
          "internalType": "uint8",
          "name": "cardId",
          "type": "uint8"
        }
      ],
      "name": "isCardActive",
      "outputs": [
        {
          "internalType": "bool",
          "name": "",
          "type": "bool"
        }
      ],
      "stateMutability": "view",
      "type": "function"
    },
    {
      "inputs": [
        {
          "internalType": "uint8",
          "name": "cardId",
          "type": "uint8"
        }
      ],
      "name": "isCardPaused",
      "outputs": [
        {
          "internalType": "bool",
          "name": "",
          "type": "bool"
        }
      ],
      "stateMutability": "view",
      "type": "function"
    },
    {
      "inputs": [
        {
          "internalType": "uint8",
          "name": "objectiveId",
          "type": "uint8"
        }
      ],
      "name": "isObjectiveActive",
      "outputs": [
        {
          "internalType": "bool",
          "name": "",
          "type": "bool"
        }
      ],
      "stateMutability": "view",
      "type": "function"
    },
    {
      "inputs": [
        {
          "internalType": "uint8",
          "name": "objectiveId",
          "type": "uint8"
        }
      ],
      "name": "isObjectivePaused",
      "outputs": [
        {
          "internalType": "bool",
          "name": "",
          "type": "bool"
        }
      ],
      "stateMutability": "view",
      "type": "function"
    },
    {
      "inputs": [],
      "name": "objectiveCount",
      "outputs": [
        {
          "internalType": "uint8",
          "name": "",
          "type": "uint8"
        }
      ],
      "stateMutability": "view",
      "type": "function"
    },
    {
      "inputs": [
        {
          "internalType": "uint8",
          "name": "objectiveId",
          "type": "uint8"
        }
      ],
      "name": "objectiveExists",
      "outputs": [
        {
          "internalType": "bool",
          "name": "",
          "type": "bool"
        }
      ],
      "stateMutability": "view",
      "type": "function"
    },
    {
      "inputs": [],
      "name": "owner",
      "outputs": [
        {
          "internalType": "address",
          "name": "",
          "type": "address"
        }
      ],
      "stateMutability": "view",
      "type": "function"
    },
    {
      "inputs": [
        {
          "internalType": "uint8",
          "name": "card",
          "type": "uint8"
        }
      ],
      "name": "pauseCard",
      "outputs": [],
      "stateMutability": "nonpayable",
      "type": "function"
    },
    {
      "inputs": [
        {
          "internalType": "uint8",
          "name": "objectiveId",
          "type": "uint8"
        }
      ],
      "name": "pauseObjective",
      "outputs": [],
      "stateMutability": "nonpayable",
      "type": "function"
    },
    {
      "inputs": [
        {
          "components": [
            {
              "internalType": "bool",
              "name": "exists",
              "type": "bool"
            },
            {
              "internalType": "bool",
              "name": "paused",
              "type": "bool"
            },
            {
              "internalType": "uint8",
              "name": "cardId",
              "type": "uint8"
            },
            {
              "internalType": "enum TournamentDeckCatalog.CardCategory",
              "name": "category",
              "type": "uint8"
            },
            {
              "internalType": "enum TournamentDeckCatalog.ModifierTrigger",
              "name": "trigger",
              "type": "uint8"
            },
            {
              "internalType": "enum TournamentDeckCatalog.MysteryGrantCard",
              "name": "mysteryGrantCard",
              "type": "uint8"
            },
            {
              "internalType": "uint16",
              "name": "baseWeight",
              "type": "uint16"
            },
            {
              "internalType": "bytes",
              "name": "effectData",
              "type": "bytes"
            }
          ],
          "internalType": "struct TournamentDeckCatalog.CardDefinition",
          "name": "card",
          "type": "tuple"
        }
      ],
      "name": "registerCard",
      "outputs": [],
      "stateMutability": "nonpayable",
      "type": "function"
    },
    {
      "inputs": [
        {
          "components": [
            {
              "internalType": "uint8",
              "name": "objectiveId",
              "type": "uint8"
            },
            {
              "internalType": "enum TournamentDeckCatalog.Objective",
              "name": "objectiveType",
              "type": "uint8"
            },
            {
              "internalType": "bool",
              "name": "exists",
              "type": "bool"
            },
            {
              "internalType": "bool",
              "name": "paused",
              "type": "bool"
            },
            {
              "internalType": "bytes",
              "name": "targetData",
              "type": "bytes"
            }
          ],
          "internalType": "struct TournamentDeckCatalog.ObjectiveDefinition",
          "name": "objective",
          "type": "tuple"
        }
      ],
      "name": "registerObjective",
      "outputs": [],
      "stateMutability": "nonpayable",
      "type": "function"
    },
    {
      "inputs": [],
      "name": "renounceOwnership",
      "outputs": [],
      "stateMutability": "nonpayable",
      "type": "function"
    },
    {
      "inputs": [
        {
          "internalType": "address",
          "name": "newOwner",
          "type": "address"
        }
      ],
      "name": "transferOwnership",
      "outputs": [],
      "stateMutability": "nonpayable",
      "type": "function"
    },
    {
      "inputs": [
        {
          "internalType": "uint8",
          "name": "cardId",
          "type": "uint8"
        }
      ],
      "name": "unpauseCard",
      "outputs": [],
      "stateMutability": "nonpayable",
      "type": "function"
    },
    {
      "inputs": [
        {
          "internalType": "uint8",
          "name": "objectiveId",
          "type": "uint8"
        }
      ],
      "name": "unpauseObjective",
      "outputs": [],
      "stateMutability": "nonpayable",
      "type": "function"
    }
  ],
  "bytecode": "0x608080604052346071573315605e575f8054336001600160a01b0319821681178355916001600160a01b03909116907f8be0079c531659141344cd1fd0a4f28419497f9722a3daafe3b4186f6b6457e09080a361285490816100768239f35b631e4fbdf760e01b5f525f60045260245ffd5b5f80fdfe6080806040526004361015610012575f80fd5b5f3560e01c9081630164c1db14611e1157508063043a953214611df657806309004eb114611d8f578063121d240514611d6f578063125de1271461029257806315d526f414611d7457806319b032ac14611d6f5780631b6cde1014611d4f578063200f1eb314611cf35780632211dc9b1461182f578063222e1298146118145780632532c3e3146117d75780632d73ba08146117bc5780633011f46c14610db05780633d8cf706146117a157806341d549ab1461028d57806345c293b9146116f45780635538bb0014610f5b578063587b4c4414610f405780635acf0e4d14610f255780636f3e3f9614610ebb578063715018a614610e6457806372b9d5f914610db5578063755d262f14610db057806375f0715f14610b45578063810acfb714610d73578063842e9c5b14610b405780638637922e14610cc95780638689db8514610ca95780638956739614610b8457806389949af714610b4a5780638be03c2f14610b455780638d27aef214610b405780638da5cb5b14610b195780639364e94314610adc578063997a556b14610ac1578063b2a96ad3146109a3578063bddc57b314610943578063be87c32214610880578063d18ccdc914610297578063dd142a7f1461028d578063e48d89a514610292578063ef6525681461028d5763f2fde38b14610200575f80fd5b34610289576020366003190112610289576004356001600160a01b038116908190036102895761022e6126e1565b8015610276575f80546001600160a01b03198116831782556001600160a01b0316907f8be0079c531659141344cd1fd0a4f28419497f9722a3daafe3b4186f6b6457e09080a3005b631e4fbdf760e01b5f525f60045260245ffd5b5f80fd5b612221565b6117a1565b34610289575f36600319011261028957604051806020600654928381520160065f527ff652222313e28459528d920b65115c16c04f3efc82aaedc97be59f3f377c0d3f925f935b81601f8601106106de57916104079484926103fb9454918181106106ca575b8181106106b3575b81811061069c575b818110610685575b81811061066f575b818110610658575b818110610641575b81811061062a575b818110610613575b8181106105fc575b8181106105e5575b8181106105ce575b8181106105b7575b8181106105a0575b818110610589575b818110610572575b81811061055b575b818110610544575b81811061052d575b818110610516575b8181106104ff575b8181106104e8575b8181106104d1575b8181106104ba575b8181106104a3575b81811061048c575b818110610475575b81811061045e575b818110610447575b818110610430575b818110610419575b1061040b575b500382612357565b604051918291826120f4565b0390f35b60f81c8152602001856103f3565b92602060019160ff8560f01c1681520193016103ed565b92602060019160ff8560e81c1681520193016103e5565b92602060019160ff8560e01c1681520193016103dd565b92602060019160ff8560d81c1681520193016103d5565b92602060019160ff8560d01c1681520193016103cd565b92602060019160ff8560c81c1681520193016103c5565b92602060019160ff8560c01c1681520193016103bd565b92602060019160ff8560b81c1681520193016103b5565b92602060019160ff8560b01c1681520193016103ad565b92602060019160ff8560a81c1681520193016103a5565b92602060019160ff8560a01c16815201930161039d565b92602060019160ff8560981c168152019301610395565b92602060019160ff8560901c16815201930161038d565b92602060019160ff8560881c168152019301610385565b92602060019160ff8560801c16815201930161037d565b92602060019160ff8560781c168152019301610375565b92602060019160ff8560701c16815201930161036d565b92602060019160ff8560681c168152019301610365565b92602060019160ff8560601c16815201930161035d565b92602060019160ff8560581c168152019301610355565b92602060019160ff8560501c16815201930161034d565b92602060019160ff8560481c168152019301610345565b92602060019160ff8560401c16815201930161033d565b92602060019160ff8560381c168152019301610335565b92602060019160ff8560301c16815201930161032d565b92602060019160ff8560281c168152019301610325565b92602060019160ff85831c16815201930161031d565b92602060019160ff8560181c168152019301610315565b92602060019160ff8560101c16815201930161030d565b92602060019160ff8560081c168152019301610305565b92602060019160ff851681520193016102fd565b916001610400602092855460ff8116825260ff8160081c168583015260ff8160101c16604083015260ff8160181c16606083015260ff81861c16608083015260ff8160281c1660a083015260ff8160301c1660c083015260ff8160381c1660e083015260ff8160401c1661010083015260ff8160481c1661012083015260ff8160501c1661014083015260ff8160581c1661016083015260ff8160601c1661018083015260ff8160681c166101a083015260ff8160701c166101c083015260ff8160781c166101e083015260ff8160801c1661020083015260ff8160881c1661022083015260ff8160901c1661024083015260ff8160981c1661026083015260ff8160a01c1661028083015260ff8160a81c166102a083015260ff8160b01c166102c083015260ff8160b81c166102e083015260ff8160c01c1661030083015260ff8160c81c1661032083015260ff8160d01c1661034083015260ff8160d81c1661036083015260ff8160e01c1661038083015260ff8160e81c166103a083015260ff8160f01c166103c083015260f81c6103e08201520193019401936102de565b346102895760203660031901126102895760043560ff8116809103610289576108a76126e1565b805f52600460205260ff60405f205460101c161561093457805f52600460205260ff60405f205460181c1661092557805f52600460205260405f20630100000063ff000000198254161790557f67a6cd710d3841cfbd224e797e3805ac2d0a19ad4471a59e016164a3a3fbbf12602060405163ffffffff42168152a2005b632b9f674360e11b5f5260045ffd5b639b1eaad160e01b5f5260045ffd5b346102895760203660031901126102895760043560ff811680910361028957805f52600460205260ff60405f205460101c1680610988575b6020906040519015158152f35b505f526004602052602060ff60405f205460181c161561097b565b34610289576109b1366122ca565b906109bb826126a5565b916109c96040519384612357565b808352601f196109d8826126a5565b015f5b818110610aaa5750505f5b818110610a5457836040518091602082016020835281518091526040830190602060408260051b8601019301915f905b828210610a2557505050500390f35b91936001919395506020610a448192603f198a82030186528851612249565b9601920192018594939192610a16565b60ff610a69610a648385876126bd565b612527565b165f52600460205260405f209060ff825460101c161561093457610a8e600192612656565b610a9882876126cd565b52610aa381866126cd565b50016109e6565b602090610ab561262c565b828288010152016109db565b34610289575f366003190112610289576020604051600f8152f35b346102895760203660031901126102895760043560ff8116809103610289575f526004602052602060ff60405f205460181c166040519015158152f35b34610289575f366003190112610289575f546040516001600160a01b039091168152602090f35b6122ae565b612293565b346102895760203660031901126102895760043560ff8116809103610289575f526001602052602060ff60405f2054166040519015158152f35b3461028957610b92366122ca565b90610b9c826126a5565b91610baa6040519384612357565b808352601f19610bb9826126a5565b015f5b818110610c925750505f5b818110610c3557836040518091602082016020835281518091526040830190602060408260051b8601019301915f905b828210610c0657505050500390f35b91936001919395506020610c258192603f198a82030186528851612184565b9601920192018594939192610bf7565b60ff610c45610a648385876126bd565b165f52600160205260405f209060ff82541615610c8357610c67600192612499565b610c7182876126cd565b52610c7c81866126cd565b5001610bc7565b630479201160e41b5f5260045ffd5b602090610c9d612379565b82828801015201610bbc565b34610289575f36600319011261028957602060ff60055416604051908152f35b346102895760203660031901126102895760043560ff811680910361028957610cf06126e1565b805f52600160205260ff60405f20541615610c8357805f52600160205260ff60405f205460081c1615610d6457805f52600160205260405f2061ff001981541690557fed6b81ec3d6eb80d6709b392a29e6b6d7f18abdff5f64826dca41f316a62ae13602060405163ffffffff42168152a2005b632112e84360e11b5f5260045ffd5b346102895760203660031901126102895760043560ff8116809103610289575f526004602052602060ff60405f205460101c166040519015158152f35b610f25565b346102895760203660031901126102895760043560ff811680910361028957610ddc6126e1565b805f52600460205260ff60405f205460101c161561093457805f52600460205260ff60405f205460181c1615610e5557805f52600460205260405f2063ff0000001981541690557f5b9a0be67cee596d1b21c0c6c7aeb8811d2a51780268f0561ac1e7a48b835dae602060405163ffffffff42168152a2005b632de5c62160e11b5f5260045ffd5b34610289575f36600319011261028957610e7c6126e1565b5f80546001600160a01b0319811682556001600160a01b03167f8be0079c531659141344cd1fd0a4f28419497f9722a3daafe3b4186f6b6457e08280a3005b346102895760203660031901126102895760043560ff811680910361028957610ee261262c565b50805f52600460205260ff60405f205460101c1615610934575f526004602052610407610f1160405f20612656565b604051918291602083526020830190612249565b34610289575f36600319011261028957602060405160648152f35b34610289575f36600319011261028957602060405160c88152f35b346102895760203660031901126102895760043567ffffffffffffffff811161028957806004019060a0600319823603011261028957610f996126e1565b60ff610fa483612527565b16156116e55760ff610fb583612527565b165f52600460205260ff60405f205460101c166116d6576084810190610fdb8284612544565b90501561134b576024013590600b821015610289575f8261135a5760206110028386612544565b90500361134b5760206110158386612544565b90809291810103126102895761102d61ffff9161280f565b166064811415908161133f575b81611332575b50611323575b61104f84612527565b906102895761105e8285612544565b9160ff6040519161106e8361233b565b16815260208101926110808685612620565b61109b60408301936001855260608401925f84523691612577565b936080830194855260ff6110ae89612527565b165f52600460205260ff60405f2093511660ff1984541617835551600b81101561130f5760019361ff0062ff000085549251151560101b169260081b169062ffff0019161717825551151563ff00000082549160181b169063ff000000191617815501905180519067ffffffffffffffff821161123d57819061113184546123c1565b601f81116112bf575b50602090601f831160011461125c575f92611251575b50508160011b915f199060031b1c19161790555b61116d83612527565b91600654600160401b81101561123d5760018101806006558110156112295760ff9461120261121194611224937f4dff54720cc3b074a65e203e854d228c604d71d0a0920081d62ade221bce18b19760065f5260205f208260051c01918a8060f885549360031b169316831b921b1916179055600554886001818316011690891916176005556111fc83612527565b92612544565b9690916040519586809661223c565b6040602086015216956040840191612600565b0390a2005b634e487b7160e01b5f52603260045260245ffd5b634e487b7160e01b5f52604160045260245ffd5b015190508680611150565b5f8581528281209350601f198516905b8181106112a7575090846001959493921061128f575b505050811b019055611164565b01515f1960f88460031b161c19169055868080611282565b9293602060018192878601518155019501930161126c565b909150835f5260205f20601f840160051c81019160208510611305575b90601f859493920160051c01905b8181106112f7575061113a565b5f81558493506001016112ea565b90915081906112dc565b634e487b7160e01b5f52602160045260245ffd5b631bc4bcf760e21b5f5260045ffd5b61012c9150141585611040565b60c8811415915061103a565b636b0b088960e01b5f5260045ffd5b505f600183036113be5760206113708386612544565b90500361134b5760206113838386612544565b90809291810103126102895761139b61ffff9161280f565b16603281109081156113b2575b5061132357611046565b61012c915011856113a8565b505f600283036114565760406113d48386612544565b90500361134b5760406113e78386612544565b90809291810103126102895761ffff61140b60206114048461280f565b930161280f565b91166064811415908161144a575b8161143d575b506113235761ffff16603281109081156113b2575061132357611046565b61012c915014158661141f565b60c88114159150611419565b505f6005831480156116ca575b156114d85760206114748386612544565b90500361134b5760ff61149261148a8487612544565b810190612130565b16600f81141590816114cc575b816114c0575b816114b4575061132357611046565b603291501415856113a8565b602381141591506114a5565b6019811415915061149f565b610289575f6003830361154d5760206114f18386612544565b90500361134b5760ff61150761148a8487612544565b1660198114159081611541575b81611535575b81611529575061132357611046565b606491501415856113a8565b604b811415915061151a565b60328114159150611514565b505f6004830361159b5760206115638386612544565b90500361134b5760ff61157961148a8487612544565b16600181109081156115905750611323575b611046565b601e915011856113a8565b505f600783036115e85760206115b18386612544565b90500361134b5760ff6115c761148a8487612544565b16604681109081156115dd575061132357611046565b6064915011856113a8565b505f6008830361160a5760206115fe8386612544565b90500361134b57611046565b505f600983036116635760206116208386612544565b90500361134b5760ff61163661148a8487612544565b1660018110908115611658575b501561158b57631bc4bcf760e21b5f5260045ffd5b601e91501185611643565b505f600a83036116bb5760206116798386612544565b90500361134b5760ff61168f61148a8487612544565b16600181109081156116b057501561158b57631bc4bcf760e21b5f5260045ffd5b609691501185611643565b634c69907560e11b5f5260045ffd5b50505f60068314611463565b63645830ff60e11b5f5260045ffd5b63da2ac36760e01b5f5260045ffd5b346102895760203660031901126102895760043560ff81168091036102895761171b6126e1565b805f52600160205260ff60405f20541615610c8357805f52600160205260ff60405f205460081c1661179257805f52600160205260405f2061010061ff00198254161790557f2c7a4a4f26e495731c86873ad0509583a57a28901ff670dceb35bba862d457bb602060405163ffffffff42168152a2005b631fd7e9bd60e11b5f5260045ffd5b34610289575f36600319011261028957602060405160328152f35b34610289575f36600319011261028957602060405160238152f35b346102895760203660031901126102895760043560ff8116809103610289575f526001602052602060ff60405f205460081c166040519015158152f35b34610289575f36600319011261028957602060405160468152f35b346102895760203660031901126102895760043567ffffffffffffffff8111610289578060040161010060031983360301126102895761186d6126e1565b604482019160ff61187d84612527565b1615611ce45760ff61188e84612527565b165f52600160205260ff60405f205416611cd5576118ab82612707565b6118b483612527565b916064820135906003821015610289576084830135600481101594856102895760a4850135966004881015908161028957838660c48901948b60e46118f888612535565b9b019a6119058c8b612544565b95909361196e604051956119188761231e565b6001875260208701985f8a5260ff604089019416845261193c60608901998a6123b5565b6119496080890195612156565b8d855260a088019661195a81612156565b875261ffff60c08901961686523691612577565b9660e0860197885260ff6119818a612527565b165f52600160205260405f209551151560ff8019885416911617865551151561ff0086549160081b169061ff00191617855551928454955191600383101561130f5760019665ff00000000009363ff00000067ffff00000000000064ff000000009451956119ee87612156565b6119f787612156565b5197611a0289612156565b611a0b89612156565b5160301b169767ffff000000000000199362ff000088199260101b169064ffffff0000191617169160181b1617169160201b16179160281b161717815501905180519067ffffffffffffffff821161123d578190611a6984546123c1565b601f8111611c85575b50602090601f8311600114611c22575f92611c17575b50508160011b915f199060031b1c19161790555b611aa581612527565b60035490600160401b82101561123d5760018201806003558210156112295760035f5260205f208260051c019160ff8060f885549360031b169316831b921b191617905560025460ff600181831601169060ff191617600255855f526007602052611b1c60405f20611b1683612527565b906125bd565b60018614611bee575b60028614611bbf575b611b3790612527565b9661028957610289577f0a1b825aa9ffb7c577047782e58026b268ac3bf4c840b9b9a655c06a26f1e32d9561ffff61122494611b7b611b8a986111fc60ff96612535565b9a9095604051998a809a612149565b611b9381612156565b6020890152611ba181612156565b604088015216606086015260a06080860152169560a0840191612600565b9050611b375f91611bcf8a612156565b895f526009602052611be760405f20611b1683612527565b9050611b2e565b5f9750611bfa84612156565b835f526008602052611c1260405f20611b1683612527565b611b25565b015190508c80611a88565b5f8581528281209350601f198516905b818110611c6d5750908460019594939210611c55575b505050811b019055611a9c565b01515f1960f88460031b161c191690558c8080611c48565b92936020600181928786015181550195019301611c32565b909150835f5260205f20601f840160051c81019160208510611ccb575b90601f859493920160051c01905b818110611cbd5750611a72565b5f8155849350600101611cb0565b9091508190611ca2565b63fff5bf2160e01b5f5260045ffd5b631c20f75960e01b5f5260045ffd5b346102895760203660031901126102895760043560ff811680910361028957805f52600160205260ff60405f20541680611d34576020906040519015158152f35b505f526001602052602060ff60405f205460081c161561097b565b34610289575f36600319011261028957602060ff60025416604051908152f35b612206565b34610289575f36600319011261028957602060405160968152f35b346102895760203660031901126102895760043560ff811680910361028957611db6612379565b50805f52600160205260ff60405f20541615610c83575f526001602052610407611de260405f20612499565b604051918291602083526020830190612184565b34610289575f366003190112610289576020604051604b8152f35b34610289575f36600319011261028957600354908181526020810160035f527fc2575a0e9e593c00f959f8c92f12db2869c3395a3b0502d05e2516446f71f85b925f935b81601f860110611f5257916104079484926103fb9454918181106106ca578181106106b35781811061069c578181106106855781811061066f57818110610658578181106106415781811061062a57818110610613578181106105fc578181106105e5578181106105ce578181106105b7578181106105a057818110610589578181106105725781811061055b578181106105445781811061052d57818110610516578181106104ff578181106104e8578181106104d1578181106104ba578181106104a35781811061048c578181106104755781811061045e578181106104475781811061043057818110610419571061040b57500382612357565b916001610400602092855460ff8116825260ff8160081c168583015260ff8160101c16604083015260ff8160181c16606083015260ff81861c16608083015260ff8160281c1660a083015260ff8160301c1660c083015260ff8160381c1660e083015260ff8160401c1661010083015260ff8160481c1661012083015260ff8160501c1661014083015260ff8160581c1661016083015260ff8160601c1661018083015260ff8160681c166101a083015260ff8160701c166101c083015260ff8160781c166101e083015260ff8160801c1661020083015260ff8160881c1661022083015260ff8160901c1661024083015260ff8160981c1661026083015260ff8160a01c1661028083015260ff8160a81c166102a083015260ff8160b01c166102c083015260ff8160b81c166102e083015260ff8160c01c1661030083015260ff8160c81c1661032083015260ff8160d01c1661034083015260ff8160d81c1661036083015260ff8160e01c1661038083015260ff8160e81c166103a083015260ff8160f01c166103c083015260f81c6103e0820152019301940193611e55565b60206040818301928281528451809452019201905f5b8181106121175750505090565b825160ff1684526020938401939092019160010161210a565b90816020910312610289573560ff811681036102895790565b90600382101561130f5752565b6004111561130f57565b805180835260209291819084018484015e5f828201840152601f01601f1916010190565b9061010060e06122039380511515845260208101511515602085015260ff60408201511660408501526121bf60608201516060860190612149565b60808101516121cd81612156565b608085015260a08101516121e081612156565b60a085015261ffff60c08201511660c08501520151918160e08201520190612160565b90565b34610289575f366003190112610289576020604051601e8152f35b34610289575f36600319011261028957602060405160018152f35b90600b82101561130f5752565b9060a060806122039360ff815116845261226b6020820151602086019061223c565b6040810151151560408501526060810151151560608501520151918160808201520190612160565b34610289575f36600319011261028957602060405160198152f35b34610289575f36600319011261028957602060405161012c8152f35b9060206003198301126102895760043567ffffffffffffffff811161028957826023820112156102895780600401359267ffffffffffffffff84116102895760248460051b83010111610289576024019190565b610100810190811067ffffffffffffffff82111761123d57604052565b60a0810190811067ffffffffffffffff82111761123d57604052565b90601f8019910116810190811067ffffffffffffffff82111761123d57604052565b604051906123868261231e565b606060e0835f81525f60208201525f60408201525f838201525f60808201525f60a08201525f60c08201520152565b600382101561130f5752565b90600182811c921680156123ef575b60208310146123db57565b634e487b7160e01b5f52602260045260245ffd5b91607f16916123d0565b9060405191825f82549261240c846123c1565b80845293600181169081156124775750600114612433575b5061243192500383612357565b565b90505f9291925260205f20905f915b81831061245b575050906020612431928201015f612424565b6020919350806001915483858901015201910190918492612442565b90506020925061243194915060ff191682840152151560051b8201015f612424565b906040516124a68161231e565b60e06125226001839561ffff815460ff81161515875260ff8160081c161515602088015260ff8160101c1660408801526124e960ff8260181c16606089016123b5565b60ff8160201c166124f981612156565b608088015260ff8160281c1661250e81612156565b60a088015260301c1660c0860152016123f9565b910152565b3560ff811681036102895790565b3561ffff811681036102895790565b903590601e1981360301821215610289570180359067ffffffffffffffff82116102895760200191813603831361028957565b92919267ffffffffffffffff821161123d57604051916125a1601f8201601f191660200184612357565b829481845281830111610289578281602093845f960137010152565b90815491600160401b83101561123d5760018301808255831015611229575f5260205f208260051c019160ff8060f885549360031b169316831b921b1916179055565b908060209392818452848401375f828201840152601f01601f1916010190565b600b82101561130f5752565b604051906126398261233b565b60606080835f81525f60208201525f60408201525f838201520152565b906040516126638161233b565b60806125226001839560ff81548181168752612687828260081c1660208901612620565b818160101c161515604088015260181c1615156060860152016123f9565b67ffffffffffffffff811161123d5760051b60200190565b91908110156112295760051b0190565b80518210156112295760209160051b010190565b5f546001600160a01b031633036126f457565b63118cdaa760e01b5f523360045260245ffd5b61ffff61271660c08301612535565b16156128005761272960e0820182612544565b9050156127f15760608101359060038210156102895760808101359060048210156102895760a0013591600483101561028957600181146127d957600281146127ba5715612780576361380b4160e11b5f5260045ffd5b61278981612156565b6127ab5761279681612156565b61279c57565b6340b4793760e01b5f5260045ffd5b637eded57160e01b5f5260045ffd5b50906127c581612156565b1561279c576127d381612156565b6127ab57565b506127e381612156565b156127ab5761279681612156565b637b5c583d60e11b5f5260045ffd5b63ca4e3cd560e01b5f5260045ffd5b359061ffff821682036102895756fea2646970667358221220399e460a3baa424df140718d67a665e3106d3fc8bf5af3a57beca53b7c7d3c0664736f6c634300081c0033",
  "linkReferences": {},
  "deployedLinkReferences": {},
  "immutableReferences": {},
  "inputSourceName": "project/contracts/tournament/infrastructure/deck-catalog/TournamentDeckCatalog.sol",
  "buildInfoId": "solc-0_8_28-2da415b7a6f6e0c23b7b3b0fa278dedee35b512c"
}