{
  "_format": "hh3-artifact-1",
  "contractName": "TournamentRegistry",
  "sourceName": "contracts/tournament/infrastructure/registry/TournamentRegistry.sol",
  "abi": [
    {
      "inputs": [],
      "stateMutability": "nonpayable",
      "type": "constructor"
    },
    {
      "inputs": [],
      "name": "AlreadyRegistered",
      "type": "error"
    },
    {
      "inputs": [],
      "name": "InvalidAddress",
      "type": "error"
    },
    {
      "inputs": [],
      "name": "ModuleAlreadyUsed",
      "type": "error"
    },
    {
      "inputs": [],
      "name": "NotRegistered",
      "type": "error"
    },
    {
      "inputs": [],
      "name": "OnlyFactory",
      "type": "error"
    },
    {
      "inputs": [
        {
          "internalType": "address",
          "name": "owner",
          "type": "address"
        }
      ],
      "name": "OwnableInvalidOwner",
      "type": "error"
    },
    {
      "inputs": [
        {
          "internalType": "address",
          "name": "account",
          "type": "address"
        }
      ],
      "name": "OwnableUnauthorizedAccount",
      "type": "error"
    },
    {
      "anonymous": false,
      "inputs": [
        {
          "indexed": true,
          "internalType": "address",
          "name": "factory",
          "type": "address"
        }
      ],
      "name": "FactoryRoleGranted",
      "type": "event"
    },
    {
      "anonymous": false,
      "inputs": [
        {
          "indexed": true,
          "internalType": "address",
          "name": "factory",
          "type": "address"
        }
      ],
      "name": "FactoryRoleRevoked",
      "type": "event"
    },
    {
      "anonymous": false,
      "inputs": [
        {
          "indexed": true,
          "internalType": "address",
          "name": "previousOwner",
          "type": "address"
        },
        {
          "indexed": true,
          "internalType": "address",
          "name": "newOwner",
          "type": "address"
        }
      ],
      "name": "OwnershipTransferred",
      "type": "event"
    },
    {
      "anonymous": false,
      "inputs": [
        {
          "indexed": true,
          "internalType": "address",
          "name": "hub",
          "type": "address"
        },
        {
          "indexed": false,
          "internalType": "enum TournamentCore.Status",
          "name": "oldStatus",
          "type": "uint8"
        },
        {
          "indexed": false,
          "internalType": "enum TournamentCore.Status",
          "name": "newStatus",
          "type": "uint8"
        }
      ],
      "name": "TournamentStatusUpdated",
      "type": "event"
    },
    {
      "anonymous": false,
      "inputs": [
        {
          "indexed": true,
          "internalType": "address",
          "name": "hub",
          "type": "address"
        },
        {
          "indexed": true,
          "internalType": "address",
          "name": "combat",
          "type": "address"
        },
        {
          "indexed": false,
          "internalType": "address",
          "name": "mysteryDeck",
          "type": "address"
        },
        {
          "indexed": false,
          "internalType": "address",
          "name": "trading",
          "type": "address"
        },
        {
          "indexed": false,
          "internalType": "address",
          "name": "randomizer",
          "type": "address"
        },
        {
          "indexed": false,
          "internalType": "enum TournamentCore.Status",
          "name": "initialStatus",
          "type": "uint8"
        }
      ],
      "name": "TournamentSystemRegistered",
      "type": "event"
    },
    {
      "inputs": [],
      "name": "getAllTournaments",
      "outputs": [
        {
          "internalType": "address[]",
          "name": "",
          "type": "address[]"
        }
      ],
      "stateMutability": "view",
      "type": "function"
    },
    {
      "inputs": [
        {
          "internalType": "address",
          "name": "moduleAddress",
          "type": "address"
        }
      ],
      "name": "getHubAddress",
      "outputs": [
        {
          "internalType": "address",
          "name": "",
          "type": "address"
        }
      ],
      "stateMutability": "view",
      "type": "function"
    },
    {
      "inputs": [],
      "name": "getTournamentCount",
      "outputs": [
        {
          "internalType": "uint256",
          "name": "",
          "type": "uint256"
        }
      ],
      "stateMutability": "view",
      "type": "function"
    },
    {
      "inputs": [
        {
          "internalType": "address",
          "name": "hub",
          "type": "address"
        }
      ],
      "name": "getTournamentStatus",
      "outputs": [
        {
          "internalType": "uint8",
          "name": "",
          "type": "uint8"
        }
      ],
      "stateMutability": "view",
      "type": "function"
    },
    {
      "inputs": [
        {
          "internalType": "address",
          "name": "hub",
          "type": "address"
        }
      ],
      "name": "getTournamentSystem",
      "outputs": [
        {
          "components": [
            {
              "internalType": "address",
              "name": "hub",
              "type": "address"
            },
            {
              "internalType": "address",
              "name": "combat",
              "type": "address"
            },
            {
              "internalType": "address",
              "name": "mysteryDeck",
              "type": "address"
            },
            {
              "internalType": "address",
              "name": "trading",
              "type": "address"
            },
            {
              "internalType": "address",
              "name": "randomizer",
              "type": "address"
            },
            {
              "internalType": "bool",
              "name": "exists",
              "type": "bool"
            }
          ],
          "internalType": "struct TournamentRegistry.TournamentSystem",
          "name": "",
          "type": "tuple"
        }
      ],
      "stateMutability": "view",
      "type": "function"
    },
    {
      "inputs": [
        {
          "internalType": "address",
          "name": "moduleAddress",
          "type": "address"
        }
      ],
      "name": "getTournamentSystemByModule",
      "outputs": [
        {
          "components": [
            {
              "internalType": "address",
              "name": "hub",
              "type": "address"
            },
            {
              "internalType": "address",
              "name": "combat",
              "type": "address"
            },
            {
              "internalType": "address",
              "name": "mysteryDeck",
              "type": "address"
            },
            {
              "internalType": "address",
              "name": "trading",
              "type": "address"
            },
            {
              "internalType": "address",
              "name": "randomizer",
              "type": "address"
            },
            {
              "internalType": "bool",
              "name": "exists",
              "type": "bool"
            }
          ],
          "internalType": "struct TournamentRegistry.TournamentSystem",
          "name": "",
          "type": "tuple"
        }
      ],
      "stateMutability": "view",
      "type": "function"
    },
    {
      "inputs": [
        {
          "internalType": "enum TournamentCore.Status",
          "name": "status",
          "type": "uint8"
        }
      ],
      "name": "getTournamentsByStatus",
      "outputs": [
        {
          "internalType": "address[]",
          "name": "",
          "type": "address[]"
        }
      ],
      "stateMutability": "view",
      "type": "function"
    },
    {
      "inputs": [
        {
          "internalType": "address",
          "name": "factory",
          "type": "address"
        }
      ],
      "name": "grantFactoryRole",
      "outputs": [],
      "stateMutability": "nonpayable",
      "type": "function"
    },
    {
      "inputs": [
        {
          "internalType": "address",
          "name": "factory",
          "type": "address"
        }
      ],
      "name": "hasFactoryRole",
      "outputs": [
        {
          "internalType": "bool",
          "name": "",
          "type": "bool"
        }
      ],
      "stateMutability": "view",
      "type": "function"
    },
    {
      "inputs": [
        {
          "internalType": "address",
          "name": "moduleAddress",
          "type": "address"
        }
      ],
      "name": "isModuleRegistered",
      "outputs": [
        {
          "internalType": "bool",
          "name": "",
          "type": "bool"
        }
      ],
      "stateMutability": "view",
      "type": "function"
    },
    {
      "inputs": [
        {
          "internalType": "address",
          "name": "hub",
          "type": "address"
        }
      ],
      "name": "isTournamentRegistered",
      "outputs": [
        {
          "internalType": "bool",
          "name": "",
          "type": "bool"
        }
      ],
      "stateMutability": "view",
      "type": "function"
    },
    {
      "inputs": [],
      "name": "owner",
      "outputs": [
        {
          "internalType": "address",
          "name": "",
          "type": "address"
        }
      ],
      "stateMutability": "view",
      "type": "function"
    },
    {
      "inputs": [
        {
          "internalType": "address",
          "name": "hub",
          "type": "address"
        },
        {
          "internalType": "address",
          "name": "combat",
          "type": "address"
        },
        {
          "internalType": "address",
          "name": "mysteryDeck",
          "type": "address"
        },
        {
          "internalType": "address",
          "name": "trading",
          "type": "address"
        },
        {
          "internalType": "address",
          "name": "randomizer",
          "type": "address"
        }
      ],
      "name": "registerTournamentSystem",
      "outputs": [],
      "stateMutability": "nonpayable",
      "type": "function"
    },
    {
      "inputs": [],
      "name": "renounceOwnership",
      "outputs": [],
      "stateMutability": "nonpayable",
      "type": "function"
    },
    {
      "inputs": [
        {
          "internalType": "address",
          "name": "factory",
          "type": "address"
        }
      ],
      "name": "revokeFactoryRole",
      "outputs": [],
      "stateMutability": "nonpayable",
      "type": "function"
    },
    {
      "inputs": [
        {
          "internalType": "address",
          "name": "newOwner",
          "type": "address"
        }
      ],
      "name": "transferOwnership",
      "outputs": [],
      "stateMutability": "nonpayable",
      "type": "function"
    },
    {
      "inputs": [
        {
          "internalType": "enum TournamentCore.Status",
          "name": "newStatus",
          "type": "uint8"
        }
      ],
      "name": "updateTournamentStatus",
      "outputs": [],
      "stateMutability": "nonpayable",
      "type": "function"
    }
  ],
  "bytecode": "0x608080604052346071573315605e575f8054336001600160a01b0319821681178355916001600160a01b03909116907f8be0079c531659141344cd1fd0a4f28419497f9722a3daafe3b4186f6b6457e09080a3610dff90816100768239f35b631e4fbdf760e01b5f525f60045260245ffd5b5f80fdfe6080806040526004361015610012575f80fd5b5f3560e01c908163078c51f014610a8e5750806316240d9914610a1a5780631c5ebe2f146109d85780632c08c5a01461099b578063403205f3146105d6578063715018a61461057f5780637d775a23146105115780638da5cb5b146104ea578063a69aaaca146104a0578063b5fd7d4c14610424578063d94eb044146103bf578063dec49fcd1461035e578063e6fc815514610252578063ebf3a02e1461022a578063ec6a4d55146101ed578063ecccc6da146101605763f2fde38b146100d7575f80fd5b3461015c57602036600319011261015c576100f0610aea565b6100f8610da3565b6001600160a01b03168015610149575f80546001600160a01b03198116831782556001600160a01b0316907f8be0079c531659141344cd1fd0a4f28419497f9722a3daafe3b4186f6b6457e09080a3005b631e4fbdf760e01b5f525f60045260245ffd5b5f80fd5b3461015c575f36600319011261015c5760405180602060025491828152019060025f527f405787fa12a823e0f2b7631cc41b3ba8828b3321ca811111fa75cd3aa3bb5ace905f5b8181106101ce576101ca856101be81870382610b49565b60405191829182610aa8565b0390f35b82546001600160a01b03168452602090930192600192830192016101a7565b3461015c57602036600319011261015c576001600160a01b0361020e610aea565b165f526004602052602060ff60405f2054166040519015158152f35b3461015c57602036600319011261015c57600435600681101561015c5761025090610bf6565b005b3461015c57602036600319011261015c5761026b610aea565b610273610bc6565b506001600160a01b03165f8181526004602052604090205460ff161561034f575f5260036020526101ca60405f2060ff6004604051926102b284610b2d565b80546001600160a01b03908116808652600183015482166020808801918252600285015484166040808a01918252600387015486166060808c0191825298909701548087166080808d0191825260a092831c9b909b1615159b82019b8c52825196875294518716938601939093529051851690840152935183169482019490945292511692820192909252915115159082015290819060c0820190565b63aba4733960e01b5f5260045ffd5b3461015c57602036600319011261015c57610377610aea565b61037f610bc6565b506001600160a01b039081165f9081526008602052604090205416801561034f575f5260036020526101ca60405f2060ff6004604051926102b284610b2d565b3461015c57602036600319011261015c576103d8610aea565b6103e0610da3565b6001600160a01b03165f818152600160205260408120805460ff191690557f6c65eb03418af482228fc0055ca732f3540811f23668bba40954bd76eb798f369080a2005b3461015c57602036600319011261015c5761043d610aea565b610445610da3565b6001600160a01b0316801561049157805f52600160205260405f20600160ff198254161790557fccff8d601e698bcb67047a9820e3082cb9fbee7e5718d5248d132a720a5058325f80a2005b63e6c4247b60e01b5f5260045ffd5b3461015c57602036600319011261015c576001600160a01b036104c1610aea565b165f908152600860205260409020546001600160a01b0316801561034f57602090604051908152f35b3461015c575f36600319011261015c575f546040516001600160a01b039091168152602090f35b3461015c57602036600319011261015c576001600160a01b03610532610aea565b16805f52600460205260ff60405f2054161561034f575f52600560205260ff60405f205416600681101561056b57602090604051908152f35b634e487b7160e01b5f52602160045260245ffd5b3461015c575f36600319011261015c57610597610da3565b5f80546001600160a01b0319811682556001600160a01b03167f8be0079c531659141344cd1fd0a4f28419497f9722a3daafe3b4186f6b6457e08280a3005b3461015c5760a036600319011261015c576105ef610aea565b6024356001600160a01b038116919082900361015c576044356001600160a01b038116919082900361015c576064356001600160a01b038116919082900361015c576084356001600160a01b038116939084900361015c57335f52600160205260ff60405f2054161561098c576001600160a01b0382165f8181526004602052604090205490949060ff1661097d5784158015610975575b801561096d575b8015610965575b801561095d575b610491575f868152600860205260409020546001600160a01b03161580159061093e575b801561091f575b8015610900575b6108f1576040516106de81610b2d565b858152602080820188815260408084018681526060850189815260808601878152600160a08089018281525f8f81526003808b528882209b518c546001600160a01b03199081166001600160a01b03928316178e559a518d870180548d1691831691909117905597516002808e0180548d16928b16929092179091559651908c018054909a169088161790985592516004998a01805494516001600160a81b03199095169190961617921515901b60ff60a01b1691909117909255949093529020805460ff191690911790555493600160401b8510156108dd576108c4846108196080966107f58960017f2970c85ecd33e2332208a5e785e5e39c714ba45b62e5ca15dad0aac8f543386c9b016002556002610b6b565b81546001600160a01b0393841660039290921b91821b9390911b1916919091179055565b5f88815260086020908152604080832080546001600160a01b03199081168d179091558c8452818420805482168d179055888452818420805482168d179055868452818420805482168d17905587845281842080549091168c1790558a835260058252808320805460ff191690557f54cdd369e4e8a8515e52ca72ec816c2101831ad1f18bf44102ed171459c9b4f88054600784528285208580528452919093205560069052610b94565b604051928352602083015260408201525f6060820152a3005b634e487b7160e01b5f52604160045260245ffd5b631e71f93760e01b5f5260045ffd5b505f848152600860205260409020546001600160a01b031615156106ce565b505f828152600860205260409020546001600160a01b031615156106c7565b505f818152600860205260409020546001600160a01b031615156106c0565b50811561069c565b508315610695565b50801561068e565b508515610687565b630ea075bf60e21b5f5260045ffd5b630636a15760e11b5f5260045ffd5b3461015c57602036600319011261015c576001600160a01b036109bc610aea565b165f526001602052602060ff60405f2054166040519015158152f35b3461015c57602036600319011261015c576001600160a01b036109f9610aea565b165f526008602052602060018060a01b0360405f2054161515604051908152f35b3461015c57602036600319011261015c57600435600681101561015c57610a4090610b00565b6040519081602082549182815201915f5260205f20905f5b818110610a6f576101ca856101be81870382610b49565b82546001600160a01b0316845260209093019260019283019201610a58565b3461015c575f36600319011261015c576020906002548152f35b60206040818301928281528451809452019201905f5b818110610acb5750505090565b82516001600160a01b0316845260209384019390920191600101610abe565b600435906001600160a01b038216820361015c57565b600681101561056b575f52600660205260405f2090565b90600681101561056b575f5260205260405f2090565b60c0810190811067ffffffffffffffff8211176108dd57604052565b90601f8019910116810190811067ffffffffffffffff8211176108dd57604052565b8054821015610b80575f5260205f2001905f90565b634e487b7160e01b5f52603260045260245ffd5b90815491600160401b8310156108dd57826107f5916001610bb795018155610b6b565b565b90600682101561056b5752565b60405190610bd382610b2d565b5f60a0838281528260208201528260408201528260608201528260808201520152565b335f52600460205260ff60405f2054161561034f57335f52600560205260ff60405f20541690600681101561056b57600682101561056b57808214610d9f57335f52600460205260ff60405f2054161561034f57335f526007602052610c5f8260405f20610b17565b545f19610c6b84610b00565b5401808203610d4e575b5050610c8082610b00565b908154918215610d3a57610d12925f190190610c9c8282610b6b565b81549060018060a01b039060031b1b1916905555610cb981610b00565b54335f526007602052610ccf8260405f20610b17565b55610ce233610cdd83610b00565b610b94565b335f52600560205260405f2060ff1981541660ff8316179055610d086040518094610bb9565b6020830190610bb9565b7f747aa7bd34fc2eae288397348c3e8a072b557510d15cc5b91ab5bf4a5562dfde60403392a2565b634e487b7160e01b5f52603160045260245ffd5b610d6090610d5b85610b00565b610b6b565b905460039190911b1c6001600160a01b0316610d83816107f584610d5b88610b00565b5f526007602052610d978360405f20610b17565b555f80610c75565b5050565b5f546001600160a01b03163303610db657565b63118cdaa760e01b5f523360045260245ffdfea2646970667358221220b06a9a3b8d07950d03cf0fdbd6cbfcacdc63569092799ed8aa104b7b258bc5b364736f6c634300081c0033",
  "linkReferences": {},
  "deployedLinkReferences": {},
  "immutableReferences": {},
  "inputSourceName": "project/contracts/tournament/infrastructure/registry/TournamentRegistry.sol",
  "buildInfoId": "solc-0_8_28-d01d3320e083008cdcf599abca406a1a1bc56419"
}