{
  "_format": "hh3-artifact-1",
  "contractName": "TournamentTokenWhitelist",
  "sourceName": "contracts/tournament/infrastructure/token-whitelist/TournamentTokenWhitelist.sol",
  "abi": [
    {
      "inputs": [],
      "stateMutability": "nonpayable",
      "type": "constructor"
    },
    {
      "inputs": [],
      "name": "AlreadyExists",
      "type": "error"
    },
    {
      "inputs": [],
      "name": "InvalidTokenAddress",
      "type": "error"
    },
    {
      "inputs": [],
      "name": "MaxTokensReached",
      "type": "error"
    },
    {
      "inputs": [],
      "name": "NotFound",
      "type": "error"
    },
    {
      "inputs": [
        {
          "internalType": "address",
          "name": "owner",
          "type": "address"
        }
      ],
      "name": "OwnableInvalidOwner",
      "type": "error"
    },
    {
      "inputs": [
        {
          "internalType": "address",
          "name": "account",
          "type": "address"
        }
      ],
      "name": "OwnableUnauthorizedAccount",
      "type": "error"
    },
    {
      "anonymous": false,
      "inputs": [
        {
          "indexed": true,
          "internalType": "address",
          "name": "previousOwner",
          "type": "address"
        },
        {
          "indexed": true,
          "internalType": "address",
          "name": "newOwner",
          "type": "address"
        }
      ],
      "name": "OwnershipTransferred",
      "type": "event"
    },
    {
      "anonymous": false,
      "inputs": [
        {
          "indexed": true,
          "internalType": "address",
          "name": "token",
          "type": "address"
        },
        {
          "indexed": false,
          "internalType": "string",
          "name": "reason",
          "type": "string"
        }
      ],
      "name": "TokenPaused",
      "type": "event"
    },
    {
      "anonymous": false,
      "inputs": [
        {
          "indexed": true,
          "internalType": "address",
          "name": "token",
          "type": "address"
        }
      ],
      "name": "TokenUnpaused",
      "type": "event"
    },
    {
      "anonymous": false,
      "inputs": [
        {
          "indexed": true,
          "internalType": "address",
          "name": "token",
          "type": "address"
        }
      ],
      "name": "TokenWhitelisted",
      "type": "event"
    },
    {
      "inputs": [],
      "name": "MAX_TOKENS",
      "outputs": [
        {
          "internalType": "uint8",
          "name": "",
          "type": "uint8"
        }
      ],
      "stateMutability": "view",
      "type": "function"
    },
    {
      "inputs": [
        {
          "internalType": "address",
          "name": "token",
          "type": "address"
        }
      ],
      "name": "addToken",
      "outputs": [],
      "stateMutability": "nonpayable",
      "type": "function"
    },
    {
      "inputs": [],
      "name": "getRemainingCapacity",
      "outputs": [
        {
          "internalType": "uint256",
          "name": "",
          "type": "uint256"
        }
      ],
      "stateMutability": "view",
      "type": "function"
    },
    {
      "inputs": [
        {
          "internalType": "address",
          "name": "token",
          "type": "address"
        }
      ],
      "name": "getToken",
      "outputs": [
        {
          "internalType": "bool",
          "name": "whitelisted",
          "type": "bool"
        },
        {
          "internalType": "bool",
          "name": "paused",
          "type": "bool"
        },
        {
          "internalType": "uint8",
          "name": "index",
          "type": "uint8"
        }
      ],
      "stateMutability": "view",
      "type": "function"
    },
    {
      "inputs": [],
      "name": "getTokenCount",
      "outputs": [
        {
          "internalType": "uint256",
          "name": "",
          "type": "uint256"
        }
      ],
      "stateMutability": "view",
      "type": "function"
    },
    {
      "inputs": [],
      "name": "getTokens",
      "outputs": [
        {
          "internalType": "address[]",
          "name": "",
          "type": "address[]"
        }
      ],
      "stateMutability": "view",
      "type": "function"
    },
    {
      "inputs": [
        {
          "internalType": "address",
          "name": "token",
          "type": "address"
        }
      ],
      "name": "isPaused",
      "outputs": [
        {
          "internalType": "bool",
          "name": "",
          "type": "bool"
        }
      ],
      "stateMutability": "view",
      "type": "function"
    },
    {
      "inputs": [
        {
          "internalType": "address",
          "name": "token",
          "type": "address"
        }
      ],
      "name": "isTokenRegistered",
      "outputs": [
        {
          "internalType": "bool",
          "name": "",
          "type": "bool"
        }
      ],
      "stateMutability": "view",
      "type": "function"
    },
    {
      "inputs": [
        {
          "internalType": "address",
          "name": "token",
          "type": "address"
        }
      ],
      "name": "isWhitelisted",
      "outputs": [
        {
          "internalType": "bool",
          "name": "",
          "type": "bool"
        }
      ],
      "stateMutability": "view",
      "type": "function"
    },
    {
      "inputs": [],
      "name": "owner",
      "outputs": [
        {
          "internalType": "address",
          "name": "",
          "type": "address"
        }
      ],
      "stateMutability": "view",
      "type": "function"
    },
    {
      "inputs": [
        {
          "internalType": "address",
          "name": "token",
          "type": "address"
        },
        {
          "internalType": "string",
          "name": "reason",
          "type": "string"
        }
      ],
      "name": "pauseToken",
      "outputs": [],
      "stateMutability": "nonpayable",
      "type": "function"
    },
    {
      "inputs": [],
      "name": "renounceOwnership",
      "outputs": [],
      "stateMutability": "nonpayable",
      "type": "function"
    },
    {
      "inputs": [
        {
          "internalType": "address",
          "name": "newOwner",
          "type": "address"
        }
      ],
      "name": "transferOwnership",
      "outputs": [],
      "stateMutability": "nonpayable",
      "type": "function"
    },
    {
      "inputs": [
        {
          "internalType": "address",
          "name": "token",
          "type": "address"
        }
      ],
      "name": "unpauseToken",
      "outputs": [],
      "stateMutability": "nonpayable",
      "type": "function"
    }
  ],
  "bytecode": "0x608080604052346071573315605e575f8054336001600160a01b0319821681178355916001600160a01b03909116907f8be0079c531659141344cd1fd0a4f28419497f9722a3daafe3b4186f6b6457e09080a361072190816100768239f35b631e4fbdf760e01b5f525f60045260245ffd5b5f80fdfe6080806040526004361015610012575f80fd5b5f3560e01c90816326aa101f1461067657508063358705ff146105925780633af32abf1461053d5780633b3bff0f146104bf578063597704381461046a5780635b14f1831461042a578063715018a6146103d357806378a89567146103b657806387be0faf146103965780638da5cb5b1461036f578063aa6ca80814610292578063d48bfca71461015a578063f2fde38b146100d55763f47c84c5146100b6575f80fd5b346100d1575f3660031901126100d157602060405160ff8152f35b5f80fd5b346100d15760203660031901126100d1576100ee6106af565b6100f66106c5565b6001600160a01b03168015610147575f80546001600160a01b03198116831782556001600160a01b0316907f8be0079c531659141344cd1fd0a4f28419497f9722a3daafe3b4186f6b6457e09080a3005b631e4fbdf760e01b5f525f60045260245ffd5b346100d15760203660031901126100d1576101736106af565b61017b6106c5565b6001600160a01b0316801561028357805f52600260205260405f20805460ff81166102745760015460ff8110156102655762ff000060019160101b169162ffffff1916171790556001546801000000000000000081101561025157600181018060015581101561023d577fb10e2d527612073b26eecdfd717e6a320cf44b4afac2b0732d9fcbe2b7fa0cf60180546001600160a01b031916821790557f6a65f90b1a644d2faac467a21e07e50e3f8fa5846e26231d30ae79a417d3d2625f80a2005b634e487b7160e01b5f52603260045260245ffd5b634e487b7160e01b5f52604160045260245ffd5b6308451c3f60e01b5f5260045ffd5b63119b4fd360e11b5f5260045ffd5b630f58058360e11b5f5260045ffd5b346100d1575f3660031901126100d1576040518060206001549182815201809160015f527fb10e2d527612073b26eecdfd717e6a320cf44b4afac2b0732d9fcbe2b7fa0cf6905f5b81811061035057505050829003601f01601f191682019167ffffffffffffffff8311818410176102515790829182604052602083019060208452518091526040830191905f5b81811061032e575050500390f35b82516001600160a01b0316845285945060209384019390920191600101610320565b82546001600160a01b03168452602090930192600192830192016102da565b346100d1575f3660031901126100d1575f546040516001600160a01b039091168152602090f35b346100d1575f3660031901126100d157602060015460ff03604051908152f35b346100d1575f3660031901126100d1576020600154604051908152f35b346100d1575f3660031901126100d1576103eb6106c5565b5f80546001600160a01b0319811682556001600160a01b03167f8be0079c531659141344cd1fd0a4f28419497f9722a3daafe3b4186f6b6457e08280a3005b346100d15760203660031901126100d1576001600160a01b0361044b6106af565b165f526002602052602060ff60405f205460081c166040519015158152f35b346100d15760203660031901126100d1576001600160a01b0361048b6106af565b165f526002602052606060405f205460ff6040519181811615158352818160081c161515602084015260101c166040820152f35b346100d15760203660031901126100d1576104d86106af565b6104e06106c5565b6001600160a01b03165f818152600260205260409020805460ff81161561052e5761ff00191690557ff38578ed892ce2ce655ca8ae03c73464ad74915a1331a9b4085e637534daeedf5f80a2005b63c5723b5160e01b5f5260045ffd5b346100d15760203660031901126100d1576001600160a01b0361055e6106af565b165f526002602052602060405f205460ff81169081610583575b506040519015158152f35b60ff915060081c161582610578565b346100d15760403660031901126100d1576105ab6106af565b6024359067ffffffffffffffff82116100d157366023830112156100d15781600401359067ffffffffffffffff82116100d15736602483850101116100d1576105f26106c5565b6001600160a01b03165f8181526002602052604090208054919390919060ff82161561052e577f7f983b212469828ea2a3b1df00f9b7bed653d40c63379d65461a1dc1b72249769360249361010060409461ff0019161790558083519485936020855282602086015201848401375f828201840152601f01601f19168101030190a2005b346100d15760203660031901126100d1576020906001600160a01b0361069a6106af565b165f526002825260ff60405f20541615158152f35b600435906001600160a01b03821682036100d157565b5f546001600160a01b031633036106d857565b63118cdaa760e01b5f523360045260245ffdfea264697066735822122055f66f883a934dd56599216c581e1fcc68ab610fba14a49cb7aee3fc78c7be3164736f6c634300081c0033",
  "linkReferences": {},
  "deployedLinkReferences": {},
  "immutableReferences": {},
  "inputSourceName": "project/contracts/tournament/infrastructure/token-whitelist/TournamentTokenWhitelist.sol",
  "buildInfoId": "solc-0_8_28-9cf9fb4c7e723bdb0a89103dcf1a914eb3785587"
}