{
  "_format": "hh3-artifact-1",
  "contractName": "TournamentCombat",
  "sourceName": "contracts/tournament/modules/combat/TournamentCombat.sol",
  "abi": [
    {
      "inputs": [],
      "name": "CombatNotActive",
      "type": "error"
    },
    {
      "inputs": [],
      "name": "CombatNotFound",
      "type": "error"
    },
    {
      "inputs": [],
      "name": "CombatNotTimedOut",
      "type": "error"
    },
    {
      "inputs": [],
      "name": "InsufficientCards",
      "type": "error"
    },
    {
      "inputs": [],
      "name": "InvalidAddress",
      "type": "error"
    },
    {
      "inputs": [],
      "name": "InvalidInitialization",
      "type": "error"
    },
    {
      "inputs": [],
      "name": "InvalidOutcome",
      "type": "error"
    },
    {
      "inputs": [],
      "name": "NotInitializing",
      "type": "error"
    },
    {
      "inputs": [],
      "name": "OnlyGameOracle",
      "type": "error"
    },
    {
      "inputs": [],
      "name": "PlayerAlreadyInCombat",
      "type": "error"
    },
    {
      "inputs": [],
      "name": "PlayerMismatch",
      "type": "error"
    },
    {
      "inputs": [],
      "name": "PlayerNotActive",
      "type": "error"
    },
    {
      "inputs": [],
      "name": "PlayerNotFound",
      "type": "error"
    },
    {
      "inputs": [],
      "name": "PlayerNotInCombat",
      "type": "error"
    },
    {
      "inputs": [],
      "name": "ResourceOverflow",
      "type": "error"
    },
    {
      "inputs": [],
      "name": "SamePlayer",
      "type": "error"
    },
    {
      "inputs": [],
      "name": "TournamentNotActive",
      "type": "error"
    },
    {
      "anonymous": false,
      "inputs": [
        {
          "components": [
            {
              "internalType": "uint256",
              "name": "combatId",
              "type": "uint256"
            },
            {
              "internalType": "address",
              "name": "player1",
              "type": "address"
            },
            {
              "internalType": "address",
              "name": "player2",
              "type": "address"
            },
            {
              "internalType": "uint8",
              "name": "p1CardsBurned",
              "type": "uint8"
            },
            {
              "internalType": "uint8",
              "name": "p2CardsBurned",
              "type": "uint8"
            },
            {
              "internalType": "enum TournamentCombat.Outcome",
              "name": "rpsOutcome",
              "type": "uint8"
            },
            {
              "internalType": "enum TournamentCombat.Outcome",
              "name": "decision",
              "type": "uint8"
            },
            {
              "internalType": "bool",
              "name": "modifierApplied",
              "type": "bool"
            },
            {
              "internalType": "int16",
              "name": "p1LifeDelta",
              "type": "int16"
            },
            {
              "internalType": "int16",
              "name": "p2LifeDelta",
              "type": "int16"
            },
            {
              "internalType": "int256",
              "name": "p1CoinDelta",
              "type": "int256"
            },
            {
              "internalType": "int256",
              "name": "p2CoinDelta",
              "type": "int256"
            },
            {
              "internalType": "bytes32",
              "name": "proofHash",
              "type": "bytes32"
            }
          ],
          "indexed": false,
          "internalType": "struct TournamentCombat.Resolution",
          "name": "resolution",
          "type": "tuple"
        },
        {
          "indexed": false,
          "internalType": "uint256",
          "name": "combatId",
          "type": "uint256"
        },
        {
          "indexed": false,
          "internalType": "uint32",
          "name": "timestamp",
          "type": "uint32"
        }
      ],
      "name": "CombatResolved",
      "type": "event"
    },
    {
      "anonymous": false,
      "inputs": [
        {
          "indexed": true,
          "internalType": "uint256",
          "name": "combatId",
          "type": "uint256"
        },
        {
          "indexed": true,
          "internalType": "address",
          "name": "p1",
          "type": "address"
        },
        {
          "indexed": true,
          "internalType": "address",
          "name": "p2",
          "type": "address"
        },
        {
          "indexed": false,
          "internalType": "uint32",
          "name": "timestamp",
          "type": "uint32"
        }
      ],
      "name": "CombatStarted",
      "type": "event"
    },
    {
      "anonymous": false,
      "inputs": [
        {
          "indexed": true,
          "internalType": "uint256",
          "name": "combatId",
          "type": "uint256"
        },
        {
          "indexed": true,
          "internalType": "address",
          "name": "p1",
          "type": "address"
        },
        {
          "indexed": true,
          "internalType": "address",
          "name": "p2",
          "type": "address"
        },
        {
          "indexed": false,
          "internalType": "uint32",
          "name": "timestamp",
          "type": "uint32"
        }
      ],
      "name": "CombatTimedOut",
      "type": "event"
    },
    {
      "anonymous": false,
      "inputs": [
        {
          "indexed": false,
          "internalType": "uint64",
          "name": "version",
          "type": "uint64"
        }
      ],
      "name": "Initialized",
      "type": "event"
    },
    {
      "inputs": [],
      "name": "COMBAT_TIMEOUT",
      "outputs": [
        {
          "internalType": "uint32",
          "name": "",
          "type": "uint32"
        }
      ],
      "stateMutability": "view",
      "type": "function"
    },
    {
      "inputs": [
        {
          "internalType": "uint256",
          "name": "",
          "type": "uint256"
        }
      ],
      "name": "combats",
      "outputs": [
        {
          "internalType": "address",
          "name": "player1",
          "type": "address"
        },
        {
          "internalType": "address",
          "name": "player2",
          "type": "address"
        },
        {
          "internalType": "uint32",
          "name": "startedAt",
          "type": "uint32"
        },
        {
          "internalType": "bool",
          "name": "active",
          "type": "bool"
        }
      ],
      "stateMutability": "view",
      "type": "function"
    },
    {
      "inputs": [],
      "name": "gameOracle",
      "outputs": [
        {
          "internalType": "address",
          "name": "",
          "type": "address"
        }
      ],
      "stateMutability": "view",
      "type": "function"
    },
    {
      "inputs": [
        {
          "internalType": "uint256",
          "name": "combatId",
          "type": "uint256"
        }
      ],
      "name": "getCombat",
      "outputs": [
        {
          "components": [
            {
              "internalType": "address",
              "name": "player1",
              "type": "address"
            },
            {
              "internalType": "address",
              "name": "player2",
              "type": "address"
            },
            {
              "internalType": "uint32",
              "name": "startedAt",
              "type": "uint32"
            },
            {
              "internalType": "bool",
              "name": "active",
              "type": "bool"
            }
          ],
          "internalType": "struct TournamentCombat.CombatSession",
          "name": "",
          "type": "tuple"
        }
      ],
      "stateMutability": "view",
      "type": "function"
    },
    {
      "inputs": [],
      "name": "hub",
      "outputs": [
        {
          "internalType": "address",
          "name": "",
          "type": "address"
        }
      ],
      "stateMutability": "view",
      "type": "function"
    },
    {
      "inputs": [
        {
          "internalType": "address",
          "name": "_hub",
          "type": "address"
        },
        {
          "internalType": "address",
          "name": "_gameOracle",
          "type": "address"
        }
      ],
      "name": "initialize",
      "outputs": [],
      "stateMutability": "nonpayable",
      "type": "function"
    },
    {
      "inputs": [
        {
          "internalType": "uint256",
          "name": "combatId",
          "type": "uint256"
        }
      ],
      "name": "isCombatActive",
      "outputs": [
        {
          "internalType": "bool",
          "name": "",
          "type": "bool"
        }
      ],
      "stateMutability": "view",
      "type": "function"
    },
    {
      "inputs": [],
      "name": "nextCombatId",
      "outputs": [
        {
          "internalType": "uint256",
          "name": "",
          "type": "uint256"
        }
      ],
      "stateMutability": "view",
      "type": "function"
    },
    {
      "inputs": [
        {
          "components": [
            {
              "internalType": "uint256",
              "name": "combatId",
              "type": "uint256"
            },
            {
              "internalType": "address",
              "name": "player1",
              "type": "address"
            },
            {
              "internalType": "address",
              "name": "player2",
              "type": "address"
            },
            {
              "internalType": "uint8",
              "name": "p1CardsBurned",
              "type": "uint8"
            },
            {
              "internalType": "uint8",
              "name": "p2CardsBurned",
              "type": "uint8"
            },
            {
              "internalType": "enum TournamentCombat.Outcome",
              "name": "rpsOutcome",
              "type": "uint8"
            },
            {
              "internalType": "enum TournamentCombat.Outcome",
              "name": "decision",
              "type": "uint8"
            },
            {
              "internalType": "bool",
              "name": "modifierApplied",
              "type": "bool"
            },
            {
              "internalType": "int16",
              "name": "p1LifeDelta",
              "type": "int16"
            },
            {
              "internalType": "int16",
              "name": "p2LifeDelta",
              "type": "int16"
            },
            {
              "internalType": "int256",
              "name": "p1CoinDelta",
              "type": "int256"
            },
            {
              "internalType": "int256",
              "name": "p2CoinDelta",
              "type": "int256"
            },
            {
              "internalType": "bytes32",
              "name": "proofHash",
              "type": "bytes32"
            }
          ],
          "internalType": "struct TournamentCombat.Resolution",
          "name": "r",
          "type": "tuple"
        }
      ],
      "name": "resolveCombat",
      "outputs": [],
      "stateMutability": "nonpayable",
      "type": "function"
    },
    {
      "inputs": [
        {
          "internalType": "address",
          "name": "p1",
          "type": "address"
        },
        {
          "internalType": "address",
          "name": "p2",
          "type": "address"
        }
      ],
      "name": "startCombat",
      "outputs": [
        {
          "internalType": "uint256",
          "name": "combatId",
          "type": "uint256"
        }
      ],
      "stateMutability": "nonpayable",
      "type": "function"
    },
    {
      "inputs": [
        {
          "internalType": "uint256",
          "name": "combatId",
          "type": "uint256"
        }
      ],
      "name": "timeoutCombat",
      "outputs": [],
      "stateMutability": "nonpayable",
      "type": "function"
    },
    {
      "inputs": [],
      "name": "totalCombats",
      "outputs": [
        {
          "internalType": "uint96",
          "name": "",
          "type": "uint96"
        }
      ],
      "stateMutability": "view",
      "type": "function"
    }
  ],
  "bytecode": "0x60808060405234601557611493908161001a8239f35b5f80fdfe6080806040526004361015610012575f80fd5b5f905f3560e01c90816234c8e3146110d9575080632b4cbcc3146110255780632e7c9c0a14610a2c578063365a86fc14610a05578063485cc9551461085e5780636dc08323146107fc578063746a13a1146103e0578063768030dd146103c25780639031bb4314610115578063afc9310f146100e0578063c71b413e146100c35763d6e3e1e2146100a1575f80fd5b346100c057806003193601126100c0576020905460a01c604051908152f35b80fd5b50346100c057806003193601126100c057602060405161012c8152f35b50346100c05760203660031901126100c05760ff6001604060209360043581526003855220015460c01c166040519015158152f35b50346100c05760203660031901126100c0576004358082526003602052604082206001810190815460ff8160c01c16156103b35761012c63ffffffff8260a01c160163ffffffff811161039f5763ffffffff1642106103905784548254604051635c12cd4b60e01b81526001600160a01b039182166004820181905288949193909216919061014084602481865afa92831561036257602494869461036d575b50604051635c12cd4b60e01b81526001600160a01b0383166004820152946101409186919082905afa938415610362578594610331575b50610120838101869052840185905260ff60c01b1916865583546001600160a01b031691823b1561032d5761023a9285928360405180968195829463153e962760e21b8452600484016112c7565b03925af1908115610322578391610309575b5050815484546001600160a01b0391821692911690823b156102fa5761028b9284928360405180968195829463153e962760e21b8452600484016112c7565b03925af180156102fe576102e5575b505054905460405163ffffffff421681526001600160a01b039182169391909216917ffa5fa491dcc6c5e8c554d4fe489d785cbc83ed17d4ac2b2d5db3141ce365a58190602090a480f35b816102ef91611158565b6102fa57835f61029a565b8380fd5b6040513d84823e3d90fd5b8161031391611158565b61031e57815f61024c565b5080fd5b6040513d85823e3d90fd5b8480fd5b6103549194506101403d811161035b575b61034c8183611158565b8101906111d9565b925f6101ec565b503d610342565b6040513d87823e3d90fd5b61014091945061038990823d811161035b5761034c8183611158565b93906101b5565b6331d4789760e21b8552600485fd5b634e487b7160e01b86526011600452602486fd5b636d0309fd60e11b8552600485fd5b50346100c057806003193601126100c0576020600254604051908152f35b50346100c05760403660031901126100c0576103fa611112565b6104026110fc565b6001549092906001600160a01b031633036107ed578054604051631006976960e11b81526001600160a01b039091169390602081600481885afa9081156103225783916107be575b5060068110156107aa5760030361079b576001600160a01b03818116929084169182841461078c57604051635c12cd4b60e01b8152600481018490529561014087602481845afa968715610322578397610764575b509061014060249260405193848092635c12cd4b60e01b82528960048301525afa918215610322578392610743575b50610100870151158015610736575b6107275760e0870151600581101561071357158015906106fd575b6106ee576101208701968751158015906106e0575b6106d1576002549660018801600255600163ffffffff42169960405161053281611128565b88815260208082018b815260408084018f8152606085018781528f8d526003909452908b20935184546001600160a01b03191660a088811b899003928316919091178655925194870180549251945164ffffffffff60a01b1996909216959095166001600160c81b0319909216919091179290911b63ffffffff60a01b169190911790151560c01b60ff60c01b1617905552600161012085015284546001600160a01b031690813b156106cd57918591610603938360405180968195829463153e962760e21b8452600484016112c7565b03925af180156106c2579084916106a9575b505082546001600160a01b031690813b156102fa5791839161064e938360405180968195829463153e962760e21b8452600484016112c7565b03925af180156102fe57610694575b5050827f2c6e84bd281bd06b64061c0d4349eff9de8240732dc852214a7ed34c04e4cfe960208096604051908152a4604051908152f35b61069f828092611158565b6100c0578061065d565b816106b391611158565b6106be57825f610615565b8280fd5b6040513d86823e3d90fd5b8580fd5b633b5ed12b60e01b8452600484fd5b50610120830151151561050d565b6396ba997560e01b8352600483fd5b5060e082015160058110156107135715156104f8565b634e487b7160e01b84526021600452602484fd5b632a645edb60e01b8352600483fd5b50610100820151156104dd565b61075d9192506101403d811161035b5761034c8183611158565b905f6104ce565b60249291975061078361014091823d811161035b5761034c8183611158565b9791925061049f565b631062841d60e31b8252600482fd5b631d042a8d60e11b8252600482fd5b634e487b7160e01b83526021600452602483fd5b6107e0915060203d6020116107e6575b6107d88183611158565b81019061117a565b5f61044a565b503d6107ce565b632147550760e01b8152600490fd5b50346100c05760203660031901126100c0576040608091600435815260036020522060ff6001808060a01b0383541692015460405192835260018060a01b038116602084015263ffffffff8160a01c16604084015260c01c1615156060820152f35b50346100c05760403660031901126100c057610878611112565b6108806110fc565b5f51602061143e5f395f51905f52549160ff8360401c16159267ffffffffffffffff8116801590816109fd575b60011490816109f3575b1590816109ea575b506109db5767ffffffffffffffff1981166001175f51602061143e5f395f51905f5255836109af575b506001600160a01b03168015801561099e575b61098f576001600160601b0360a01b84541617835560018060a01b03166001600160601b0360a01b600154161760015560016002556109375780f35b68ff0000000000000000195f51602061143e5f395f51905f5254165f51602061143e5f395f51905f52557fc7f505b2f371ae2175ee4913f4499e1f2633a7b5936321eed1cdaeb6115181d2602060405160018152a180f35b63e6c4247b60e01b8452600484fd5b506001600160a01b038216156108fb565b68ffffffffffffffffff191668010000000000000001175f51602061143e5f395f51905f52555f6108e8565b63f92ee8a960e01b8552600485fd5b9050155f6108bf565b303b1591506108b7565b8591506108ad565b50346100c057806003193601126100c057546040516001600160a01b039091168152602090f35b5034610e9f576101a0366003190112610e9f576001546001600160a01b03163303611016575f54604051631006976960e11b81526001600160a01b0382169190602081600481865afa908115610e94575f91610ff7575b506006811015610f3157600303610fe857600435805f52600360205260405f2090600182019182549060ff8260c01c1615610fd957546001600160a01b0390811690610acd611192565b161490811591610fb2575b50610fa357610ae5611192565b604051635c12cd4b60e01b81526001600160a01b0390911660048201529261014084602481885afa938415610e94575f94610f82575b50610b246111a8565b604051635c12cd4b60e01b81526001600160a01b0390911660048201529461014086602481845afa958615610e94575f96610f61575b50610100850151158015610f54575b610f455760e08501516005811015610f315715801590610f1b575b610f0c576101208501918251158015610eff575b610ef05760a435946003861015610e9f57600286118015610edb575b610ecc5760c087019260ff84511660ff610bcc6112a7565b16118015610eb2575b610ea35760a088019860ff8a511698610104359a8b60010b9a8b8d03610e9f57610c018d60ff9261138c565b16905260a082019360ff8551169561012435958660010b97888803610e9f57610c2c8860ff9261138c565b1690526020830197885198610c4561014435809b611400565b90525f602086019a8b519b610c5e61016435809e611400565b9052525f61012086015260ff610c726112a7565b8183511603169052610c826112b7565b60ff60c086019181835116031690526080830161ffff600181835116011690526080840161ffff6001818351160116905260016001600160601b0360a01b9160a01c0160a01b1684175f5560ff60c01b198154169055610ce0611192565b833b15610e9f5760405163153e962760e21b8152915f9183918291610d099190600484016112c7565b038183875af18015610e9457610e7d575b50908a91610d266111a8565b90823b156102fa57610d519284928360405180968195829463153e962760e21b8452600484016112c7565b03925af180156102fe57610e64575b5050604051858152956001600160a01b03610d796110fc565b1660208801526044356001600160a01b03811690819003610e6057604088015260643560ff8116809103610e605760608801526084359060ff8216809203610e6057610dce91608089015260a088019061135e565b60c4356003811015610e5c57610de89060c088019061135e565b60e43596871515809803610e5c577fce0e3968edb0164e27b897656fe78fd12c502aba5264e7a5193896d1e94cc910986101e09860e08901525061010087015250610120850152610140840152610160830152610184356101808301526101a082015263ffffffff42166101c0820152a180f35b8980fd5b8a80fd5b81610e6e91611158565b610e7957885f610d60565b8880fd5b610e8b91929b505f90611158565b5f99905f610d1a565b6040513d5f823e3d90fd5b5f80fd5b63483e9b8d60e11b5f5260045ffd5b5060ff60c08a01511660ff610ec56112b7565b1611610bd5565b63c74a206d60e01b5f5260045ffd5b5060c4356003811015610e9f57600210610bb4565b63aa6c3cf160e01b5f5260045ffd5b5061012087015115610b98565b6396ba997560e01b5f5260045ffd5b5060e08601516005811015610f31571515610b84565b634e487b7160e01b5f52602160045260245ffd5b632a645edb60e01b5f5260045ffd5b5061010086015115610b69565b610f7b9196506101403d811161035b5761034c8183611158565b945f610b5a565b610f9c9194506101403d811161035b5761034c8183611158565b925f610b1b565b6302b01f5f60e51b5f5260045ffd5b90506001600160a01b03610fc46111a8565b6001600160a01b03909216911614155f610ad8565b636d0309fd60e11b5f5260045ffd5b631d042a8d60e11b5f5260045ffd5b611010915060203d6020116107e6576107d88183611158565b5f610a83565b632147550760e01b5f5260045ffd5b34610e9f576020366003190112610e9f575f606060405161104581611128565b82815282602082015282604082015201526004355f526003602052608060405f2060405161107281611128565b63ffffffff6001808060a01b03845416938484520154916020810160018060a01b038416815260ff60606040840193858760a01c168552019460c01c161515845260405194855260018060a01b039051166020850152511660408301525115156060820152f35b34610e9f575f366003190112610e9f576001546001600160a01b03168152602090f35b602435906001600160a01b0382168203610e9f57565b600435906001600160a01b0382168203610e9f57565b6080810190811067ffffffffffffffff82111761114457604052565b634e487b7160e01b5f52604160045260245ffd5b90601f8019910116810190811067ffffffffffffffff82111761114457604052565b90816020910312610e9f57516006811015610e9f5790565b6024356001600160a01b0381168103610e9f5790565b6044356001600160a01b0381168103610e9f5790565b519060ff82168203610e9f57565b51908115158203610e9f57565b9081610140910312610e9f5760405190610140820182811067ffffffffffffffff82111761114457604052805182526020810151602083015260408101516040830152606081015163ffffffff81168103610e9f576060830152608081015161ffff81168103610e9f57608083015261125460a082016111be565b60a083015261126560c082016111be565b60c083015260e08101516005811015610e9f5761129e916101209160e085015261129261010082016111cc565b610100850152016111cc565b61012082015290565b60643560ff81168103610e9f5790565b60843560ff81168103610e9f5790565b90929161016082019360018060a01b0316825280516020830152602081015160408301526040810151606083015263ffffffff606082015116608083015261ffff60808201511660a083015260ff60a08201511660c083015260ff60c08201511660e083015260e08101516005811015610f3157610140916101209161010085015261010081015115158285015201511515910152565b906003821015610f315752565b9190820180921161137857565b634e487b7160e01b5f52601160045260245ffd5b908060010b905f8212156113d05750617fff1981146113785760ff905f0391169061ffff811682105f146113c05750505f90565b60ff16900360ff81116113785790565b6113e492915061ffff60ff9116911661136b565b60ff81116113f25760ff1690565b62fc139f60e81b5f5260045ffd5b905f81121561143157600160ff1b811461137857805f0382105f146114255750505f90565b81019081116113785790565b61143a9161136b565b9056fef0c57e16840df040f15088dc2f81fe391c3923bec73e23a9662efc9c229c6a00a26469706673582212207d4e33eefe000a660a1cdf1a453c24ee035f6681dac4c1abd8e0ccd81452976864736f6c634300081c0033",
  "linkReferences": {},
  "deployedLinkReferences": {},
  "immutableReferences": {},
  "inputSourceName": "project/contracts/tournament/modules/combat/TournamentCombat.sol",
  "buildInfoId": "solc-0_8_28-cc2dca73ef89bb86522bb2f5b3bb236644908084"
}