{
  "_format": "hh3-artifact-1",
  "contractName": "TournamentTrading",
  "sourceName": "contracts/tournament/modules/trading/TournamentTrading.sol",
  "abi": [
    {
      "inputs": [],
      "name": "InsufficientResources",
      "type": "error"
    },
    {
      "inputs": [],
      "name": "InvalidAddress",
      "type": "error"
    },
    {
      "inputs": [],
      "name": "InvalidCardDeltas",
      "type": "error"
    },
    {
      "inputs": [],
      "name": "InvalidInitialization",
      "type": "error"
    },
    {
      "inputs": [],
      "name": "NotInitializing",
      "type": "error"
    },
    {
      "inputs": [],
      "name": "NotOfferCreator",
      "type": "error"
    },
    {
      "inputs": [],
      "name": "OfferExpired",
      "type": "error"
    },
    {
      "inputs": [],
      "name": "OfferNotActive",
      "type": "error"
    },
    {
      "inputs": [],
      "name": "OfferNotFound",
      "type": "error"
    },
    {
      "inputs": [],
      "name": "OnlyGameOracle",
      "type": "error"
    },
    {
      "inputs": [],
      "name": "PlayerInCombat",
      "type": "error"
    },
    {
      "inputs": [],
      "name": "PlayerNotActive",
      "type": "error"
    },
    {
      "inputs": [],
      "name": "PlayerNotFound",
      "type": "error"
    },
    {
      "inputs": [],
      "name": "ResourceOverflow",
      "type": "error"
    },
    {
      "inputs": [],
      "name": "TournamentNotActive",
      "type": "error"
    },
    {
      "anonymous": false,
      "inputs": [
        {
          "indexed": false,
          "internalType": "uint64",
          "name": "version",
          "type": "uint64"
        }
      ],
      "name": "Initialized",
      "type": "event"
    },
    {
      "anonymous": false,
      "inputs": [
        {
          "indexed": true,
          "internalType": "uint256",
          "name": "offerId",
          "type": "uint256"
        },
        {
          "indexed": true,
          "internalType": "address",
          "name": "creator",
          "type": "address"
        },
        {
          "indexed": false,
          "internalType": "uint32",
          "name": "timestamp",
          "type": "uint32"
        }
      ],
      "name": "OfferCancelled",
      "type": "event"
    },
    {
      "anonymous": false,
      "inputs": [
        {
          "indexed": true,
          "internalType": "uint256",
          "name": "offerId",
          "type": "uint256"
        },
        {
          "indexed": true,
          "internalType": "address",
          "name": "creator",
          "type": "address"
        },
        {
          "components": [
            {
              "internalType": "uint8",
              "name": "lives",
              "type": "uint8"
            },
            {
              "internalType": "uint256",
              "name": "coins",
              "type": "uint256"
            },
            {
              "internalType": "uint8",
              "name": "rockCards",
              "type": "uint8"
            },
            {
              "internalType": "uint8",
              "name": "paperCards",
              "type": "uint8"
            },
            {
              "internalType": "uint8",
              "name": "scissorsCards",
              "type": "uint8"
            }
          ],
          "indexed": false,
          "internalType": "struct TournamentTrading.ResourceBundle",
          "name": "offered",
          "type": "tuple"
        },
        {
          "components": [
            {
              "internalType": "uint8",
              "name": "lives",
              "type": "uint8"
            },
            {
              "internalType": "uint256",
              "name": "coins",
              "type": "uint256"
            },
            {
              "internalType": "uint8",
              "name": "rockCards",
              "type": "uint8"
            },
            {
              "internalType": "uint8",
              "name": "paperCards",
              "type": "uint8"
            },
            {
              "internalType": "uint8",
              "name": "scissorsCards",
              "type": "uint8"
            }
          ],
          "indexed": false,
          "internalType": "struct TournamentTrading.ResourceBundle",
          "name": "requested",
          "type": "tuple"
        },
        {
          "indexed": false,
          "internalType": "uint32",
          "name": "expiresAt",
          "type": "uint32"
        },
        {
          "indexed": false,
          "internalType": "uint32",
          "name": "createdAt",
          "type": "uint32"
        }
      ],
      "name": "OfferCreated",
      "type": "event"
    },
    {
      "anonymous": false,
      "inputs": [
        {
          "indexed": true,
          "internalType": "uint256",
          "name": "offerId",
          "type": "uint256"
        },
        {
          "indexed": true,
          "internalType": "address",
          "name": "creator",
          "type": "address"
        },
        {
          "indexed": true,
          "internalType": "address",
          "name": "acceptor",
          "type": "address"
        },
        {
          "indexed": false,
          "internalType": "uint8",
          "name": "creatorTotalCardsDelta",
          "type": "uint8"
        },
        {
          "indexed": false,
          "internalType": "uint8",
          "name": "acceptorTotalCardsDelta",
          "type": "uint8"
        },
        {
          "indexed": false,
          "internalType": "uint32",
          "name": "timestamp",
          "type": "uint32"
        }
      ],
      "name": "TradeExecuted",
      "type": "event"
    },
    {
      "inputs": [
        {
          "internalType": "uint256",
          "name": "offerId",
          "type": "uint256"
        }
      ],
      "name": "cancelOffer",
      "outputs": [],
      "stateMutability": "nonpayable",
      "type": "function"
    },
    {
      "inputs": [
        {
          "components": [
            {
              "internalType": "uint8",
              "name": "lives",
              "type": "uint8"
            },
            {
              "internalType": "uint256",
              "name": "coins",
              "type": "uint256"
            },
            {
              "internalType": "uint8",
              "name": "rockCards",
              "type": "uint8"
            },
            {
              "internalType": "uint8",
              "name": "paperCards",
              "type": "uint8"
            },
            {
              "internalType": "uint8",
              "name": "scissorsCards",
              "type": "uint8"
            }
          ],
          "internalType": "struct TournamentTrading.ResourceBundle",
          "name": "offered",
          "type": "tuple"
        },
        {
          "components": [
            {
              "internalType": "uint8",
              "name": "lives",
              "type": "uint8"
            },
            {
              "internalType": "uint256",
              "name": "coins",
              "type": "uint256"
            },
            {
              "internalType": "uint8",
              "name": "rockCards",
              "type": "uint8"
            },
            {
              "internalType": "uint8",
              "name": "paperCards",
              "type": "uint8"
            },
            {
              "internalType": "uint8",
              "name": "scissorsCards",
              "type": "uint8"
            }
          ],
          "internalType": "struct TournamentTrading.ResourceBundle",
          "name": "requested",
          "type": "tuple"
        }
      ],
      "name": "createOffer",
      "outputs": [
        {
          "internalType": "uint256",
          "name": "offerId",
          "type": "uint256"
        }
      ],
      "stateMutability": "nonpayable",
      "type": "function"
    },
    {
      "inputs": [
        {
          "internalType": "uint256",
          "name": "offerId",
          "type": "uint256"
        },
        {
          "internalType": "address",
          "name": "acceptor",
          "type": "address"
        },
        {
          "internalType": "uint8",
          "name": "creatorTotalCardsDelta",
          "type": "uint8"
        },
        {
          "internalType": "uint8",
          "name": "acceptorTotalCardsDelta",
          "type": "uint8"
        }
      ],
      "name": "executeTradeResolution",
      "outputs": [],
      "stateMutability": "nonpayable",
      "type": "function"
    },
    {
      "inputs": [],
      "name": "gameOracle",
      "outputs": [
        {
          "internalType": "address",
          "name": "",
          "type": "address"
        }
      ],
      "stateMutability": "view",
      "type": "function"
    },
    {
      "inputs": [
        {
          "internalType": "uint256",
          "name": "offerId",
          "type": "uint256"
        }
      ],
      "name": "getOffer",
      "outputs": [
        {
          "components": [
            {
              "internalType": "address",
              "name": "creator",
              "type": "address"
            },
            {
              "internalType": "uint32",
              "name": "expiresAt",
              "type": "uint32"
            },
            {
              "internalType": "enum TournamentTrading.OfferStatus",
              "name": "status",
              "type": "uint8"
            },
            {
              "internalType": "bool",
              "name": "exists",
              "type": "bool"
            },
            {
              "components": [
                {
                  "internalType": "uint8",
                  "name": "lives",
                  "type": "uint8"
                },
                {
                  "internalType": "uint256",
                  "name": "coins",
                  "type": "uint256"
                },
                {
                  "internalType": "uint8",
                  "name": "rockCards",
                  "type": "uint8"
                },
                {
                  "internalType": "uint8",
                  "name": "paperCards",
                  "type": "uint8"
                },
                {
                  "internalType": "uint8",
                  "name": "scissorsCards",
                  "type": "uint8"
                }
              ],
              "internalType": "struct TournamentTrading.ResourceBundle",
              "name": "offered",
              "type": "tuple"
            },
            {
              "components": [
                {
                  "internalType": "uint8",
                  "name": "lives",
                  "type": "uint8"
                },
                {
                  "internalType": "uint256",
                  "name": "coins",
                  "type": "uint256"
                },
                {
                  "internalType": "uint8",
                  "name": "rockCards",
                  "type": "uint8"
                },
                {
                  "internalType": "uint8",
                  "name": "paperCards",
                  "type": "uint8"
                },
                {
                  "internalType": "uint8",
                  "name": "scissorsCards",
                  "type": "uint8"
                }
              ],
              "internalType": "struct TournamentTrading.ResourceBundle",
              "name": "requested",
              "type": "tuple"
            }
          ],
          "internalType": "struct TournamentTrading.TradeOffer",
          "name": "",
          "type": "tuple"
        }
      ],
      "stateMutability": "view",
      "type": "function"
    },
    {
      "inputs": [
        {
          "internalType": "uint256",
          "name": "offerId",
          "type": "uint256"
        }
      ],
      "name": "getOfferStatus",
      "outputs": [
        {
          "internalType": "enum TournamentTrading.OfferStatus",
          "name": "",
          "type": "uint8"
        }
      ],
      "stateMutability": "view",
      "type": "function"
    },
    {
      "inputs": [
        {
          "internalType": "address",
          "name": "player",
          "type": "address"
        }
      ],
      "name": "getPlayerOffers",
      "outputs": [
        {
          "internalType": "uint256[]",
          "name": "",
          "type": "uint256[]"
        }
      ],
      "stateMutability": "view",
      "type": "function"
    },
    {
      "inputs": [],
      "name": "hub",
      "outputs": [
        {
          "internalType": "address",
          "name": "",
          "type": "address"
        }
      ],
      "stateMutability": "view",
      "type": "function"
    },
    {
      "inputs": [
        {
          "internalType": "address",
          "name": "_hub",
          "type": "address"
        },
        {
          "internalType": "address",
          "name": "_gameOracle",
          "type": "address"
        }
      ],
      "name": "initialize",
      "outputs": [],
      "stateMutability": "nonpayable",
      "type": "function"
    },
    {
      "inputs": [
        {
          "internalType": "uint256",
          "name": "offerId",
          "type": "uint256"
        }
      ],
      "name": "isOfferActive",
      "outputs": [
        {
          "internalType": "bool",
          "name": "",
          "type": "bool"
        }
      ],
      "stateMutability": "view",
      "type": "function"
    },
    {
      "inputs": [],
      "name": "nextOfferId",
      "outputs": [
        {
          "internalType": "uint256",
          "name": "",
          "type": "uint256"
        }
      ],
      "stateMutability": "view",
      "type": "function"
    },
    {
      "inputs": [
        {
          "internalType": "uint256",
          "name": "",
          "type": "uint256"
        }
      ],
      "name": "offers",
      "outputs": [
        {
          "internalType": "address",
          "name": "creator",
          "type": "address"
        },
        {
          "internalType": "uint32",
          "name": "expiresAt",
          "type": "uint32"
        },
        {
          "internalType": "enum TournamentTrading.OfferStatus",
          "name": "status",
          "type": "uint8"
        },
        {
          "internalType": "bool",
          "name": "exists",
          "type": "bool"
        },
        {
          "components": [
            {
              "internalType": "uint8",
              "name": "lives",
              "type": "uint8"
            },
            {
              "internalType": "uint256",
              "name": "coins",
              "type": "uint256"
            },
            {
              "internalType": "uint8",
              "name": "rockCards",
              "type": "uint8"
            },
            {
              "internalType": "uint8",
              "name": "paperCards",
              "type": "uint8"
            },
            {
              "internalType": "uint8",
              "name": "scissorsCards",
              "type": "uint8"
            }
          ],
          "internalType": "struct TournamentTrading.ResourceBundle",
          "name": "offered",
          "type": "tuple"
        },
        {
          "components": [
            {
              "internalType": "uint8",
              "name": "lives",
              "type": "uint8"
            },
            {
              "internalType": "uint256",
              "name": "coins",
              "type": "uint256"
            },
            {
              "internalType": "uint8",
              "name": "rockCards",
              "type": "uint8"
            },
            {
              "internalType": "uint8",
              "name": "paperCards",
              "type": "uint8"
            },
            {
              "internalType": "uint8",
              "name": "scissorsCards",
              "type": "uint8"
            }
          ],
          "internalType": "struct TournamentTrading.ResourceBundle",
          "name": "requested",
          "type": "tuple"
        }
      ],
      "stateMutability": "view",
      "type": "function"
    },
    {
      "inputs": [],
      "name": "totalTradesExecuted",
      "outputs": [
        {
          "internalType": "uint256",
          "name": "",
          "type": "uint256"
        }
      ],
      "stateMutability": "view",
      "type": "function"
    }
  ],
  "bytecode": "0x608080604052346015576119e0908161001a8239f35b5f80fdfe6080806040526004361015610012575f80fd5b5f905f3560e01c90816234c8e3146115e45750806320bf4ffc14611530578063365a86fc146115095780634579268a146113e3578063485cc955146112355780634f42db5c146111605780635f5d06551461114357806386cc3fd8146109f15780638a72ea6a1461095b578063d2a037ab1461093e578063dc2d98d2146108ef578063e12935e0146102fa5763ef706adf146100ac575f80fd5b346102f75760203660031901126102f7578054604051635c12cd4b60e01b81523360048281019190915235916001600160a01b03169061014081602481855afa9081156102ec5784916102bd575b50610100810151156102ae5760e0810151600581101561029a5761028b57610120015161027c57602060049160405192838092631006976960e11b82525afa908115610271578391610242575b50600681101561022e5760030361021f57808252600460205260408220805460ff8160c81c161561021057336001600160a01b038216036102015760c01c60ff1660038110156101ed576101de57805460ff60c01b1916600160c01b1790556040514263ffffffff1681523391907febcd8ce2d34af8bc972b518ed1854367b5782d013a58c62e8e93c44737808e5b90602090a380f35b634d80826b60e11b8352600483fd5b634e487b7160e01b84526021600452602484fd5b63e8439f4960e01b8452600484fd5b636df5846d60e01b8452600484fd5b631d042a8d60e11b8252600482fd5b634e487b7160e01b83526021600452602483fd5b610264915060203d60201161026a575b61025c81836116ae565b810190611848565b5f610147565b503d610252565b6040513d85823e3d90fd5b63d2a7a4d360e01b8352600483fd5b6396ba997560e01b8452600484fd5b634e487b7160e01b85526021600452602485fd5b632a645edb60e01b8452600484fd5b6102df91506101403d81116102e5575b6102d781836116ae565b810190611784565b5f6100fa565b503d6102cd565b6040513d86823e3d90fd5b80fd5b50346107935760803660031901126107935760043561031761161d565b906044359060ff82168083036107935760643560ff811693848203610793576001546001600160a01b031633036108e0575f54604051631006976960e11b81526001600160a01b0390911696906020816004818b5afa908115610788575f916108c1575b5060068110156107f6576003036108b257845f52600460205260405f209283549060ff8260c81c16156108a35760ff8260c01c1660038110156107f6576108945763ffffffff8260a01c16421015610885576103f3600386015460ff6103e8818360081c16828416611874565b9160101c1690611874565b60ff61040f6006880154826103e8818360081c16828416611874565b9116871490811591610877575b5061086857604051635c12cd4b60e01b81526001600160a01b039092166004830152610140826024818c5afa918215610788575f92610847575b5060405193635c12cd4b60e01b85526101408560248160018060a01b0388169d8e60048301525afa948515610788575f95610826575b50610100830151158015610819575b61080a5760e083015160058110156107f657158015906107e0575b6107d157610120830151158015906107c3575b6107b45760a083019160ff8351169160ff6001890154168093106107a557602085019384519360028a01548095106107a55760c08701948b60ff875116106107a5578a9160a08b019060ff600481845116950154168094106107a5578f988d9160208e0196600588519401548094106107a55760c08f019b60ff8d5116106107a55760ff806105658c6105608f848f915116611888565b611874565b16116107975760ff806105808b8f8e84610560925116611888565b1611610797576106276106489a60ff8e61061e829f98838f61063d9e828f8f909e829f9e6106339f9d8f859f610614986105d06105db92896105c681968289511661194d565b168652865161189c565b855282865116611888565b168352846105ec878284511661196d565b1690526105fa8882516118a9565b90528261060a8c82845116611874565b169052511661194d565b168b528d5161189c565b8c525116611888565b168b528284511661196d565b16905282516118a9565b905282845116611874565b169052835460ff60c01b1916600160c11b1784556003805460010190555f5484546001600160a01b0391821692911690823b15610793576106a2925f928360405180968195829463153e962760e21b8452600484016118b6565b03925af1801561078857610771575b50875488926001600160a01b039091169190823b1561076d576106ed9284928360405180968195829463153e962760e21b8452600484016118b6565b03925af1801561076257610749575b50507f53d7c519d138184b9ecfc64646a3b0b7e12c64f6346ee1a9e9fd282c5c5047dc9160609160018060a01b0390541694604051918252602082015263ffffffff42166040820152a480f35b81610753916116ae565b61075e57855f6106fc565b8580fd5b6040513d84823e3d90fd5b8380fd5b61077f919298505f906116ae565b5f96905f6106b1565b6040513d5f823e3d90fd5b5f80fd5b62fc139f60e81b5f5260045ffd5b633249a22160e21b5f5260045ffd5b63d2a7a4d360e01b5f5260045ffd5b5061012085015115156104c9565b6396ba997560e01b5f5260045ffd5b5060e085015160058110156107f65715156104b6565b634e487b7160e01b5f52602160045260245ffd5b632a645edb60e01b5f5260045ffd5b506101008501511561049b565b6108409195506101403d81116102e5576102d781836116ae565b935f61048c565b6108619192506101403d81116102e5576102d781836116ae565b905f610456565b63dffa3c8b60e01b5f5260045ffd5b60ff9150168814155f61041c565b639cb1308760e01b5f5260045ffd5b634d80826b60e11b5f5260045ffd5b636df5846d60e01b5f5260045ffd5b631d042a8d60e11b5f5260045ffd5b6108da915060203d60201161026a5761025c81836116ae565b5f61037b565b632147550760e01b5f5260045ffd5b3461079357602036600319011261079357600435805f52600460205260ff60405f205460c81c16156108a3575f526004602052602060ff60405f205460c01c1661093c6040518092611633565bf35b34610793575f366003190112610793576020600354604051908152f35b34610793576020366003190112610793576004355f5260046020526101c060405f2061093c8154916109e661099e6004610997600185016116d0565b93016116d0565b9160ff6040519560018060a01b038116875263ffffffff8160a01c1660208801526109d160408801838360c01c16611633565b60c81c16151560608601526080850190611640565b610120830190611640565b3461079357366003190161014081126107935760a0136107935760a03660a3190112610793575f54604051635c12cd4b60e01b81523360048201526001600160a01b039091169061014081602481855afa908115610788575f91611124575b506101008101511561080a5760e081015160058110156107f6576107d15761012001516107b457604051631006976960e11b8152602081600481855afa908115610788575f91611105575b5060068110156107f6576003036108b2575f60049160405192838092635e615a6b60e01b82525afa908115610788575f91610e58575b50604063ffffffff9101511663ffffffff42160163ffffffff8111610e4457600254906001820160025560405190610b0882611676565b33825263ffffffff811660208301525f60408301526001606083015260405191610b3183611692565b6004359260ff8416840361079357838152602435602082015260443560ff811681036107935780604083015260643560ff81168103610793578060608401526084359260ff8416840361079357836080820152608085015260405192610b9684611692565b60a4359160ff831683036107935782855260c435602086015260e4359360ff8516850361079357846040870152610104359560ff8716870361079357866060820152610124359760ff89168903610793576080820189905260a08181019283525f8d81526004602090815260409182902084518154928601516001600160c01b03199093166001600160a01b0391909116179190931b63ffffffff60a01b1617825582015190929060038110156107f65760069260809185549060ff60c01b9060c01b169060ff60c01b19161785556060810151151585549060ff60c81b9060c81b169060ff60c81b1916178555015160ff81511660ff60018601911660ff1982541617905560208101516002850155600384019060ff806040830151161660ff1983541617825560608101519061ff0062ff00006080855493015160101b169260081b169062ffff00191617179055519160ff83511660ff60048301911660ff1982541617905560208301516005820155019060ff806040830151161660ff1983541617825560608101519061ff0062ff00006080855493015160101b169260081b169062ffff00191617179055335f52600560205260405f20805468010000000000000000811015610e305760018101808355811015610e1c578b915f5260205f2001556040519860ff16895260243560208a015260ff16604089015260ff16606088015260ff16608087015260ff1660a086015260c43560c086015260ff1660e085015260ff1661010084015260ff1661012083015263ffffffff166101408201524263ffffffff166101608201528133916101807f72cdc34aef84aacdb10a239cda65b1613bb817bec46fbc616369e23b4289d7bd91a3604051908152602090f35b634e487b7160e01b5f52603260045260245ffd5b634e487b7160e01b5f52604160045260245ffd5b634e487b7160e01b5f52601160045260245ffd5b90503d805f833e610e6981836116ae565b8101906020818303126107935780519067ffffffffffffffff82116107935701610380818303126107935760405190610380820182811067ffffffffffffffff821117610e3057604052610ebc81611749565b8252610eca60208201611749565b6020830152610edb60408201611749565b6040830152610eec6060820161175a565b6060830152610efd6080820161175a565b6080830152610f0e60a0820161175a565b60a083015260c081015160c0830152610f2960e08201611860565b60e083015261010081015161010083015261012081015161012083015261014081015164ffffffffff8116810361079357610140830152610160810151610160830152610f796101808201611769565b610180830152610f8c6101a08201611769565b6101a0830152610f9f6101c08201611769565b6101c0830152610fb26101e0820161175a565b6101e0830152610fc5610200820161175a565b610200830152610fd86102208201611769565b610220830152610feb6102408201611769565b610240830152610ffe6102608201611777565b6102608301526102808101516002811015610793576102808301526110266102a08201611769565b6102a08301526110396102c08201611769565b6102c083015261104c6102e08201611860565b6102e083015261030081015167ffffffffffffffff81116107935781019280601f850112156107935783519067ffffffffffffffff8211610e30578160051b946040519261109d60208801856116ae565b835260208084019682010191821161079357602001945b8186106110ed57505061030083015261032080820151908301526103408082015190830152610360908101519082015290506040610ad1565b602080916110fa88611769565b8152019501946110b4565b61111e915060203d60201161026a5761025c81836116ae565b82610a9b565b61113d91506101403d81116102e5576102d781836116ae565b82610a50565b34610793575f366003190112610793576020600254604051908152f35b34610793576020366003190112610793576004355f52600460205260405f206040519061118c82611676565b805460018060a01b0381168352602083019263ffffffff8260a01c16845260a06111ec600460408401956111c660ff8760c01c168861173d565b60ff606086019660c81c16151586526111e1600182016116d0565b6080860152016116d0565b910152511515908161121f575b506020918161120e575b506040519015158152f35b63ffffffff91505116421082611203565b9050519060038210156107f657901560206111f9565b346107935760403660031901126107935761124e611607565b61125661161d565b5f51602061198b5f395f51905f52549160ff8360401c16159267ffffffffffffffff8116801590816113db575b60011490816113d1575b1590816113c8575b506113b95767ffffffffffffffff1981166001175f51602061198b5f395f51905f52558361138d575b506001600160a01b03168015801561137c575b61136d576bffffffffffffffffffffffff60a01b5f5416175f5560018060a01b03166bffffffffffffffffffffffff60a01b6001541617600155600160025561131657005b68ff0000000000000000195f51602061198b5f395f51905f5254165f51602061198b5f395f51905f52557fc7f505b2f371ae2175ee4913f4499e1f2633a7b5936321eed1cdaeb6115181d2602060405160018152a1005b63e6c4247b60e01b5f5260045ffd5b506001600160a01b038216156112d1565b68ffffffffffffffffff191668010000000000000001175f51602061198b5f395f51905f5255836112be565b63f92ee8a960e01b5f5260045ffd5b90501585611295565b303b15915061128d565b859150611283565b346107935760203660031901126107935760405161140081611676565b5f81525f60208201525f60408201525f606082015261141d611713565b608082015260a061142c611713565b9101526004355f5260046020526101c060405f2061093c6040519161145083611676565b80546001600160a01b038116845260a081901c63ffffffff1660208501908152916114fd916114ea6040870161148d60c084901c60ff168261173d565b60ff606089019360c81c161515835263ffffffff6114c060046114b2600188016116d0565b9660808c01978852016116d0565b9660a08a019788526040519960018060a01b039051168a5251166020890152516040880190611633565b5115156060860152516080850190611640565b51610120830190611640565b34610793575f366003190112610793575f546040516001600160a01b039091168152602090f35b34610793576020366003190112610793576001600160a01b03611551611607565b165f52600560205260405f20604051806020835491828152019081935f5260205f20905f5b8181106115ce575050508161158c9103826116ae565b604051918291602083019060208452518091526040830191905f5b8181106115b5575050500390f35b82518452859450602093840193909201916001016115a7565b8254845260209093019260019283019201611576565b34610793575f366003190112610793576001546001600160a01b03168152602090f35b600435906001600160a01b038216820361079357565b602435906001600160a01b038216820361079357565b9060038210156107f65752565b60ff6080809282815116855260208101516020860152826040820151166040860152826060820151166060860152015116910152565b60c0810190811067ffffffffffffffff821117610e3057604052565b60a0810190811067ffffffffffffffff821117610e3057604052565b90601f8019910116810190811067ffffffffffffffff821117610e3057604052565b906040516116dd81611692565b608060ff600283958281541685526001810154602086015201548181166040850152818160081c16606085015260101c16910152565b6040519061172082611692565b5f6080838281528260208201528260408201528260608201520152565b60038210156107f65752565b519063ffffffff8216820361079357565b519061ffff8216820361079357565b519060ff8216820361079357565b5190811515820361079357565b90816101409103126107935760405190610140820182811067ffffffffffffffff821117610e30576040528051825260208101516020830152604081015160408301526117d360608201611749565b60608301526117e46080820161175a565b60808301526117f560a08201611769565b60a083015261180660c08201611769565b60c083015260e081015160058110156107935761183f916101209160e08501526118336101008201611777565b61010085015201611777565b61012082015290565b90816020910312610793575160068110156107935790565b51906001600160a01b038216820361079357565b9060ff8091169116019060ff8211610e4457565b9060ff8091169116039060ff8211610e4457565b91908203918211610e4457565b91908201809211610e4457565b90929161016082019360018060a01b0316825280516020830152602081015160408301526040810151606083015263ffffffff606082015116608083015261ffff60808201511660a083015260ff60a08201511660c083015260ff60c08201511660e083015260e081015160058110156107f657610140916101209161010085015261010081015115158285015201511515910152565b9060ff808216908316106119675761196491611888565b90565b50505f90565b60ff8061197c931691166118a9565b60ff81116107975760ff169056fef0c57e16840df040f15088dc2f81fe391c3923bec73e23a9662efc9c229c6a00a26469706673582212208414723dfc103aa10fac1a8e4bf6dcf790cba8207942305e50e0f852ab78674264736f6c634300081c0033",
  "linkReferences": {},
  "deployedLinkReferences": {},
  "immutableReferences": {},
  "inputSourceName": "project/contracts/tournament/modules/trading/TournamentTrading.sol",
  "buildInfoId": "solc-0_8_28-273a8cf69345b895acef730295099f6f89689006"
}