{
  "_format": "hh3-artifact-1",
  "contractName": "TournamentFactory",
  "sourceName": "contracts/tournament/infrastructure/factory/TournamentFactory.sol",
  "abi": [
    {
      "inputs": [
        {
          "components": [
            {
              "internalType": "address",
              "name": "hubImpl",
              "type": "address"
            },
            {
              "internalType": "address",
              "name": "combatImpl",
              "type": "address"
            },
            {
              "internalType": "address",
              "name": "mysteryDeckImpl",
              "type": "address"
            },
            {
              "internalType": "address",
              "name": "tradingImpl",
              "type": "address"
            },
            {
              "internalType": "address",
              "name": "randomizerImpl",
              "type": "address"
            },
            {
              "internalType": "address",
              "name": "registry",
              "type": "address"
            },
            {
              "internalType": "address",
              "name": "whitelist",
              "type": "address"
            },
            {
              "internalType": "address",
              "name": "deckCatalog",
              "type": "address"
            },
            {
              "internalType": "address",
              "name": "pythEntropy",
              "type": "address"
            },
            {
              "internalType": "address",
              "name": "entropyProvider",
              "type": "address"
            },
            {
              "internalType": "address",
              "name": "platformAdmin",
              "type": "address"
            },
            {
              "internalType": "address",
              "name": "gameOracle",
              "type": "address"
            },
            {
              "internalType": "uint8",
              "name": "platformFeePercent",
              "type": "uint8"
            }
          ],
          "internalType": "struct TournamentFactory.FactoryConfig",
          "name": "config",
          "type": "tuple"
        }
      ],
      "stateMutability": "nonpayable",
      "type": "constructor"
    },
    {
      "inputs": [],
      "name": "InvalidAddress",
      "type": "error"
    },
    {
      "inputs": [
        {
          "internalType": "address",
          "name": "owner",
          "type": "address"
        }
      ],
      "name": "OwnableInvalidOwner",
      "type": "error"
    },
    {
      "inputs": [
        {
          "internalType": "address",
          "name": "account",
          "type": "address"
        }
      ],
      "name": "OwnableUnauthorizedAccount",
      "type": "error"
    },
    {
      "inputs": [],
      "name": "PlatformFeeTooHigh",
      "type": "error"
    },
    {
      "anonymous": false,
      "inputs": [
        {
          "indexed": true,
          "internalType": "address",
          "name": "from",
          "type": "address"
        },
        {
          "indexed": false,
          "internalType": "uint256",
          "name": "amount",
          "type": "uint256"
        }
      ],
      "name": "ETHDeposited",
      "type": "event"
    },
    {
      "anonymous": false,
      "inputs": [
        {
          "indexed": true,
          "internalType": "address",
          "name": "to",
          "type": "address"
        },
        {
          "indexed": false,
          "internalType": "uint256",
          "name": "amount",
          "type": "uint256"
        }
      ],
      "name": "ETHWithdrawn",
      "type": "event"
    },
    {
      "anonymous": false,
      "inputs": [
        {
          "indexed": true,
          "internalType": "address",
          "name": "previousOwner",
          "type": "address"
        },
        {
          "indexed": true,
          "internalType": "address",
          "name": "newOwner",
          "type": "address"
        }
      ],
      "name": "OwnershipTransferred",
      "type": "event"
    },
    {
      "anonymous": false,
      "inputs": [
        {
          "indexed": false,
          "internalType": "uint8",
          "name": "newFee",
          "type": "uint8"
        }
      ],
      "name": "PlatformFeeUpdated",
      "type": "event"
    },
    {
      "anonymous": false,
      "inputs": [
        {
          "indexed": true,
          "internalType": "address",
          "name": "newOracle",
          "type": "address"
        }
      ],
      "name": "RngOracleUpdated",
      "type": "event"
    },
    {
      "anonymous": false,
      "inputs": [
        {
          "indexed": true,
          "internalType": "address",
          "name": "hub",
          "type": "address"
        },
        {
          "indexed": true,
          "internalType": "address",
          "name": "combat",
          "type": "address"
        },
        {
          "indexed": false,
          "internalType": "address",
          "name": "mysteryDeck",
          "type": "address"
        },
        {
          "indexed": false,
          "internalType": "address",
          "name": "trading",
          "type": "address"
        },
        {
          "indexed": false,
          "internalType": "address",
          "name": "randomizer",
          "type": "address"
        },
        {
          "indexed": true,
          "internalType": "address",
          "name": "creator",
          "type": "address"
        },
        {
          "components": [
            {
              "internalType": "uint32",
              "name": "startTimestamp",
              "type": "uint32"
            },
            {
              "internalType": "uint32",
              "name": "duration",
              "type": "uint32"
            },
            {
              "internalType": "uint32",
              "name": "gameInterval",
              "type": "uint32"
            },
            {
              "internalType": "uint16",
              "name": "minPlayers",
              "type": "uint16"
            },
            {
              "internalType": "uint16",
              "name": "maxPlayers",
              "type": "uint16"
            },
            {
              "internalType": "uint16",
              "name": "startPlayerCount",
              "type": "uint16"
            },
            {
              "internalType": "uint256",
              "name": "startPoolAmount",
              "type": "uint256"
            },
            {
              "internalType": "address",
              "name": "stakeToken",
              "type": "address"
            },
            {
              "internalType": "uint256",
              "name": "minStake",
              "type": "uint256"
            },
            {
              "internalType": "uint256",
              "name": "maxStake",
              "type": "uint256"
            },
            {
              "internalType": "uint40",
              "name": "coinConversionRate",
              "type": "uint40"
            },
            {
              "internalType": "uint256",
              "name": "decayAmount",
              "type": "uint256"
            },
            {
              "internalType": "uint8",
              "name": "initialLives",
              "type": "uint8"
            },
            {
              "internalType": "uint8",
              "name": "cardsPerType",
              "type": "uint8"
            },
            {
              "internalType": "uint8",
              "name": "exitLivesRequired",
              "type": "uint8"
            },
            {
              "internalType": "uint16",
              "name": "exitCostBasePercentBPS",
              "type": "uint16"
            },
            {
              "internalType": "uint16",
              "name": "exitCostCompoundRateBPS",
              "type": "uint16"
            },
            {
              "internalType": "uint8",
              "name": "creatorFeePercent",
              "type": "uint8"
            },
            {
              "internalType": "uint8",
              "name": "platformFeePercent",
              "type": "uint8"
            },
            {
              "internalType": "bool",
              "name": "forfeitAllowed",
              "type": "bool"
            },
            {
              "internalType": "enum TournamentCore.ForfeitPenaltyType",
              "name": "forfeitPenaltyType",
              "type": "uint8"
            },
            {
              "internalType": "uint8",
              "name": "forfeitMaxPenalty",
              "type": "uint8"
            },
            {
              "internalType": "uint8",
              "name": "forfeitMinPenalty",
              "type": "uint8"
            },
            {
              "internalType": "address",
              "name": "deckCatalog",
              "type": "address"
            },
            {
              "internalType": "uint8[]",
              "name": "excludedCardIds",
              "type": "uint8[]"
            },
            {
              "internalType": "uint256",
              "name": "deckDrawCost",
              "type": "uint256"
            },
            {
              "internalType": "uint256",
              "name": "deckShuffleCost",
              "type": "uint256"
            },
            {
              "internalType": "uint256",
              "name": "deckPeekCost",
              "type": "uint256"
            }
          ],
          "indexed": false,
          "internalType": "struct TournamentCore.Params",
          "name": "params",
          "type": "tuple"
        }
      ],
      "name": "TournamentSystemCreated",
      "type": "event"
    },
    {
      "inputs": [],
      "name": "combatImplementation",
      "outputs": [
        {
          "internalType": "address",
          "name": "",
          "type": "address"
        }
      ],
      "stateMutability": "view",
      "type": "function"
    },
    {
      "inputs": [
        {
          "components": [
            {
              "internalType": "uint32",
              "name": "startTimestamp",
              "type": "uint32"
            },
            {
              "internalType": "uint32",
              "name": "duration",
              "type": "uint32"
            },
            {
              "internalType": "uint32",
              "name": "gameInterval",
              "type": "uint32"
            },
            {
              "internalType": "uint16",
              "name": "minPlayers",
              "type": "uint16"
            },
            {
              "internalType": "uint16",
              "name": "maxPlayers",
              "type": "uint16"
            },
            {
              "internalType": "uint16",
              "name": "startPlayerCount",
              "type": "uint16"
            },
            {
              "internalType": "uint256",
              "name": "startPoolAmount",
              "type": "uint256"
            },
            {
              "internalType": "address",
              "name": "stakeToken",
              "type": "address"
            },
            {
              "internalType": "uint256",
              "name": "minStake",
              "type": "uint256"
            },
            {
              "internalType": "uint256",
              "name": "maxStake",
              "type": "uint256"
            },
            {
              "internalType": "uint40",
              "name": "coinConversionRate",
              "type": "uint40"
            },
            {
              "internalType": "uint256",
              "name": "decayAmount",
              "type": "uint256"
            },
            {
              "internalType": "uint8",
              "name": "initialLives",
              "type": "uint8"
            },
            {
              "internalType": "uint8",
              "name": "cardsPerType",
              "type": "uint8"
            },
            {
              "internalType": "uint8",
              "name": "exitLivesRequired",
              "type": "uint8"
            },
            {
              "internalType": "uint16",
              "name": "exitCostBasePercentBPS",
              "type": "uint16"
            },
            {
              "internalType": "uint16",
              "name": "exitCostCompoundRateBPS",
              "type": "uint16"
            },
            {
              "internalType": "uint8",
              "name": "creatorFeePercent",
              "type": "uint8"
            },
            {
              "internalType": "uint8",
              "name": "platformFeePercent",
              "type": "uint8"
            },
            {
              "internalType": "bool",
              "name": "forfeitAllowed",
              "type": "bool"
            },
            {
              "internalType": "enum TournamentCore.ForfeitPenaltyType",
              "name": "forfeitPenaltyType",
              "type": "uint8"
            },
            {
              "internalType": "uint8",
              "name": "forfeitMaxPenalty",
              "type": "uint8"
            },
            {
              "internalType": "uint8",
              "name": "forfeitMinPenalty",
              "type": "uint8"
            },
            {
              "internalType": "address",
              "name": "deckCatalog",
              "type": "address"
            },
            {
              "internalType": "uint8[]",
              "name": "excludedCardIds",
              "type": "uint8[]"
            },
            {
              "internalType": "uint256",
              "name": "deckDrawCost",
              "type": "uint256"
            },
            {
              "internalType": "uint256",
              "name": "deckShuffleCost",
              "type": "uint256"
            },
            {
              "internalType": "uint256",
              "name": "deckPeekCost",
              "type": "uint256"
            }
          ],
          "internalType": "struct TournamentCore.Params",
          "name": "params",
          "type": "tuple"
        }
      ],
      "name": "createTournamentSystem",
      "outputs": [
        {
          "internalType": "address",
          "name": "hub",
          "type": "address"
        }
      ],
      "stateMutability": "nonpayable",
      "type": "function"
    },
    {
      "inputs": [],
      "name": "deckCatalog",
      "outputs": [
        {
          "internalType": "contract TournamentDeckCatalog",
          "name": "",
          "type": "address"
        }
      ],
      "stateMutability": "view",
      "type": "function"
    },
    {
      "inputs": [],
      "name": "entropyProvider",
      "outputs": [
        {
          "internalType": "address",
          "name": "",
          "type": "address"
        }
      ],
      "stateMutability": "view",
      "type": "function"
    },
    {
      "inputs": [],
      "name": "gameOracle",
      "outputs": [
        {
          "internalType": "address",
          "name": "",
          "type": "address"
        }
      ],
      "stateMutability": "view",
      "type": "function"
    },
    {
      "inputs": [],
      "name": "getContractBalance",
      "outputs": [
        {
          "internalType": "uint256",
          "name": "",
          "type": "uint256"
        }
      ],
      "stateMutability": "view",
      "type": "function"
    },
    {
      "inputs": [],
      "name": "getImplementations",
      "outputs": [
        {
          "internalType": "address",
          "name": "hub",
          "type": "address"
        },
        {
          "internalType": "address",
          "name": "combat",
          "type": "address"
        },
        {
          "internalType": "address",
          "name": "mysteryDeck",
          "type": "address"
        },
        {
          "internalType": "address",
          "name": "trading",
          "type": "address"
        },
        {
          "internalType": "address",
          "name": "randomizer",
          "type": "address"
        }
      ],
      "stateMutability": "view",
      "type": "function"
    },
    {
      "inputs": [],
      "name": "hubImplementation",
      "outputs": [
        {
          "internalType": "address",
          "name": "",
          "type": "address"
        }
      ],
      "stateMutability": "view",
      "type": "function"
    },
    {
      "inputs": [],
      "name": "mysteryDeckImplementation",
      "outputs": [
        {
          "internalType": "address",
          "name": "",
          "type": "address"
        }
      ],
      "stateMutability": "view",
      "type": "function"
    },
    {
      "inputs": [],
      "name": "owner",
      "outputs": [
        {
          "internalType": "address",
          "name": "",
          "type": "address"
        }
      ],
      "stateMutability": "view",
      "type": "function"
    },
    {
      "inputs": [],
      "name": "platformAdmin",
      "outputs": [
        {
          "internalType": "address",
          "name": "",
          "type": "address"
        }
      ],
      "stateMutability": "view",
      "type": "function"
    },
    {
      "inputs": [],
      "name": "platformFeePercent",
      "outputs": [
        {
          "internalType": "uint8",
          "name": "",
          "type": "uint8"
        }
      ],
      "stateMutability": "view",
      "type": "function"
    },
    {
      "inputs": [],
      "name": "pythEntropy",
      "outputs": [
        {
          "internalType": "address",
          "name": "",
          "type": "address"
        }
      ],
      "stateMutability": "view",
      "type": "function"
    },
    {
      "inputs": [],
      "name": "randomizerImplementation",
      "outputs": [
        {
          "internalType": "address",
          "name": "",
          "type": "address"
        }
      ],
      "stateMutability": "view",
      "type": "function"
    },
    {
      "inputs": [],
      "name": "registry",
      "outputs": [
        {
          "internalType": "contract TournamentRegistry",
          "name": "",
          "type": "address"
        }
      ],
      "stateMutability": "view",
      "type": "function"
    },
    {
      "inputs": [],
      "name": "renounceOwnership",
      "outputs": [],
      "stateMutability": "nonpayable",
      "type": "function"
    },
    {
      "inputs": [
        {
          "internalType": "address",
          "name": "newOracle",
          "type": "address"
        }
      ],
      "name": "setGameOracle",
      "outputs": [],
      "stateMutability": "nonpayable",
      "type": "function"
    },
    {
      "inputs": [
        {
          "internalType": "uint8",
          "name": "newFee",
          "type": "uint8"
        }
      ],
      "name": "setPlatformFee",
      "outputs": [],
      "stateMutability": "nonpayable",
      "type": "function"
    },
    {
      "inputs": [],
      "name": "tradingImplementation",
      "outputs": [
        {
          "internalType": "address",
          "name": "",
          "type": "address"
        }
      ],
      "stateMutability": "view",
      "type": "function"
    },
    {
      "inputs": [
        {
          "internalType": "address",
          "name": "newOwner",
          "type": "address"
        }
      ],
      "name": "transferOwnership",
      "outputs": [],
      "stateMutability": "nonpayable",
      "type": "function"
    },
    {
      "inputs": [],
      "name": "whitelist",
      "outputs": [
        {
          "internalType": "contract TournamentTokenWhitelist",
          "name": "",
          "type": "address"
        }
      ],
      "stateMutability": "view",
      "type": "function"
    },
    {
      "inputs": [
        {
          "internalType": "uint256",
          "name": "amount",
          "type": "uint256"
        }
      ],
      "name": "withdrawETH",
      "outputs": [],
      "stateMutability": "nonpayable",
      "type": "function"
    },
    {
      "stateMutability": "payable",
      "type": "receive"
    }
  ],
  "bytecode": "0x6101e06040523461048757604051601f6119d938819003918201601f19168301916001600160401b0383118484101761048b578084926101a09460405283398101031261048757604051906101a082016001600160401b0381118382101761048b5760405261006d8161049f565b825261007b6020820161049f565b9060208301918252826100906040830161049f565b91604082019283526100a46060820161049f565b606083019081526100b76080830161049f565b608084019081526100ca60a0840161049f565b60a085019081526100dd60c0850161049f565b60c086019081526100f060e0860161049f565b9160e08701928352610105610100870161049f565b93610100880194855261011b610120880161049f565b9561012089019687526101806101346101408a0161049f565b986101408b01998a5261016061014b81830161049f565b9b019a8b5201519960ff8b168b03610487576101808d019a8b523315610474575f549b6040519d8d339060018060a01b03167f8be0079c531659141344cd1fd0a4f28419497f9722a3daafe3b4186f6b6457e05f80a380516001600160a01b0316158015610462575b8015610450575b801561043e575b801561042c575b801561041a575b8015610408575b80156103f6575b80156103e4575b80156103d2575b6103c357600560ff8e5116116103b457516001600160a01b039081166080529051811660a0529051811660c0529051811660e0529051811661010052905181166101405290518116610160529051811661018052905181166101a052905181166101c052905116806103af5750335b61012052516001600160a01b0316806103aa5750335b600180546001600160a01b0319166001600160a01b0392909216919091179055516001600160a81b03199091163360ff60a01b19161760a09190911b60ff60a01b16175f5561152590816104b4823960805181818161029b01528181610ecb0152611009015260a05181818161027a01528181610ac30152610fe8015260c05181818161025901528181610fc701526110cf015260e05181818161023801528181610dba0152610fa601526101005181818161021701528181610c2e0152610f850152610120518181816103c40152610bea01526101405181818161032001528181610542015281816105900152610e870152610160518181816101bb0152610ce901526101805181818161034d015261108b01526101a0518181816103740152610d7601526101c05181818161039c01526110470152f35b610271565b61025b565b63d086646b60e01b5f5260045ffd5b63e6c4247b60e01b5f5260045ffd5b5089516001600160a01b0316156101ec565b5088516001600160a01b0316156101e5565b5087516001600160a01b0316156101de565b5086516001600160a01b0316156101d7565b5085516001600160a01b0316156101d0565b5084516001600160a01b0316156101c9565b5083516001600160a01b0316156101c2565b5082516001600160a01b0316156101bb565b5081516001600160a01b0316156101b4565b631e4fbdf760e01b5f525f60045260245ffd5b5f80fd5b634e487b7160e01b5f52604160045260245ffd5b51906001600160a01b03821682036104875756fe6080806040526004361015610048575b50361561001a575f80fd5b6040513481527f6c703791f399558807424f489ccd811c72b4ff0b74af547264fad7c646776df060203392a2005b5f905f3560e01c90816234c8e3146110fe575080630df8b925146110ba57806315a54b31146110765780635bf414ac14611032578063615f64fe14610f6c5780636f9fb98a14610f51578063715018a614610efa57806375b84e9014610eb65780637b10399914610e725780638042853f14610de95780638862574114610da557806389cea22a14610d615780638c639a8514610d3f5780638da5cb5b14610d1857806393e59dc114610cd4578063a5275ebd14610c5d578063b3c7ce6614610c19578063cdcd7fb514610bd5578063f14210a614610af2578063f176f65814610aae578063f2fde38b14610a295763f58856ba0361000f5734610a25576020366003190112610a255767ffffffffffffffff60043511610a255761038060043536036003190112610a255773__$e150c491b14ca0e3af7ab0be2a82d6a404$__90813b15610a25576040516347e62f5760e01b8152604060048201525f816101b960448201600435600401611243565b7f00000000000000000000000000000000000000000000000000000000000000006001600160a01b03166024830181905295908290039082905af48015610a1a57610a07575b50604051636a515d1d60e11b81529060a082806102c37f00000000000000000000000000000000000000000000000000000000000000007f00000000000000000000000000000000000000000000000000000000000000007f00000000000000000000000000000000000000000000000000000000000000007f00000000000000000000000000000000000000000000000000000000000000007f000000000000000000000000000000000000000000000000000000000000000060048701611121565b038173__$f3c85ffadc00a0d530c6e628fff1a86a10$__5af49182156109fa578192610959575b5060018060a01b03600154166040519360e0850185811067ffffffffffffffff8211176109455760409081526001600160a01b037f00000000000000000000000000000000000000000000000000000000000000008116875260208701929092527f00000000000000000000000000000000000000000000000000000000000000008216908601527f0000000000000000000000000000000000000000000000000000000000000000811660608601527f0000000000000000000000000000000000000000000000000000000000000000811660808601527f00000000000000000000000000000000000000000000000000000000000000001660a085015260c084015273__$f3c85ffadc00a0d530c6e628fff1a86a10$__3b1561091e5760408051632720d64360e21b815283516001600160a01b03908116600480840191909152602086015182166024840152928501518116604483015260608501518116606483015260808501805190911660848301526101c060a483015294909183918391829190610482906101c4840190803501611243565b81516001600160a01b0390811660c48501526020830151811660e485015260408301518116610104850152606083015181166101248501526080830151811661014485015260a0830151811661016485015260c090920151909116610184830152336101a4830152038173__$f3c85ffadc00a0d530c6e628fff1a86a10$__5af4801561092157908291610930575b5050815160208301516040840151606085015186516001600160a01b039283169493831693831692908116918116907f0000000000000000000000000000000000000000000000000000000000000000163b1561092c578593929161058b91604051968795869563403205f360e01b875260048701611121565b0381837f00000000000000000000000000000000000000000000000000000000000000006001600160a01b03165af1801561092157908291610909575b50508151602080840151604080860151606080880151985183516001600160a01b039384168152998316958a019590955293811691880191909152608092870192909252610400860193908216929091169063ffffffff61062c60048035016111ae565b16608087015263ffffffff6106456024600435016111ae565b1660a087015263ffffffff61065e6044600435016111ae565b1660c087015261ffff6106756064600435016111bf565b1660e087015261ffff61068c6084600435016111bf565b1661010087015261ffff6106a460a4600435016111bf565b1661012087015260043560c48101356101408801526001600160a01b03906106ce9060e401611178565b16610160870152610104600435013561018087015261012460043501356101a087015264ffffffffff610706610144600435016111ce565b166101c087015261016460043501356101e087015260ff61072c61018460043501611154565b1661020087015260ff6107446101a460043501611154565b1661022087015260ff61075c6101c460043501611154565b1661024087015261ffff6107756101e4600435016111bf565b1661026087015261ffff61078e610204600435016111bf565b1661028087015260ff6107a661022460043501611154565b166102a087015260ff6107be61024460043501611154565b166102c08701526107d4610264600435016111e0565b15156102e087015261028460043501356002811015610905576107fc906103008801906111ed565b60ff61080d6102a460043501611154565b1661032087015260ff6108256102c460043501611154565b166103408701526001600160a01b036108436004356102e401611178565b1661036087015261085f6103046004350160043560040161120e565b809195610380808a015252610420870194915b8181106108e3575050507fe2af3b8a7b2e1b080ebc5c8559902d7048bd365ba4fca13e770f531ecaa5f13b60209561032460043501356103a082015261034460043501356103c082015261036460043501356103e08201528033950390a4516040516001600160a01b039091168152f35b90919460208060019260ff6108f78a611154565b168152019601929101610872565b5080fd5b816109139161118c565b61091e57805f6105c8565b80fd5b6040513d84823e3d90fd5b8580fd5b8161093a9161118c565b61091e57805f610511565b634e487b7160e01b84526041600452602484fd5b90915060a0813d60a0116109f2575b8161097560a0938361118c565b81010312610905576040519060a0820182811067ffffffffffffffff821117610945576109e6916080916040526109ab816114b5565b84526109b9602082016114b5565b60208501526109ca604082016114b5565b60408501526109db606082016114b5565b6060850152016114b5565b6080820152905f6102ea565b3d9150610968565b50604051903d90823e3d90fd5b610a1391505f9061118c565b5f5f6101ff565b6040513d5f823e3d90fd5b5f80fd5b34610a25576020366003190112610a2557610a42611162565b610a4a6114c9565b6001600160a01b03168015610a9b575f80546001600160a01b03198116831782556001600160a01b0316907f8be0079c531659141344cd1fd0a4f28419497f9722a3daafe3b4186f6b6457e09080a3005b631e4fbdf760e01b5f525f60045260245ffd5b34610a25575f366003190112610a25576040517f00000000000000000000000000000000000000000000000000000000000000006001600160a01b03168152602090f35b34610a25576020366003190112610a2557600435610b0e6114c9565b5f80808084335af13d15610bd0573d67ffffffffffffffff8111610bbc5760405190610b44601f8201601f19166020018361118c565b81525f60203d92013e5b15610b81576040519081527f94b2de810873337ed265c5f8cf98c9cffefa06b8607f9a2f1fbaebdfbcfbef1c60203392a2005b60405162461bcd60e51b8152602060048201526013602482015272115512081d1c985b9cd9995c8819985a5b1959606a1b6044820152606490fd5b634e487b7160e01b5f52604160045260245ffd5b610b4e565b34610a25575f366003190112610a25576040517f00000000000000000000000000000000000000000000000000000000000000006001600160a01b03168152602090f35b34610a25575f366003190112610a25576040517f00000000000000000000000000000000000000000000000000000000000000006001600160a01b03168152602090f35b34610a25576020366003190112610a2557610c76611162565b610c7e6114c9565b6001600160a01b03168015610cc557600180546001600160a01b031916821790557fd7e46b58907abfead626e92d3a3dc9fa49730836fd7477be5d8342b0e9770c985f80a2005b63e6c4247b60e01b5f5260045ffd5b34610a25575f366003190112610a25576040517f00000000000000000000000000000000000000000000000000000000000000006001600160a01b03168152602090f35b34610a25575f366003190112610a25575f546040516001600160a01b039091168152602090f35b34610a25575f366003190112610a2557602060ff5f5460a01c16604051908152f35b34610a25575f366003190112610a25576040517f00000000000000000000000000000000000000000000000000000000000000006001600160a01b03168152602090f35b34610a25575f366003190112610a25576040517f00000000000000000000000000000000000000000000000000000000000000006001600160a01b03168152602090f35b34610a25576020366003190112610a255760043560ff811690818103610a2557610e116114c9565b60058211610e63575f805460ff60a01b191660a09290921b60ff60a01b169190911790556040519081527f8c342e60ad424f3fabdde11d8142b79987dc3a8c62f820bb6a214c2a51c25a1190602090a1005b63d086646b60e01b5f5260045ffd5b34610a25575f366003190112610a25576040517f00000000000000000000000000000000000000000000000000000000000000006001600160a01b03168152602090f35b34610a25575f366003190112610a25576040517f00000000000000000000000000000000000000000000000000000000000000006001600160a01b03168152602090f35b34610a25575f366003190112610a2557610f126114c9565b5f80546001600160a01b0319811682556001600160a01b03167f8be0079c531659141344cd1fd0a4f28419497f9722a3daafe3b4186f6b6457e08280a3005b34610a25575f366003190112610a2557602047604051908152f35b34610a25575f366003190112610a25576040518061102e7f00000000000000000000000000000000000000000000000000000000000000007f00000000000000000000000000000000000000000000000000000000000000007f00000000000000000000000000000000000000000000000000000000000000007f00000000000000000000000000000000000000000000000000000000000000007f000000000000000000000000000000000000000000000000000000000000000086611121565b0390f35b34610a25575f366003190112610a25576040517f00000000000000000000000000000000000000000000000000000000000000006001600160a01b03168152602090f35b34610a25575f366003190112610a25576040517f00000000000000000000000000000000000000000000000000000000000000006001600160a01b03168152602090f35b34610a25575f366003190112610a25576040517f00000000000000000000000000000000000000000000000000000000000000006001600160a01b03168152602090f35b34610a25575f366003190112610a25576001546001600160a01b03168152602090f35b6001600160a01b039182168152918116602083015291821660408201529181166060830152909116608082015260a00190565b359060ff82168203610a2557565b600435906001600160a01b0382168203610a2557565b35906001600160a01b0382168203610a2557565b90601f8019910116810190811067ffffffffffffffff821117610bbc57604052565b359063ffffffff82168203610a2557565b359061ffff82168203610a2557565b359064ffffffffff82168203610a2557565b35908115158203610a2557565b9060028210156111fa5752565b634e487b7160e01b5f52602160045260245ffd5b9035601e1982360301811215610a2557016020813591019167ffffffffffffffff8211610a25578160051b36038313610a2557565b9061038081019163ffffffff611258826111ae565b16825263ffffffff61126c602083016111ae565b16602083015263ffffffff611283604083016111ae565b16604083015261ffff611298606083016111bf565b16606083015261ffff6112ad608083016111bf565b16608083015261ffff6112c260a083016111bf565b1660a083015260c081810135908301526001600160a01b036112e660e08301611178565b1660e083015261010081013561010083015261012081013561012083015264ffffffffff61131761014083016111ce565b1661014083015261016081013561016083015260ff6113396101808301611154565b1661018083015260ff61134f6101a08301611154565b166101a083015260ff6113656101c08301611154565b166101c083015261ffff61137c6101e083016111bf565b166101e083015261ffff61139361020083016111bf565b1661020083015260ff6113a96102208301611154565b1661022083015260ff6113bf6102408301611154565b166102408301526113d361026082016111e0565b15156102608301526102808101356002811015610a25576113f9906102808401906111ed565b60ff6114086102a08301611154565b166102a083015260ff61141e6102c08301611154565b166102c08301526001600160a01b0361143a6102e08301611178565b166102e083015261144f61030082018261120e565b610380610300850152938490526103a08301935f5b818110611493575050506103608161032082930135610320850152610340810135610340850152013591015290565b90919460208060019260ff6114a78a611154565b168152019601929101611464565b51906001600160a01b0382168203610a2557565b5f546001600160a01b031633036114dc57565b63118cdaa760e01b5f523360045260245ffdfea2646970667358221220f552c15b6541162c526be5464bc0861148eec61fb59a01ba2564a7df3594c3e464736f6c634300081c0033",
  "linkReferences": {
    "project/contracts/tournament/infrastructure/factory/libraries/deployment/FactoryDeployment.sol": {
      "TournamentFactoryDeployment": [
        {
          "length": 20,
          "start": 1915
        },
        {
          "length": 20,
          "start": 2212
        },
        {
          "length": 20,
          "start": 2466
        }
      ]
    },
    "project/contracts/tournament/infrastructure/factory/libraries/validation/FactoryValidation.sol": {
      "TournamentFactoryValidation": [
        {
          "length": 20,
          "start": 1578
        }
      ]
    }
  },
  "deployedLinkReferences": {
    "project/contracts/tournament/infrastructure/factory/libraries/deployment/FactoryDeployment.sol": {
      "TournamentFactoryDeployment": [
        {
          "length": 20,
          "start": 711
        },
        {
          "length": 20,
          "start": 1008
        },
        {
          "length": 20,
          "start": 1262
        }
      ]
    },
    "project/contracts/tournament/infrastructure/factory/libraries/validation/FactoryValidation.sol": {
      "TournamentFactoryValidation": [
        {
          "length": 20,
          "start": 374
        }
      ]
    }
  },
  "immutableReferences": {
    "5798": [
      {
        "length": 32,
        "start": 667
      },
      {
        "length": 32,
        "start": 3787
      },
      {
        "length": 32,
        "start": 4105
      }
    ],
    "5800": [
      {
        "length": 32,
        "start": 634
      },
      {
        "length": 32,
        "start": 2755
      },
      {
        "length": 32,
        "start": 4072
      }
    ],
    "5802": [
      {
        "length": 32,
        "start": 601
      },
      {
        "length": 32,
        "start": 4039
      },
      {
        "length": 32,
        "start": 4303
      }
    ],
    "5804": [
      {
        "length": 32,
        "start": 568
      },
      {
        "length": 32,
        "start": 3514
      },
      {
        "length": 32,
        "start": 4006
      }
    ],
    "5806": [
      {
        "length": 32,
        "start": 535
      },
      {
        "length": 32,
        "start": 3118
      },
      {
        "length": 32,
        "start": 3973
      }
    ],
    "5808": [
      {
        "length": 32,
        "start": 964
      },
      {
        "length": 32,
        "start": 3050
      }
    ],
    "5811": [
      {
        "length": 32,
        "start": 800
      },
      {
        "length": 32,
        "start": 1346
      },
      {
        "length": 32,
        "start": 1424
      },
      {
        "length": 32,
        "start": 3719
      }
    ],
    "5814": [
      {
        "length": 32,
        "start": 443
      },
      {
        "length": 32,
        "start": 3305
      }
    ],
    "5817": [
      {
        "length": 32,
        "start": 845
      },
      {
        "length": 32,
        "start": 4235
      }
    ],
    "5819": [
      {
        "length": 32,
        "start": 884
      },
      {
        "length": 32,
        "start": 3446
      }
    ],
    "5821": [
      {
        "length": 32,
        "start": 924
      },
      {
        "length": 32,
        "start": 4167
      }
    ]
  },
  "inputSourceName": "project/contracts/tournament/infrastructure/factory/TournamentFactory.sol",
  "buildInfoId": "solc-0_8_28-2abbfbd1f6d21346241c526b47be7d07a5f1b087"
}