{
  "_format": "hh3-artifact-1",
  "contractName": "TournamentMysteryDeck",
  "sourceName": "contracts/tournament/modules/mystery-deck/TournamentMysteryDeck.sol",
  "abi": [
    {
      "inputs": [],
      "name": "DeckAlreadyInitialized",
      "type": "error"
    },
    {
      "inputs": [],
      "name": "DeckNotInitialized",
      "type": "error"
    },
    {
      "inputs": [],
      "name": "InsufficientCoins",
      "type": "error"
    },
    {
      "inputs": [],
      "name": "InvalidAddress",
      "type": "error"
    },
    {
      "inputs": [],
      "name": "InvalidCost",
      "type": "error"
    },
    {
      "inputs": [],
      "name": "InvalidCount",
      "type": "error"
    },
    {
      "inputs": [],
      "name": "InvalidInitialization",
      "type": "error"
    },
    {
      "inputs": [],
      "name": "InvalidPeekCount",
      "type": "error"
    },
    {
      "inputs": [],
      "name": "NotEnoughCardsRemaining",
      "type": "error"
    },
    {
      "inputs": [],
      "name": "NotInitializing",
      "type": "error"
    },
    {
      "inputs": [],
      "name": "OnlyGameOracle",
      "type": "error"
    },
    {
      "inputs": [],
      "name": "OnlyHub",
      "type": "error"
    },
    {
      "inputs": [],
      "name": "PlayerInCombat",
      "type": "error"
    },
    {
      "inputs": [],
      "name": "PlayerNotActive",
      "type": "error"
    },
    {
      "inputs": [],
      "name": "PlayerNotFound",
      "type": "error"
    },
    {
      "inputs": [],
      "name": "ResourceOverflow",
      "type": "error"
    },
    {
      "inputs": [],
      "name": "TooManyExcludedCards",
      "type": "error"
    },
    {
      "inputs": [],
      "name": "TournamentNotActive",
      "type": "error"
    },
    {
      "anonymous": false,
      "inputs": [
        {
          "indexed": true,
          "internalType": "address",
          "name": "player",
          "type": "address"
        },
        {
          "indexed": false,
          "internalType": "uint256",
          "name": "costPaid",
          "type": "uint256"
        },
        {
          "indexed": false,
          "internalType": "uint256",
          "name": "newDrawCount",
          "type": "uint256"
        },
        {
          "indexed": false,
          "internalType": "uint256",
          "name": "cardsRemaining",
          "type": "uint256"
        },
        {
          "indexed": false,
          "internalType": "uint32",
          "name": "timestamp",
          "type": "uint32"
        }
      ],
      "name": "CardDrawn",
      "type": "event"
    },
    {
      "anonymous": false,
      "inputs": [
        {
          "indexed": true,
          "internalType": "address",
          "name": "player",
          "type": "address"
        },
        {
          "indexed": false,
          "internalType": "uint8",
          "name": "cardCount",
          "type": "uint8"
        },
        {
          "indexed": false,
          "internalType": "uint256",
          "name": "costPaid",
          "type": "uint256"
        },
        {
          "indexed": false,
          "internalType": "uint256",
          "name": "newCardsRemaining",
          "type": "uint256"
        },
        {
          "indexed": false,
          "internalType": "uint32",
          "name": "timestamp",
          "type": "uint32"
        }
      ],
      "name": "CardsAdded",
      "type": "event"
    },
    {
      "anonymous": false,
      "inputs": [
        {
          "indexed": true,
          "internalType": "address",
          "name": "player",
          "type": "address"
        },
        {
          "indexed": false,
          "internalType": "uint8",
          "name": "cardCount",
          "type": "uint8"
        },
        {
          "indexed": false,
          "internalType": "uint256",
          "name": "costPaid",
          "type": "uint256"
        },
        {
          "indexed": false,
          "internalType": "uint32",
          "name": "timestamp",
          "type": "uint32"
        }
      ],
      "name": "CardsPeeked",
      "type": "event"
    },
    {
      "anonymous": false,
      "inputs": [
        {
          "indexed": true,
          "internalType": "address",
          "name": "player",
          "type": "address"
        },
        {
          "indexed": false,
          "internalType": "uint8",
          "name": "cardCount",
          "type": "uint8"
        },
        {
          "indexed": false,
          "internalType": "uint256",
          "name": "costPaid",
          "type": "uint256"
        },
        {
          "indexed": false,
          "internalType": "uint256",
          "name": "newCardsRemaining",
          "type": "uint256"
        },
        {
          "indexed": false,
          "internalType": "uint32",
          "name": "timestamp",
          "type": "uint32"
        }
      ],
      "name": "CardsRemoved",
      "type": "event"
    },
    {
      "anonymous": false,
      "inputs": [
        {
          "indexed": true,
          "internalType": "uint256",
          "name": "deckSize",
          "type": "uint256"
        },
        {
          "indexed": true,
          "internalType": "uint64",
          "name": "sequenceNumber",
          "type": "uint64"
        },
        {
          "indexed": false,
          "internalType": "uint32",
          "name": "timestamp",
          "type": "uint32"
        }
      ],
      "name": "DeckInitialized",
      "type": "event"
    },
    {
      "anonymous": false,
      "inputs": [
        {
          "indexed": true,
          "internalType": "address",
          "name": "player",
          "type": "address"
        },
        {
          "indexed": false,
          "internalType": "uint256",
          "name": "costPaid",
          "type": "uint256"
        },
        {
          "indexed": false,
          "internalType": "uint256",
          "name": "newShuffleCount",
          "type": "uint256"
        },
        {
          "indexed": false,
          "internalType": "uint32",
          "name": "timestamp",
          "type": "uint32"
        }
      ],
      "name": "DeckShuffled",
      "type": "event"
    },
    {
      "anonymous": false,
      "inputs": [
        {
          "indexed": false,
          "internalType": "uint64",
          "name": "version",
          "type": "uint64"
        }
      ],
      "name": "Initialized",
      "type": "event"
    },
    {
      "anonymous": false,
      "inputs": [
        {
          "indexed": true,
          "internalType": "uint256",
          "name": "newSeed",
          "type": "uint256"
        },
        {
          "indexed": false,
          "internalType": "bytes32",
          "name": "backendSecretHash",
          "type": "bytes32"
        },
        {
          "indexed": false,
          "internalType": "uint32",
          "name": "timestamp",
          "type": "uint32"
        }
      ],
      "name": "ShuffleSeedUpdated",
      "type": "event"
    },
    {
      "inputs": [],
      "name": "ADD_REMOVE_COST_MULTIPLIER",
      "outputs": [
        {
          "internalType": "uint256",
          "name": "",
          "type": "uint256"
        }
      ],
      "stateMutability": "view",
      "type": "function"
    },
    {
      "inputs": [],
      "name": "MAX_EXCLUDED_CARDS",
      "outputs": [
        {
          "internalType": "uint8",
          "name": "",
          "type": "uint8"
        }
      ],
      "stateMutability": "view",
      "type": "function"
    },
    {
      "inputs": [],
      "name": "MAX_PEEK_CARDS",
      "outputs": [
        {
          "internalType": "uint8",
          "name": "",
          "type": "uint8"
        }
      ],
      "stateMutability": "view",
      "type": "function"
    },
    {
      "inputs": [
        {
          "internalType": "uint8",
          "name": "count",
          "type": "uint8"
        }
      ],
      "name": "addCards",
      "outputs": [],
      "stateMutability": "nonpayable",
      "type": "function"
    },
    {
      "inputs": [],
      "name": "backendSecretHash",
      "outputs": [
        {
          "internalType": "bytes32",
          "name": "",
          "type": "bytes32"
        }
      ],
      "stateMutability": "view",
      "type": "function"
    },
    {
      "inputs": [
        {
          "internalType": "uint8",
          "name": "count",
          "type": "uint8"
        }
      ],
      "name": "calculateAddRemoveCost",
      "outputs": [
        {
          "internalType": "uint256",
          "name": "cost",
          "type": "uint256"
        }
      ],
      "stateMutability": "view",
      "type": "function"
    },
    {
      "inputs": [],
      "name": "cardsRemaining",
      "outputs": [
        {
          "internalType": "uint256",
          "name": "",
          "type": "uint256"
        }
      ],
      "stateMutability": "view",
      "type": "function"
    },
    {
      "inputs": [],
      "name": "catalog",
      "outputs": [
        {
          "internalType": "address",
          "name": "",
          "type": "address"
        }
      ],
      "stateMutability": "view",
      "type": "function"
    },
    {
      "inputs": [],
      "name": "currentShuffleSeed",
      "outputs": [
        {
          "internalType": "uint256",
          "name": "",
          "type": "uint256"
        }
      ],
      "stateMutability": "view",
      "type": "function"
    },
    {
      "inputs": [],
      "name": "drawCard",
      "outputs": [],
      "stateMutability": "nonpayable",
      "type": "function"
    },
    {
      "inputs": [],
      "name": "drawCost",
      "outputs": [
        {
          "internalType": "uint256",
          "name": "",
          "type": "uint256"
        }
      ],
      "stateMutability": "view",
      "type": "function"
    },
    {
      "inputs": [],
      "name": "drawCount",
      "outputs": [
        {
          "internalType": "uint32",
          "name": "",
          "type": "uint32"
        }
      ],
      "stateMutability": "view",
      "type": "function"
    },
    {
      "inputs": [
        {
          "internalType": "uint256",
          "name": "",
          "type": "uint256"
        }
      ],
      "name": "excludedCardIds",
      "outputs": [
        {
          "internalType": "uint8",
          "name": "",
          "type": "uint8"
        }
      ],
      "stateMutability": "view",
      "type": "function"
    },
    {
      "inputs": [],
      "name": "gameOracle",
      "outputs": [
        {
          "internalType": "address",
          "name": "",
          "type": "address"
        }
      ],
      "stateMutability": "view",
      "type": "function"
    },
    {
      "inputs": [],
      "name": "getDeckState",
      "outputs": [
        {
          "internalType": "uint256",
          "name": "_initialSize",
          "type": "uint256"
        },
        {
          "internalType": "uint256",
          "name": "_cardsRemaining",
          "type": "uint256"
        },
        {
          "internalType": "uint32",
          "name": "_drawCount",
          "type": "uint32"
        },
        {
          "internalType": "uint32",
          "name": "_shuffleCount",
          "type": "uint32"
        }
      ],
      "stateMutability": "view",
      "type": "function"
    },
    {
      "inputs": [],
      "name": "hub",
      "outputs": [
        {
          "internalType": "address",
          "name": "",
          "type": "address"
        }
      ],
      "stateMutability": "view",
      "type": "function"
    },
    {
      "inputs": [],
      "name": "initialSize",
      "outputs": [
        {
          "internalType": "uint256",
          "name": "",
          "type": "uint256"
        }
      ],
      "stateMutability": "view",
      "type": "function"
    },
    {
      "inputs": [
        {
          "internalType": "address",
          "name": "_hub",
          "type": "address"
        },
        {
          "internalType": "address",
          "name": "_catalog",
          "type": "address"
        },
        {
          "internalType": "uint8[]",
          "name": "_excludedCards",
          "type": "uint8[]"
        },
        {
          "internalType": "uint256",
          "name": "_drawCost",
          "type": "uint256"
        },
        {
          "internalType": "uint256",
          "name": "_shuffleCost",
          "type": "uint256"
        },
        {
          "internalType": "uint256",
          "name": "_peekCost",
          "type": "uint256"
        },
        {
          "internalType": "address",
          "name": "_gameOracle",
          "type": "address"
        }
      ],
      "name": "initialize",
      "outputs": [],
      "stateMutability": "nonpayable",
      "type": "function"
    },
    {
      "inputs": [],
      "name": "initializeDeck",
      "outputs": [],
      "stateMutability": "nonpayable",
      "type": "function"
    },
    {
      "inputs": [],
      "name": "initialized",
      "outputs": [
        {
          "internalType": "bool",
          "name": "",
          "type": "bool"
        }
      ],
      "stateMutability": "view",
      "type": "function"
    },
    {
      "inputs": [],
      "name": "lastShuffleTime",
      "outputs": [
        {
          "internalType": "uint32",
          "name": "",
          "type": "uint32"
        }
      ],
      "stateMutability": "view",
      "type": "function"
    },
    {
      "inputs": [
        {
          "internalType": "uint8",
          "name": "count",
          "type": "uint8"
        }
      ],
      "name": "peekCards",
      "outputs": [],
      "stateMutability": "nonpayable",
      "type": "function"
    },
    {
      "inputs": [],
      "name": "peekCost",
      "outputs": [
        {
          "internalType": "uint256",
          "name": "",
          "type": "uint256"
        }
      ],
      "stateMutability": "view",
      "type": "function"
    },
    {
      "inputs": [
        {
          "internalType": "uint8",
          "name": "count",
          "type": "uint8"
        }
      ],
      "name": "removeCards",
      "outputs": [],
      "stateMutability": "nonpayable",
      "type": "function"
    },
    {
      "inputs": [],
      "name": "shuffleCost",
      "outputs": [
        {
          "internalType": "uint256",
          "name": "",
          "type": "uint256"
        }
      ],
      "stateMutability": "view",
      "type": "function"
    },
    {
      "inputs": [],
      "name": "shuffleCount",
      "outputs": [
        {
          "internalType": "uint32",
          "name": "",
          "type": "uint32"
        }
      ],
      "stateMutability": "view",
      "type": "function"
    },
    {
      "inputs": [],
      "name": "shuffleDeck",
      "outputs": [],
      "stateMutability": "nonpayable",
      "type": "function"
    },
    {
      "inputs": [
        {
          "internalType": "uint256",
          "name": "seed",
          "type": "uint256"
        },
        {
          "internalType": "bytes32",
          "name": "secretHash",
          "type": "bytes32"
        }
      ],
      "name": "updateShuffleSeed",
      "outputs": [],
      "stateMutability": "nonpayable",
      "type": "function"
    }
  ],
  "bytecode": "0x60808060405234601557611be9908161001a8239f35b5f80fdfe6080806040526004361015610012575f80fd5b5f905f3560e01c90816234c8e31461189b57508063074c09eb1461187357806308222d581461184e5780630f831a8f14611829578063158ef93e146118045780631f5e0386146117e7578063210da22b146114d45780632831a949146114b65780632f5be23e1461121d578063365a86fc146111f65780633ed15db3146111da5780634f1989671461119d57806353f0a3391461117f5780636124c0f114611161578063744ae2c514610d5d5780637c067e1014610d3f57806381be016014610afc5780638526f53e14610ae057806388bd5e1e14610ac057806399fb83b514610a7c578063b0a3beaf146107c6578063b87dcd5a146107a8578063bced0d7a1461078c578063e1a9538c1461076e578063e75608cb146106f2578063e92f56cc1461068f578063eba3c03b146103425763ec1b1a4f14610151575f80fd5b3461033f578060031936011261033f5780546001600160a01b03811633036103305760015460ff8160a01c1661032157604051630164c1db60e01b815283816004816001600160a01b0386165afa8015610316578490610250575b6101b69150611aeb565b9160328302928084046032149015171561023c57826003558260045563ffffffff60e01b4260e01b169060018060e01b0316178355600160a01b9060ff60a01b1916176001556040519063ffffffff421682527ff56c9b724258c0eb9f8d555720562c03495fc308a2be5abf7067435e36a58dee602067ffffffffffffffff431693a380f35b634e487b7160e01b84526011600452602484fd5b503d8085833e61026081836118fc565b81019060208183031261030e5780519067ffffffffffffffff821161031257019080601f8301121561030e5781519167ffffffffffffffff83116102fa578260051b90604051936102b460208401866118fc565b84526020808501928201019283116102f657602001905b8282106102de575050506101b6906101ac565b602080916102eb8461194a565b8152019101906102cb565b8680fd5b634e487b7160e01b86526041600452602486fd5b8480fd5b8580fd5b6040513d86823e3d90fd5b63565562fb60e01b8352600483fd5b63058a7c7360e31b8252600482fd5b80fd5b503461033f57602036600319011261033f5760043560ff8116908181036105385760ff60015460a01c1615610680578254604051631006976960e11b81526001600160a01b039091169290602081600481875afa908115610623578591610651575b50600681101561063d5760030361062e57604051635c12cd4b60e01b815233600482015261014081602481875afa908115610623578591610604575b50610100810151156105f55760e081015160058110156105e1576105d25761012001516105c35780156105b45760045490808201918281116105925782106105a6576005546069810290808204606914901517156105925760649161044491611a33565b049260405191638859144560e01b835233600484015261014083602481855afa928315610587578693610556575b5060208301858151106105475780518690039052600455849190803b156105385760405163153e962760e21b815291839183918290849082906104b9903360048401611a46565b03925af1801561053c57610523575b50506004546040805160ff90931683526020830193909352918101919091524263ffffffff16606082015233907f203538c6ff3a74d7261abca1c74872c158a975bc6c9aca0d6b414a8ecabd7f5a9080608081015b0390a280f35b8161052d916118fc565b61053857825f6104c8565b8280fd5b6040513d84823e3d90fd5b6376208d7360e11b8752600487fd5b6105799193506101403d8111610580575b61057181836118fc565b810190611965565b915f610472565b503d610567565b6040513d88823e3d90fd5b634e487b7160e01b86526011600452602486fd5b62fc139f60e81b8552600485fd5b631a49577b60e11b8452600484fd5b63d2a7a4d360e01b8452600484fd5b6396ba997560e01b8552600485fd5b634e487b7160e01b86526021600452602486fd5b632a645edb60e01b8552600485fd5b61061d91506101403d81116105805761057181836118fc565b5f6103e0565b6040513d87823e3d90fd5b631d042a8d60e11b8452600484fd5b634e487b7160e01b85526021600452602485fd5b610673915060203d602011610679575b61066b81836118fc565b810190611932565b5f6103a4565b503d610661565b63c19e87bd60e01b8352600483fd5b503461033f57602036600319011261033f576004359060ff821680920361033f57600554906069820291808304606914901517156106de57602060646106d58585611a33565b04604051908152f35b634e487b7160e01b81526011600452602490fd5b503461033f57604036600319011261033f5760025460043590602435906001600160a01b0316330361075f5760407f7302e8206d08fb1cd6713b51cdd9ae4e5bb2728a7b5f51adc510e7874ccfbf69918360085580600955815190815263ffffffff42166020820152a280f35b632147550760e01b8352600483fd5b503461033f578060031936011261033f576020600554604051908152f35b503461033f578060031936011261033f57602060405160698152f35b503461033f578060031936011261033f576020600454604051908152f35b503461033f578060031936011261033f5760ff60015460a01c1615610a6d578054604051631006976960e11b81526001600160a01b0382169190602081600481865afa908115610316578491610a4e575b506006811015610a3a57600303610a2b57604051635c12cd4b60e01b815233600482015261014081602481865afa908115610316578491610a0c575b50610100810151156109fd5760e0810151600581101561063d576109ee5761012001516109df57600454156109d0576006549160405191638859144560e01b835233600484015261014083602481855afa9283156106235785936109af575b5060208301848151106109a057805185900390526001600160c01b03811660c091821c63ffffffff1660010190911b63ffffffff60c01b16174260e01b6001600160e01b031916178455839190803b156105385760405163153e962760e21b8152918391839182908490829061092c903360048401611a46565b03925af1801561053c57610987575b5063ffffffff905460c01c16604051918252602082015263ffffffff421660408201527f94a23e44957fa5206acd71a9aadfad2a35d36e8032665c705c8c4819ebff22f460603392a280f35b81610991916118fc565b61099c57815f61093b565b5080fd5b6376208d7360e11b8652600486fd5b6109c99193506101403d81116105805761057181836118fc565b915f6108b2565b63171a7cf760e31b8352600483fd5b63d2a7a4d360e01b8352600483fd5b6396ba997560e01b8452600484fd5b632a645edb60e01b8452600484fd5b610a2591506101403d81116105805761057181836118fc565b5f610853565b631d042a8d60e11b8352600483fd5b634e487b7160e01b84526021600452602484fd5b610a67915060203d6020116106795761066b81836118fc565b5f610817565b63c19e87bd60e01b8152600490fd5b503461033f578060031936011261033f5760809063ffffffff600354916004549054906040519384526020840152818160a01c16604084015260c01c166060820152f35b503461033f578060031936011261033f576020905460e01c604051908152f35b503461033f578060031936011261033f57602060405160058152f35b503461033f57602036600319011261033f5760043560ff811680910361099c5760ff60015460a01c1615610d30578154604051631006976960e11b81526001600160a01b0390911690602081600481855afa908115610316578491610d11575b506006811015610a3a57600303610a2b57604051635c12cd4b60e01b815233600482015261014081602481855afa908115610316578491610cf2575b50610100810151156109fd5760e0810151600581101561063d576109ee5761012001516109df5781158015610ce8575b610cd95781600454106109d057610be182600754611a33565b604051638859144560e01b8152336004820152909161014082602481845afa918215610623578592610cb8575b5060208201838151106109a05790818487949351039052803b156105385760405163153e962760e21b81529183918391829084908290610c52903360048401611a46565b03925af1801561053c57610ca3575b5050604051918252602082015263ffffffff421660408201527f3b140c46a6805f1da3e7f57c7bf04663b5259087ed48db84720867d29a0d0e4260603392a280f35b81610cad916118fc565b61053857825f610c61565b610cd29192506101403d81116105805761057181836118fc565b905f610c0e565b637c08f69d60e11b8352600483fd5b5060058211610bc8565b610d0b91506101403d81116105805761057181836118fc565b5f610b98565b610d2a915060203d6020116106795761066b81836118fc565b5f610b5c565b63c19e87bd60e01b8252600482fd5b503461033f578060031936011261033f576020600954604051908152f35b503461033f5760e036600319011261033f576004356001600160a01b0381169081900361099c576024356001600160a01b038116908190036105385760443567ffffffffffffffff811161115d573660238201121561115d5780600401359167ffffffffffffffff831161030e573660248460051b8401011161030e5760a43590608435906064359060c4356001600160a01b0381169190829003611159575f516020611b945f395f51905f52549760ff8960401c16159867ffffffffffffffff811680159081611151575b6001149081611147575b15908161113e575b5061112f5767ffffffffffffffff1981166001175f516020611b945f395f51905f525589611103575b50801580156110fb575b80156110f3575b6110e457831580156110dc575b80156110d4575b6110c557603288116110b6576001600160601b0360a01b8a54161789556001600160601b0360a01b60015416176001556001600160601b0360a01b60025416176002556005556006556007556801000000000000000082116110a257600a5482600a55808310611018575b5060240190600a84528060051c90845b828110610fd65750601f198116900380610f7b575b505050610f235780f35b68ff0000000000000000195f516020611b945f395f51905f5254165f516020611b945f395f51905f52557fc7f505b2f371ae2175ee4913f4499e1f2633a7b5936321eed1cdaeb6115181d2602060405160018152a180f35b918492855b818110610fa2575050505f516020611b745f395f51905f5201555f8080610f19565b9091936020610fcc60019284610fb789611add565b919060ff809160031b9316831b921b19161790565b9501929101610f80565b85865b60208110610ffb57505f516020611b745f395f51905f52820155600101610f04565b9490602061100f60019288610fb786611add565b92019501610fd9565b601f80840160051c910160051c5f516020611b745f395f51905f520190601f841680611068575b505f516020611b745f395f51905f52015b81811061105d5750610ef4565b858155600101611050565b7fc65a7bb8d6351c1cf70c95a316cc6a92839c986682d98bc35f958f4883f9d2a78201908154905f199060200360031b1c1690555f61103f565b634e487b7160e01b84526041600452602484fd5b634045469360e01b8a5260048afd5b63d7ba92d360e01b8a5260048afd5b508515610e89565b508415610e82565b63e6c4247b60e01b8a5260048afd5b508215610e75565b508115610e6e565b68ffffffffffffffffff191668010000000000000001175f516020611b945f395f51905f52555f610e64565b63f92ee8a960e01b8b5260048bfd5b9050155f610e3b565b303b159150610e33565b8b9150610e29565b8880fd5b8380fd5b503461033f578060031936011261033f576020600354604051908152f35b503461033f578060031936011261033f576020600854604051908152f35b503461033f57602036600319011261033f5760043590600a5482101561033f57602060ff6111ca846118be565b90549060031b1c16604051908152f35b503461033f578060031936011261033f57602060405160328152f35b503461033f578060031936011261033f57546040516001600160a01b039091168152602090f35b503461033f578060031936011261033f5760ff60015460a01c1615610a6d578054604051631006976960e11b81526001600160a01b038216929190602081600481875afa908115611469578391611497575b5060068110156114835760030361147457604051635c12cd4b60e01b815233600482015261014081602481875afa90811561146957839161144a575b506101008101511561143b5760e08101516005811015610a3a5761142c57610120015161141d576004549283156109d057604051638859144560e01b81523360048201529161014083602481855afa9283156103165784936113fc575b5060208301948551956005548097106109a057859681510390525f190160045563ffffffff60a01b600163ffffffff8360a01c160160a01b169063ffffffff60a01b1916178355803b156113f85760405163153e962760e21b8152918391839182908490829061137c903360048401611a46565b03925af1801561053c576113e3575b5060055463ffffffff825460a01c16600454906040519283526020830152604082015263ffffffff421660608201527f34cb79d751c66533d41263dea59526883bd193cb2818aa2888cb607593d6d82e60803392a280f35b816113ed916118fc565b61033f57805f61138b565b5050fd5b6114169193506101403d81116105805761057181836118fc565b915f611308565b63d2a7a4d360e01b8252600482fd5b6396ba997560e01b8352600483fd5b632a645edb60e01b8352600483fd5b61146391506101403d81116105805761057181836118fc565b5f6112ab565b6040513d85823e3d90fd5b631d042a8d60e11b8252600482fd5b634e487b7160e01b83526021600452602483fd5b6114b0915060203d6020116106795761066b81836118fc565b5f61126f565b503461033f578060031936011261033f576020600654604051908152f35b50346116e45760203660031901126116e45760043560ff8116908181036116e45760ff60015460a01c16156117d8575f54604051631006976960e11b81526001600160a01b0390911690602081600481855afa9081156116d9575f916117b9575b506006811015611768576003036117aa57604051635c12cd4b60e01b815233600482015261014081602481855afa9081156116d9575f9161178b575b506101008101511561177c5760e081015160058110156117685761175957610120015161174a57821561173b576004549083821061172c57600554606981029080820460691490151715611718576115cb85606492611a33565b049360405192638859144560e01b845233600485015261014084602481865afa9384156116d9575f946116f7575b5060208401868151106116e85786815103905203600455803b156116e45760405163153e962760e21b8152915f91839182908490829061163d903360048401611a46565b03925af180156116d9576116a4575b506004546040805160ff90931683526020830193909352918101919091524263ffffffff16606082015233907f5319c766f3b340dccbea6a0e30704810ff08a0a9add63837f494e82ddaff909490806080810161051d565b6116b19193505f906118fc565b5f917f5319c766f3b340dccbea6a0e30704810ff08a0a9add63837f494e82ddaff909461164c565b6040513d5f823e3d90fd5b5f80fd5b6376208d7360e11b5f5260045ffd5b6117119194506101403d81116105805761057181836118fc565b925f6115f9565b634e487b7160e01b5f52601160045260245ffd5b63171a7cf760e31b5f5260045ffd5b631a49577b60e11b5f5260045ffd5b63d2a7a4d360e01b5f5260045ffd5b6396ba997560e01b5f5260045ffd5b634e487b7160e01b5f52602160045260245ffd5b632a645edb60e01b5f5260045ffd5b6117a491506101403d81116105805761057181836118fc565b5f611571565b631d042a8d60e11b5f5260045ffd5b6117d2915060203d6020116106795761066b81836118fc565b5f611535565b63c19e87bd60e01b5f5260045ffd5b346116e4575f3660031901126116e4576020600754604051908152f35b346116e4575f3660031901126116e457602060ff60015460a01c166040519015158152f35b346116e4575f3660031901126116e457602063ffffffff5f5460c01c16604051908152f35b346116e4575f3660031901126116e457602063ffffffff5f5460a01c16604051908152f35b346116e4575f3660031901126116e4576001546040516001600160a01b039091168152602090f35b346116e4575f3660031901126116e4576002546001600160a01b03168152602090f35b90600a548210156118e857600a5f52600582901c5f516020611b745f395f51905f520191601f1690565b634e487b7160e01b5f52603260045260245ffd5b90601f8019910116810190811067ffffffffffffffff82111761191e57604052565b634e487b7160e01b5f52604160045260245ffd5b908160209103126116e4575160068110156116e45790565b519060ff821682036116e457565b519081151582036116e457565b90816101409103126116e45760405190610140820182811067ffffffffffffffff82111761191e57604052805182526020810151602083015260408101516040830152606081015163ffffffff811681036116e4576060830152608081015161ffff811681036116e45760808301526119e060a0820161194a565b60a08301526119f160c0820161194a565b60c083015260e081015160058110156116e457611a2a916101209160e0850152611a1e6101008201611958565b61010085015201611958565b61012082015290565b8181029291811591840414171561171857565b90929161016082019360018060a01b0316825280516020830152602081015160408301526040810151606083015263ffffffff606082015116608083015261ffff60808201511660a083015260ff60a08201511660c083015260ff60c08201511660e083015260e0810151600581101561176857610140916101209161010085015261010081015115158285015201511515910152565b3560ff811681036116e45790565b905f918051600a548015611b6d575f5b828110611b085750505050565b5f5f5b838110611b2d575b5015611b22575b600101611afb565b600190950194611b1a565b85518310156118e85760ff60208460051b880101511660ff611b4e836118be565b90549060031b1c1614611b6357600101611b0b565b505060015f611b13565b5092505056fec65a7bb8d6351c1cf70c95a316cc6a92839c986682d98bc35f958f4883f9d2a8f0c57e16840df040f15088dc2f81fe391c3923bec73e23a9662efc9c229c6a00a2646970667358221220070c306c4ecec3705048ef3ca719466a88ead1631dcbdcb98d9f227e963bffc464736f6c634300081c0033",
  "linkReferences": {},
  "deployedLinkReferences": {},
  "immutableReferences": {},
  "inputSourceName": "project/contracts/tournament/modules/mystery-deck/TournamentMysteryDeck.sol",
  "buildInfoId": "solc-0_8_28-d5b9a684c498397b8c02979daa8f3980deff682f"
}