{
  "_format": "hh3-artifact-1",
  "contractName": "TournamentPlayerActions",
  "sourceName": "contracts/tournament/core/libraries/player-actions/PlayerActions.sol",
  "abi": [
    {
      "inputs": [
        {
          "internalType": "address",
          "name": "token",
          "type": "address"
        }
      ],
      "name": "SafeERC20FailedOperation",
      "type": "error"
    },
    {
      "inputs": [],
      "name": "StakeTooHigh",
      "type": "error"
    },
    {
      "inputs": [],
      "name": "StakeTooLow",
      "type": "error"
    },
    {
      "inputs": [],
      "name": "TournamentFull",
      "type": "error"
    },
    {
      "anonymous": false,
      "inputs": [
        {
          "indexed": true,
          "internalType": "address",
          "name": "player",
          "type": "address"
        },
        {
          "indexed": false,
          "internalType": "uint256",
          "name": "decayAmount",
          "type": "uint256"
        },
        {
          "indexed": false,
          "internalType": "uint256",
          "name": "remainingCoins",
          "type": "uint256"
        }
      ],
      "name": "DecayApplied",
      "type": "event"
    },
    {
      "anonymous": false,
      "inputs": [
        {
          "indexed": true,
          "internalType": "address",
          "name": "player",
          "type": "address"
        },
        {
          "indexed": false,
          "internalType": "uint32",
          "name": "timestamp",
          "type": "uint32"
        }
      ],
      "name": "PlayerExited",
      "type": "event"
    },
    {
      "anonymous": false,
      "inputs": [
        {
          "indexed": true,
          "internalType": "address",
          "name": "player",
          "type": "address"
        },
        {
          "indexed": false,
          "internalType": "uint256",
          "name": "penaltyAmount",
          "type": "uint256"
        },
        {
          "indexed": false,
          "internalType": "uint256",
          "name": "refundAmount",
          "type": "uint256"
        },
        {
          "indexed": false,
          "internalType": "uint32",
          "name": "timestamp",
          "type": "uint32"
        }
      ],
      "name": "PlayerForfeited",
      "type": "event"
    },
    {
      "anonymous": false,
      "inputs": [
        {
          "indexed": true,
          "internalType": "address",
          "name": "player",
          "type": "address"
        },
        {
          "indexed": false,
          "internalType": "uint256",
          "name": "stakeAmount",
          "type": "uint256"
        },
        {
          "indexed": false,
          "internalType": "uint256",
          "name": "initialCoins",
          "type": "uint256"
        },
        {
          "indexed": false,
          "internalType": "uint32",
          "name": "timestamp",
          "type": "uint32"
        }
      ],
      "name": "PlayerJoined",
      "type": "event"
    },
    {
      "inputs": [
        {
          "internalType": "uint256",
          "name": "minStake",
          "type": "uint256"
        },
        {
          "internalType": "uint256",
          "name": "maxStake",
          "type": "uint256"
        },
        {
          "internalType": "uint16",
          "name": "maxPlayers",
          "type": "uint16"
        },
        {
          "internalType": "uint256",
          "name": "stakeAmount",
          "type": "uint256"
        },
        {
          "internalType": "uint16",
          "name": "playerCount",
          "type": "uint16"
        }
      ],
      "name": "validateEntry",
      "outputs": [],
      "stateMutability": "pure",
      "type": "function"
    }
  ],
  "bytecode": "0x60808060405234601b5761063590816100208239308160070152f35b5f80fdfe6080604052307f0000000000000000000000000000000000000000000000000000000000000000146004361015610034575f80fd5b5f3560e01c80630bf37c5e146104745780631b454fd1146103a6578063296a9f841461032c5780633bcbcdb2146102105763aad8cfde14610073575f80fd5b61020c5760e036600319011261020c5760043561008e610527565b61009661053d565b906064359160843564ffffffffff811680910361020c5760a4359160ff8316830361020c5760c4359160ff831680930361020c576040516323b872dd60e01b60208201526001600160a01b039092166024830181905230604484015260648084018890528352946101249261011e91610110608483610566565b6001600160a01b031661059c565b85610553565b93600363ffffffff421696868155866001820155826002820155019563ffffffff811663ffffffff19885416178755600387549302908160ff8116036101f8576affffffffff0000000000001990931660309490941b66ff000000000000169390931760389390931b67ff00000000000000169290921769010000000000000000001790945560408051918252602082810185905263ffffffff909516908201527fe050addbd650d7eef0777381210dad993c391a160dc56180004e94ef5721dbe09080606081015b0390a2604051908152f35b634e487b7160e01b5f52601160045260245ffd5b5f80fd5b5061020c57608036600319011261020c5760043561022c610527565b60643563ffffffff811680910361020c5763ffffffff421690600384019063ffffffff808354168403169080156103185763ffffffff910416938461026d57005b6001019161027f835495604435610553565b94858111156102e0579163ffffffff60409492877f0aa9e08e33a43066ca3a701246ca022e44556ae33c0e5d1a6803a89a13ed1f1197950380945b55825463ffffffff19169116179055825194855260208501526001600160a01b031692a2005b6040939195509163ffffffff7f0aa9e08e33a43066ca3a701246ca022e44556ae33c0e5d1a6803a89a13ed1f119593965f80946102ba565b634e487b7160e01b5f52601260045260245ffd5b5061020c57604036600319011261020c57610345610527565b600435600301805468ff00000000000000001916680100000000000000001790556040514263ffffffff1681526001600160a01b03909116907ffdb75f4f4bb2d37a16735844b44c7923f8d6da52f5c2a18b4cf53ec2f689214f90602090a2005b5061020c57608036600319011261020c5760206004356103c4610527565b7fe23233edb742d74386a0e57f86bfc0c61b9cf8afc09231119b1c298f553290fa6101ed6103f061053d565b6104516064359160038360028901540397016802000000000000000068ff0000000000000000198254161790556040519063a9059cbb60e01b8983015260018060a01b03169586602483015287604483015260448252610110606483610566565b60408051918252602082018690524263ffffffff16908201529081906060820190565b60a036600319011261020c576004356024356044359061ffff821680920361020c57606435906084359361ffff851680950361020c57801515908161051d575b5061050e578015159182610504575b50506104f55780151591826104ea575b50506104db57005b633b6d517f60e01b5f5260045ffd5b1015905081806104d3565b63735b16e360e01b5f5260045ffd5b11905083806104c3565b631cc3b37b60e01b5f5260045ffd5b90508210856104b4565b602435906001600160a01b038216820361020c57565b604435906001600160a01b038216820361020c57565b818102929181159184041417156101f857565b90601f8019910116810190811067ffffffffffffffff82111761058857604052565b634e487b7160e01b5f52604160045260245ffd5b905f602091828151910182855af1156105f4575f513d6105eb57506001600160a01b0381163b155b6105cb5750565b635274afe760e01b5f9081526001600160a01b0391909116600452602490fd5b600114156105c4565b6040513d5f823e3d90fdfea26469706673582212209ff1e59d66315c0efe2396934c2fad921957427426436fe4dd998424d8cbbf5c64736f6c634300081c0033",
  "linkReferences": {},
  "deployedLinkReferences": {},
  "immutableReferences": {
    "library_deploy_address": [
      {
        "length": 32,
        "start": 7
      }
    ]
  },
  "inputSourceName": "project/contracts/tournament/core/libraries/player-actions/PlayerActions.sol",
  "buildInfoId": "solc-0_8_28-2cf35b0e073bdf54964453b8aef8336d4e6d685c"
}