{
  "_format": "hh3-artifact-1",
  "contractName": "TournamentLifecycle",
  "sourceName": "contracts/tournament/core/libraries/lifecycle/Lifecycle.sol",
  "abi": [
    {
      "anonymous": false,
      "inputs": [
        {
          "indexed": true,
          "internalType": "address",
          "name": "platformAdmin",
          "type": "address"
        },
        {
          "indexed": false,
          "internalType": "uint256",
          "name": "timestamp",
          "type": "uint256"
        }
      ],
      "name": "EmergencyCancellation",
      "type": "event"
    },
    {
      "anonymous": false,
      "inputs": [
        {
          "indexed": false,
          "internalType": "uint32",
          "name": "timestamp",
          "type": "uint32"
        }
      ],
      "name": "TournamentCancelled",
      "type": "event"
    },
    {
      "anonymous": false,
      "inputs": [
        {
          "indexed": false,
          "internalType": "uint256",
          "name": "winnerCount",
          "type": "uint256"
        },
        {
          "indexed": false,
          "internalType": "uint256",
          "name": "prizePool",
          "type": "uint256"
        },
        {
          "indexed": false,
          "internalType": "uint32",
          "name": "timestamp",
          "type": "uint32"
        }
      ],
      "name": "TournamentEnded",
      "type": "event"
    },
    {
      "anonymous": false,
      "inputs": [
        {
          "indexed": false,
          "internalType": "uint32",
          "name": "timestamp",
          "type": "uint32"
        }
      ],
      "name": "TournamentLocked",
      "type": "event"
    },
    {
      "anonymous": false,
      "inputs": [
        {
          "indexed": false,
          "internalType": "uint32",
          "name": "timestamp",
          "type": "uint32"
        }
      ],
      "name": "TournamentPendingStart",
      "type": "event"
    },
    {
      "anonymous": false,
      "inputs": [
        {
          "indexed": false,
          "internalType": "uint32",
          "name": "timestamp",
          "type": "uint32"
        }
      ],
      "name": "TournamentRevertedToOpen",
      "type": "event"
    },
    {
      "anonymous": false,
      "inputs": [
        {
          "indexed": false,
          "internalType": "uint32",
          "name": "startTime",
          "type": "uint32"
        },
        {
          "indexed": false,
          "internalType": "uint32",
          "name": "endTime",
          "type": "uint32"
        },
        {
          "indexed": false,
          "internalType": "uint32",
          "name": "exitWindowStart",
          "type": "uint32"
        }
      ],
      "name": "TournamentStarted",
      "type": "event"
    },
    {
      "anonymous": false,
      "inputs": [
        {
          "indexed": false,
          "internalType": "uint32",
          "name": "timestamp",
          "type": "uint32"
        }
      ],
      "name": "TournamentUnlocked",
      "type": "event"
    },
    {
      "inputs": [
        {
          "internalType": "uint16",
          "name": "startPlayerCount",
          "type": "uint16"
        },
        {
          "internalType": "uint256",
          "name": "startPoolAmount",
          "type": "uint256"
        },
        {
          "internalType": "uint16",
          "name": "currentPlayerCount",
          "type": "uint16"
        },
        {
          "internalType": "uint256",
          "name": "currentTotalStaked",
          "type": "uint256"
        }
      ],
      "name": "areStartConditionsMet",
      "outputs": [
        {
          "internalType": "bool",
          "name": "",
          "type": "bool"
        }
      ],
      "stateMutability": "pure",
      "type": "function"
    }
  ],
  "bytecode": "0x60808060405234601b576107fe908161002082393081607b0152f35b5f80fdfe6080806040526004361015610012575f80fd5b5f905f3560e01c90816363a207c514610077575063e80cf7fc14610034575f80fd5b6080366003190112610074576004359061ffff8216820361007457602061006a8361005d610737565b6064359160243590610779565b6040519015158152f35b80fd5b82307f0000000000000000000000000000000000000000000000000000000000000000146106c55760a03660031901126106c5576004359160068310156106c55760243567ffffffffffffffff81116106c55761038060031982360301126106c557610380820182811067ffffffffffffffff8211176106f05760405261010081600401610726565b825261010e60248201610726565b936020830194855261012260448301610726565b6040840190815261013560648401610748565b606085015261014660848401610748565b956080850196875261015a60a48501610748565b9060a0860191825260c086019460c4810135865261017a60e48201610757565b60e088015261010481013561010088015261012481013561012088015261014481013564ffffffffff811681036106c5576101408801526101648101356101608801526101ca610184820161076b565b6101808801526101dd6101a4820161076b565b6101a08801526101f06101c4820161076b565b6101c08801526102036101e48201610748565b6101e08801526102166102048201610748565b610200880152610229610224820161076b565b61022088015261023c610244820161076b565b61024088015261026481013580151581036106c55761026088015261028481013560028110156106c5576102808801526102796102a4820161076b565b6102a088015261028c6102c4820161076b565b6102c088015261029f6102e48201610757565b6102e088015261030481013567ffffffffffffffff81116106c5578101366023820112156106c55760048101359067ffffffffffffffff82116106f0578160051b604051926102f16020830185610704565b835281016024019060208301903683116106c557602401905b8282106106d8575050506103008801526103248101356103208801526103448101356103408801526103640135610360870152610345610737565b946084356001600160a01b03811691908290036106c5575f965f985f9b8880159182610621575b508115610616575b506103c6575b505050505050506040519360068210156103b2575063ffffffff92836080969381938752166020860152166040840152166060820152f35b634e487b7160e01b81526021600452602490fd5b5163ffffffff164210156103db575b8061037a565b90918096509994999793979692963b15610607576040516375f9d01760e11b8152600260048201528981602481838b5af1801561060b57908a916105f2575b5050906104639161ffff63ffffffff4216997fa6ceab71987e5374313d9a24d5bd51f40eb7468292b0d56587beeb94e505d3ab60206040518d8152a15116606435925190610779565b1561056f5750505063ffffffff8060039351169551169483019463ffffffff861161055b5763ffffffff86169081039163ffffffff831161054757803b15610543578580916024604051809481936375f9d01760e11b83528960048401525af180156105385790869161051f575b505060607f3d19a9a94b29f7d6f771ebc76b24b6bd5b11369c3e346ccd7e5ebbc3b35140009160405190868252602082015263ffffffff84166040820152a19391905b8580808080806103d5565b8161052991610704565b6105345784876104d1565b8480fd5b6040513d88823e3d90fd5b8580fd5b634e487b7160e01b86526011600452602486fd5b634e487b7160e01b85526011600452602485fd5b935093909550600591803b15610543578580916024604051809481936375f9d01760e11b83528860048401525af18015610538579086916105dd575b505060207f7127d26ff092e92df2f9fb669dd76b28577bbd8ff5760add000052610b23382791604051908152a1610514565b816105e791610704565b6105345784876105ab565b816105fc91610704565b61060757888b61041a565b8880fd5b6040513d8c823e3d90fd5b60019150148d610374565b5161ffff1680151590816106c9575b5061063c575b8e61036c565b60019950853b156106c5576040516375f9d01760e11b8152600481018b90525f81602481838b5af180156106ba576106a5575b507f5b66550bf4dade43f22814065cd0b333ccff42b10d5252e3b5fd07e966c2dd17602060405163ffffffff42168152a1610636565b6106b2919d505f90610704565b5f9b8e61066f565b6040513d5f823e3d90fd5b5f80fd5b905061ffff851610158f610630565b602080916106e58461076b565b81520191019061030a565b634e487b7160e01b5f52604160045260245ffd5b90601f8019910116810190811067ffffffffffffffff8211176106f057604052565b359063ffffffff821682036106c557565b6044359061ffff821682036106c557565b359061ffff821682036106c557565b35906001600160a01b03821682036106c557565b359060ff821682036106c557565b61ffff909291921680151591826107ba575b50506107b45780151591826107aa575b50506107a657600190565b5f90565b1090505f8061079b565b50505f90565b61ffff161090505f8061078b56fea26469706673582212209f7030a0838d1ac13494688d5d08dd7675e4526d8ceb5b4017bf4867c87ad92e64736f6c634300081c0033",
  "linkReferences": {},
  "deployedLinkReferences": {},
  "immutableReferences": {
    "library_deploy_address": [
      {
        "length": 32,
        "start": 123
      }
    ]
  },
  "inputSourceName": "project/contracts/tournament/core/libraries/lifecycle/Lifecycle.sol",
  "buildInfoId": "solc-0_8_28-242543c7be063b3ecbc32dbe644b60a0f1fe2c44"
}