{
  "_format": "hh3-artifact-1",
  "contractName": "TournamentRandomizer",
  "sourceName": "contracts/tournament/modules/randomizer/TournamentRandomizer.sol",
  "abi": [
    {
      "inputs": [],
      "name": "AlreadyRevealed",
      "type": "error"
    },
    {
      "inputs": [],
      "name": "InsufficientFee",
      "type": "error"
    },
    {
      "inputs": [],
      "name": "InvalidAddress",
      "type": "error"
    },
    {
      "inputs": [],
      "name": "InvalidInitialization",
      "type": "error"
    },
    {
      "inputs": [],
      "name": "NotInitializing",
      "type": "error"
    },
    {
      "inputs": [],
      "name": "RandomizerMysteryDeckAlreadySet",
      "type": "error"
    },
    {
      "inputs": [],
      "name": "RandomizerOnlyHub",
      "type": "error"
    },
    {
      "inputs": [],
      "name": "RandomizerOnlyOracle",
      "type": "error"
    },
    {
      "inputs": [],
      "name": "RandomizerOnlyPlatformAdmin",
      "type": "error"
    },
    {
      "inputs": [],
      "name": "RandomizerUnauthorized",
      "type": "error"
    },
    {
      "inputs": [],
      "name": "RequestAlreadyCancelled",
      "type": "error"
    },
    {
      "inputs": [],
      "name": "RequestAlreadyFulfilled",
      "type": "error"
    },
    {
      "inputs": [],
      "name": "RequestNotFound",
      "type": "error"
    },
    {
      "inputs": [],
      "name": "TimeoutNotReached",
      "type": "error"
    },
    {
      "inputs": [],
      "name": "TournamentNotEnded",
      "type": "error"
    },
    {
      "anonymous": false,
      "inputs": [
        {
          "indexed": false,
          "internalType": "bytes32",
          "name": "completeSeed",
          "type": "bytes32"
        },
        {
          "indexed": false,
          "internalType": "bytes32",
          "name": "backendSecret",
          "type": "bytes32"
        },
        {
          "indexed": false,
          "internalType": "uint32",
          "name": "timestamp",
          "type": "uint32"
        }
      ],
      "name": "CompleteSeedRevealed",
      "type": "event"
    },
    {
      "anonymous": false,
      "inputs": [
        {
          "indexed": false,
          "internalType": "uint64",
          "name": "version",
          "type": "uint64"
        }
      ],
      "name": "Initialized",
      "type": "event"
    },
    {
      "anonymous": false,
      "inputs": [
        {
          "indexed": true,
          "internalType": "address",
          "name": "mysteryDeck",
          "type": "address"
        }
      ],
      "name": "MysteryDeckSet",
      "type": "event"
    },
    {
      "anonymous": false,
      "inputs": [
        {
          "indexed": true,
          "internalType": "address",
          "name": "oracle",
          "type": "address"
        }
      ],
      "name": "OracleRoleGranted",
      "type": "event"
    },
    {
      "anonymous": false,
      "inputs": [
        {
          "indexed": true,
          "internalType": "address",
          "name": "oracle",
          "type": "address"
        }
      ],
      "name": "OracleRoleRevoked",
      "type": "event"
    },
    {
      "anonymous": false,
      "inputs": [
        {
          "indexed": true,
          "internalType": "uint64",
          "name": "sequenceNumber",
          "type": "uint64"
        },
        {
          "indexed": false,
          "internalType": "uint256",
          "name": "seedIndex",
          "type": "uint256"
        },
        {
          "indexed": true,
          "internalType": "bytes32",
          "name": "seed",
          "type": "bytes32"
        },
        {
          "indexed": false,
          "internalType": "uint32",
          "name": "timestamp",
          "type": "uint32"
        }
      ],
      "name": "SeedGenerated",
      "type": "event"
    },
    {
      "anonymous": false,
      "inputs": [
        {
          "indexed": true,
          "internalType": "uint64",
          "name": "sequenceNumber",
          "type": "uint64"
        },
        {
          "indexed": false,
          "internalType": "uint32",
          "name": "timestamp",
          "type": "uint32"
        }
      ],
      "name": "SeedRequestCancelled",
      "type": "event"
    },
    {
      "anonymous": false,
      "inputs": [
        {
          "indexed": true,
          "internalType": "uint64",
          "name": "sequenceNumber",
          "type": "uint64"
        },
        {
          "indexed": true,
          "internalType": "address",
          "name": "requester",
          "type": "address"
        },
        {
          "indexed": false,
          "internalType": "uint256",
          "name": "seedIndex",
          "type": "uint256"
        },
        {
          "indexed": false,
          "internalType": "uint32",
          "name": "timestamp",
          "type": "uint32"
        }
      ],
      "name": "SeedRequested",
      "type": "event"
    },
    {
      "inputs": [],
      "name": "SEED_REQUEST_TIMEOUT",
      "outputs": [
        {
          "internalType": "uint32",
          "name": "",
          "type": "uint32"
        }
      ],
      "stateMutability": "view",
      "type": "function"
    },
    {
      "inputs": [
        {
          "internalType": "uint64",
          "name": "sequence",
          "type": "uint64"
        },
        {
          "internalType": "address",
          "name": "provider",
          "type": "address"
        },
        {
          "internalType": "bytes32",
          "name": "randomNumber",
          "type": "bytes32"
        }
      ],
      "name": "_entropyCallback",
      "outputs": [],
      "stateMutability": "nonpayable",
      "type": "function"
    },
    {
      "inputs": [
        {
          "internalType": "uint64",
          "name": "sequenceNumber",
          "type": "uint64"
        }
      ],
      "name": "cancelFailedSeedRequest",
      "outputs": [],
      "stateMutability": "nonpayable",
      "type": "function"
    },
    {
      "inputs": [],
      "name": "entropy",
      "outputs": [
        {
          "internalType": "contract IEntropy",
          "name": "",
          "type": "address"
        }
      ],
      "stateMutability": "view",
      "type": "function"
    },
    {
      "inputs": [],
      "name": "entropyProvider",
      "outputs": [
        {
          "internalType": "address",
          "name": "",
          "type": "address"
        }
      ],
      "stateMutability": "view",
      "type": "function"
    },
    {
      "inputs": [],
      "name": "getFee",
      "outputs": [
        {
          "internalType": "uint256",
          "name": "",
          "type": "uint256"
        }
      ],
      "stateMutability": "view",
      "type": "function"
    },
    {
      "inputs": [],
      "name": "getSeedCount",
      "outputs": [
        {
          "internalType": "uint256",
          "name": "",
          "type": "uint256"
        }
      ],
      "stateMutability": "view",
      "type": "function"
    },
    {
      "inputs": [
        {
          "internalType": "uint64",
          "name": "sequenceNumber",
          "type": "uint64"
        }
      ],
      "name": "getSeedRequest",
      "outputs": [
        {
          "components": [
            {
              "internalType": "address",
              "name": "requester",
              "type": "address"
            },
            {
              "internalType": "uint32",
              "name": "timestamp",
              "type": "uint32"
            },
            {
              "internalType": "bool",
              "name": "fulfilled",
              "type": "bool"
            },
            {
              "internalType": "bool",
              "name": "cancelled",
              "type": "bool"
            }
          ],
          "internalType": "struct TournamentRandomizer.SeedRequest",
          "name": "",
          "type": "tuple"
        }
      ],
      "stateMutability": "view",
      "type": "function"
    },
    {
      "inputs": [
        {
          "internalType": "address",
          "name": "o",
          "type": "address"
        }
      ],
      "name": "grantOracleRole",
      "outputs": [],
      "stateMutability": "nonpayable",
      "type": "function"
    },
    {
      "inputs": [
        {
          "internalType": "address",
          "name": "",
          "type": "address"
        }
      ],
      "name": "hasOracleRole",
      "outputs": [
        {
          "internalType": "bool",
          "name": "",
          "type": "bool"
        }
      ],
      "stateMutability": "view",
      "type": "function"
    },
    {
      "inputs": [],
      "name": "hub",
      "outputs": [
        {
          "internalType": "address",
          "name": "",
          "type": "address"
        }
      ],
      "stateMutability": "view",
      "type": "function"
    },
    {
      "inputs": [
        {
          "internalType": "address",
          "name": "_hub",
          "type": "address"
        },
        {
          "internalType": "address",
          "name": "_pythEntropy",
          "type": "address"
        },
        {
          "internalType": "address",
          "name": "_entropyProvider",
          "type": "address"
        },
        {
          "internalType": "address",
          "name": "_admin",
          "type": "address"
        },
        {
          "internalType": "address",
          "name": "_oracle",
          "type": "address"
        }
      ],
      "name": "initialize",
      "outputs": [],
      "stateMutability": "nonpayable",
      "type": "function"
    },
    {
      "inputs": [],
      "name": "isRevealed",
      "outputs": [
        {
          "internalType": "bool",
          "name": "",
          "type": "bool"
        }
      ],
      "stateMutability": "view",
      "type": "function"
    },
    {
      "inputs": [],
      "name": "mysteryDeck",
      "outputs": [
        {
          "internalType": "address",
          "name": "",
          "type": "address"
        }
      ],
      "stateMutability": "view",
      "type": "function"
    },
    {
      "inputs": [],
      "name": "platformAdmin",
      "outputs": [
        {
          "internalType": "address",
          "name": "",
          "type": "address"
        }
      ],
      "stateMutability": "view",
      "type": "function"
    },
    {
      "inputs": [
        {
          "internalType": "address",
          "name": "requester",
          "type": "address"
        }
      ],
      "name": "requestSeed",
      "outputs": [
        {
          "internalType": "uint64",
          "name": "sequenceNumber",
          "type": "uint64"
        }
      ],
      "stateMutability": "payable",
      "type": "function"
    },
    {
      "inputs": [
        {
          "internalType": "bytes32",
          "name": "seed",
          "type": "bytes32"
        },
        {
          "internalType": "bytes32",
          "name": "secret",
          "type": "bytes32"
        }
      ],
      "name": "revealCompleteSeed",
      "outputs": [],
      "stateMutability": "nonpayable",
      "type": "function"
    },
    {
      "inputs": [],
      "name": "revealedBackendSecret",
      "outputs": [
        {
          "internalType": "bytes32",
          "name": "",
          "type": "bytes32"
        }
      ],
      "stateMutability": "view",
      "type": "function"
    },
    {
      "inputs": [],
      "name": "revealedCompleteSeed",
      "outputs": [
        {
          "internalType": "bytes32",
          "name": "",
          "type": "bytes32"
        }
      ],
      "stateMutability": "view",
      "type": "function"
    },
    {
      "inputs": [
        {
          "internalType": "address",
          "name": "o",
          "type": "address"
        }
      ],
      "name": "revokeOracleRole",
      "outputs": [],
      "stateMutability": "nonpayable",
      "type": "function"
    },
    {
      "inputs": [],
      "name": "seedCount",
      "outputs": [
        {
          "internalType": "uint256",
          "name": "",
          "type": "uint256"
        }
      ],
      "stateMutability": "view",
      "type": "function"
    },
    {
      "inputs": [
        {
          "internalType": "uint64",
          "name": "",
          "type": "uint64"
        }
      ],
      "name": "seedRequests",
      "outputs": [
        {
          "internalType": "address",
          "name": "requester",
          "type": "address"
        },
        {
          "internalType": "uint32",
          "name": "timestamp",
          "type": "uint32"
        },
        {
          "internalType": "bool",
          "name": "fulfilled",
          "type": "bool"
        },
        {
          "internalType": "bool",
          "name": "cancelled",
          "type": "bool"
        }
      ],
      "stateMutability": "view",
      "type": "function"
    },
    {
      "inputs": [
        {
          "internalType": "address",
          "name": "_mysteryDeck",
          "type": "address"
        }
      ],
      "name": "setMysteryDeck",
      "outputs": [],
      "stateMutability": "nonpayable",
      "type": "function"
    }
  ],
  "bytecode": "0x608080604052346015576110f4908161001a8239f35b5f80fdfe6080806040526004361015610012575f80fd5b5f905f3560e01c90816301e193fe14610eeb575080630e5e0bde14610d7e5780631459457a14610aff5780631954e59f1461096357806324e5838b146108f7578063365a86fc146108d057806347ce07cc146108a75780634e1a041f1461087e57806352a5f1f81461079d57806354214f691461077a5780635bf414ac146107515780636c219e78146107125780638bed5bd214610667578063a55bb95c146106f5578063a5cbe41514610685578063a5df36af14610667578063b3919469146105e8578063b9cbd25014610352578063be1117121461029b578063cdcd7fb514610272578063ced72f87146101d2578063df9c49a31461013b5763fe23b49c1461011b575f80fd5b346101385780600319360112610138576020600654604051908152f35b80fd5b503461013857602036600319011261013857610155610f1c565b6002546001600160a01b031633036101c3576001600160a01b031680156101b457808252600960205260408220805460ff191660011790557f300291ab699d020fdb486a41f42e5b0e0e7f9883d3796c8b7fc5652ddd1c7edd8280a280f35b63e6c4247b60e01b8252600482fd5b6313a2574760e31b8252600482fd5b503461013857806003193601126101385760035460048054604051631711922960e31b81526001600160a01b0391821692810192909252909160209183916024918391165afa908115610267576020929161023a575b506001600160801b0360405191168152f35b61025a9150823d8411610260575b6102528183610f78565b810190610fd9565b5f610228565b503d610248565b6040513d84823e3d90fd5b50346101385780600319360112610138576002546040516001600160a01b039091168152602090f35b503461013857602036600319011261013857604060809167ffffffffffffffff6102c3610f05565b82606085516102d181610f48565b82815282602082015282878201520152168152600a60205220604051906102f782610f48565b5460018060a01b0381169182815263ffffffff60208201818460a01c16815260ff60606040850194828760c01c1615158652019460c81c16151584526040519485525116602084015251151560408301525115156060820152f35b50602036600319011261013857610367610f1c565b81546001600160a01b0316331415806105d3575b6105c45760035460048054604051631711922960e31b81526001600160a01b03918216928101839052921691602081602481865afa80156105b9576001600160801b0391869161059a575b50169081341061058c579060646020926005546040518581019142835244604083015260018060a01b038916986001600160601b03199060601b16606083015260748201526074815261041a609482610f78565b5190209260405195869485936393cbf21760e01b855260048501526024840152600160448401525af1908115610581578391610539575b6020604084867f73d3e319c4edfc89b47a59b91aa3a3ecd155e8ca896dfb4ecc625eacfbf941138663ffffffff42169085519061048d82610f48565b8582528782018381528783018681526060840187815267ffffffffffffffff93909316808852600a8b5298909620925183549151965192516001600160d01b03199092166001600160a01b03919091161760a09690961b63ffffffff60a01b169590951790151560c01b60ff60c01b161793151560c81b60ff60c81b16939093179092556005546040805191825263ffffffff90931660208201528492819081010390a3604051908152f35b90506020813d602011610579575b8161055460209383610f78565b81010312610575575167ffffffffffffffff81168103610575576020610451565b8280fd5b3d9150610547565b6040513d85823e3d90fd5b62976f7560e21b8552600485fd5b6105b3915060203d602011610260576102528183610f78565b5f6103c6565b6040513d87823e3d90fd5b63d7c6b71f60e01b8252600482fd5b506001546001600160a01b031633141561037b565b5034610138576020366003190112610138576001600160a01b0361060a610f1c565b1680156101b4576001546001600160a01b038116610658576001600160a01b03191681176001557ff01680f4f2b391656f16258172831a4582b6314466388d27dd3d631c68c7e5d78280a280f35b634236de1160e01b8352600483fd5b50346101385780600319360112610138576020600554604051908152f35b50346101385760203660031901126101385761069f610f1c565b6002546001600160a01b031633036101c3576001600160a01b0316808252600960205260408220805460ff191690557f8e641bdfded87c11d3024c6345adfd0a42b228c8ca2ccf6cfe86b13decf5809f8280a280f35b50346101385780600319360112610138576020604051610e108152f35b50346101385760203660031901126101385760209060ff906040906001600160a01b0361073d610f1c565b168152600984522054166040519015158152f35b50346101385780600319360112610138576004546040516001600160a01b039091168152602090f35b5034610138578060031936011261013857602060ff600854166040519015158152f35b5034610138576060366003190112610138576107b7610f05565b6107bf610f32565b506003546001600160a01b031680156108395733036107e8576107e59060443590610ff8565b80f35b60405162461bcd60e51b815260206004820152602360248201527f4f6e6c7920456e74726f70792063616e2063616c6c20746869732066756e637460448201526234b7b760e91b6064820152608490fd5b60405162461bcd60e51b815260206004820152601760248201527f456e74726f70792061646472657373206e6f74207365740000000000000000006044820152606490fd5b50346101385780600319360112610138576001546040516001600160a01b039091168152602090f35b50346101385780600319360112610138576003546040516001600160a01b039091168152602090f35b5034610138578060031936011261013857546040516001600160a01b039091168152602090f35b503461013857602036600319011261013857604060809167ffffffffffffffff61091f610f05565b168152600a602052205460ff6040519160018060a01b038116835263ffffffff8160a01c166020840152818160c01c161515604084015260c81c1615156060820152f35b503461013857604036600319011261013857600435602435338352600960205260ff60408420541615610af05760085460ff8116610ae15760018060a01b0384541684806040516020810190631006976960e11b8252600481526109c8602482610f78565b5190845afa6109d5610f9a565b9015610ad257602081805181010312610ace576020015160ff8116809103610ace57600403610abf5784809160405160208101906318cbe5db60e11b825260048152610a22602482610f78565b51915afa610a2e610f9a565b9015610abf57602081805181010312610abb576020015163ffffffff8116809103610abb574210610aac579160609160017f5238dc6aaa38e6c1a1a59968287b722aa2287a607513c615ab4b2cb9e6c85aca9460ff1916176008558160065580600755604051918252602082015263ffffffff42166040820152a180f35b630c5fd11960e11b8452600484fd5b8480fd5b630c5fd11960e11b8552600485fd5b8580fd5b630c5fd11960e11b8652600486fd5b63a89ac15160e01b8452600484fd5b631c80a42560e11b8352600483fd5b50346101385760a036600319011261013857610b19610f1c565b610b21610f32565b6044356001600160a01b03811690819003610d7a57606435906001600160a01b03821690818303610ace576084356001600160a01b0381169490859003610d76575f51602061109f5f395f51905f52549560ff8760401c16159667ffffffffffffffff811680159081610d6e575b6001149081610d64575b159081610d5b575b50610d4c5767ffffffffffffffff1981166001175f51602061109f5f395f51905f525587610d20575b506001600160a01b031680158015610d0f575b8015610d07575b610cf8576001600160601b0360a01b88541617875560018060a01b03166001600160601b0360a01b60035416176003556001600160601b0360a01b6004541617600455155f14610cf35750335b60018060a01b03166001600160601b0360a01b600254161760025580610cb2575b50610c5a5780f35b68ff0000000000000000195f51602061109f5f395f51905f5254165f51602061109f5f395f51905f52557fc7f505b2f371ae2175ee4913f4499e1f2633a7b5936321eed1cdaeb6115181d2602060405160018152a180f35b808352600960205260408320805460ff191660011790557f300291ab699d020fdb486a41f42e5b0e0e7f9883d3796c8b7fc5652ddd1c7edd8380a25f610c52565b610c31565b63e6c4247b60e01b8852600488fd5b508215610be4565b506001600160a01b03821615610bdd565b68ffffffffffffffffff191668010000000000000001175f51602061109f5f395f51905f52555f610bca565b63f92ee8a960e01b8952600489fd5b9050155f610ba1565b303b159150610b99565b899150610b8f565b8680fd5b8380fd5b5034610e97576020366003190112610e975767ffffffffffffffff610da1610f05565b16805f52600a60205260405f20805463ffffffff8160a01c168015610edc5760ff8260c01c16610ecd5760ff8260c81c16610ebe57610e100163ffffffff8111610eaa5763ffffffff164210610e9b5760ff60c81b1916600160c81b17905560055415610e3c575b7f291f2593d895362a50f1bec679e6d20c97a8bbe92c60f961852febf0e90fc4bf602060405163ffffffff42168152a280f35b5f546001600160a01b0316803b15610e97575f809160046040518094819363fe67374b60e01b83525af18015610e8c57610e77575b50610e09565b610e849192505f90610f78565b5f905f610e71565b6040513d5f823e3d90fd5b5f80fd5b6326c015ab60e21b5f5260045ffd5b634e487b7160e01b5f52601160045260245ffd5b6318e1e8fb60e31b5f5260045ffd5b63533d99dd60e01b5f5260045ffd5b632589d98f60e11b5f5260045ffd5b34610e97575f366003190112610e97576020906007548152f35b6004359067ffffffffffffffff82168203610e9757565b600435906001600160a01b0382168203610e9757565b602435906001600160a01b0382168203610e9757565b6080810190811067ffffffffffffffff821117610f6457604052565b634e487b7160e01b5f52604160045260245ffd5b90601f8019910116810190811067ffffffffffffffff821117610f6457604052565b3d15610fd4573d9067ffffffffffffffff8211610f645760405191610fc9601f8201601f191660200184610f78565b82523d5f602084013e565b606090565b90816020910312610e9757516001600160801b0381168103610e975790565b67ffffffffffffffff16805f52600a60205260405f20805463ffffffff8160a01c161561108b5760ff8160c01c168015611091575b61108b5760ff60c01b1916600160c01b179055600580546001810191829055908111610eaa576040805191825263ffffffff421660208301527f5445784c54e0574bd04a7e910e5dd5913b325e495acc4c1bed665306ba5932c191a3565b50505050565b5060ff8160c81c1661102d56fef0c57e16840df040f15088dc2f81fe391c3923bec73e23a9662efc9c229c6a00a2646970667358221220f3155270f776a07e6549ea4581e0ee3b04cae67ba02e12613a06aab87218ee1b64736f6c634300081c0033",
  "linkReferences": {},
  "deployedLinkReferences": {},
  "immutableReferences": {},
  "inputSourceName": "project/contracts/tournament/modules/randomizer/TournamentRandomizer.sol",
  "buildInfoId": "solc-0_8_28-f98c251e75453e471cb226b6ec77ef7faf562a29"
}